:10000000C00A0020ED5100000D2002000D2002006A
:10001000433C02000D2002000D2002000D200200D2
:100020000D2002000D2002000D2002000D20020014
:100030000D2002000D200200951E02000D2002007E
:100040000D2002000D2002000D2002000D200200F4
:100050000D2002000D2002000D2002000D200200E4
:100060000D2002000D2002000D2002000D200200D4
:10007000C19400000D2002000D2002000D2002009E
:100080000D2002000D2002000D2002000D200200B4
:100090000D200200995E00000D2002000D200200DC
:1000A0000D200200A55A0000855A00000D20020014
:1000B0000D200200E5FB01000D2002008904020072
:1000C00089EB020085EB02002DFC01009FEB020092
:1000D0008DEB02005904020091EB0200C9040200FA
:1000E000E5E10100A9E30100350502000D20020051
:1000F0000D2002000D2002000D2002000D20020044
:100100000D2002000D2002000D2002000D20020033
:100110000D2002000D2002000D2002000D20020023
:100120000D2002000D2002000D2002000D20020013
:100130000D2002000D20020071AB00004D450200B1
:1001400082B0BFF34F8FBFF36F8F30BF074BD3F831
:10015000F030DB0704D500230193019B052B01DD63
:1001600002B07047019B0133F6E700BF00ED00E0ED
:10017000000000000000000000000000000000007F
:100180000348044B834202D0034B03B11847704726
:100190008C2F00208C2F002000000000064B074908
:1001A000C91A891048BF0131491003D0044B0BB163
:1001B00001481847704700BF8C2F00208C2F00206B
:1001C0000000000010B5064C237843B9FFF7D8FFB4
:1001D000044B13B10448AFF300800123237010BD1A
:1001E0009E240020000000005C73030008B5054B4E
:1001F0001BB105490548AFF30080BDE80840FFF793
:10020000CDBF00BF00000000500D00205C73030054
:10021000A3F5803A704700BF174B002B08BF134B64
:100220009D46FFF7F5FF00218B460F461348144A01
:10023000121A24F02AFA0E4B002B00D098470D4BCF
:10024000002B00D098470020002104000D000D482D
:10025000002802D00C48AFF300800BF0E5FB200033
:10026000290024F075F90BF053F800BF00000800D6
:100270000000000000000000C00A0020C00A0020AA
:10028000002A0020000000000000000030B585B00A
:10029000054611F0BDF900284ED12A4B2877AB61F5
:1002A000AB6843F48013AB6023F031FDAB68A880EA
:1002B0001B030CD4B0F5FA7F09D92FF084FF01217C
:1002C000044608462EF0C0FF20462FF077FF284650
:1002D00011F0C6F9044680BBE86888B313F012FF3A
:1002E00027F063FB25F063FE0FF068FA10F062F868
:1002F00028F023FC26F03BFE134A01AB106851683E
:10030000127A03C301A81A7026F0F8FB0446A0B9BC
:1003100002460221042027F039FB68468DF8004090
:1003200011F07AFB0321042013F09CF80A200DF051
:1003300005FE284621F0A4FD0024204605B030BD6E
:100340000248CBE705040300E00603005C2F002011
:1003500008B50449044819F0FBFEBDE8084019F04F
:1003600029BF00BFEC060300AC0703004FF080522A
:10037000014B5A60704700BF00ED00E008B52FF058
:1003800099FB024BC3E9000108BD00BFC00A002071
:1003900008B52DED028B2FF08DFB0A4AD2E9003211
:1003A000C01A61EB02010AF0DDFD08EE100A2FF021
:1003B0009BFB00EE100AB8EE400A88EE000ABDEC86
:1003C000028B08BDC00A0020012337B54FF47A71B3
:1003D0000093164A0023164805F0C0F8054618B3E6
:1003E000144C1549206822F07CFD1449206822F045
:1003F00078FD21F06EFE21F06DFE114B114A009345
:1004000011495723206822F06CFD10492B46104AF1
:10041000206822F066FD284604F09AFF0D49206806
:1004200022F05FFD00BEFDE703B030BDA71E020055
:10043000680D0020140F0020D518030038080300B1
:10044000250903003D080300D8080300E70803005E
:10045000E4080300FC08030037B5154805F060F810
:10046000054618B3134C1449206822F03AFD13498D
:10047000206822F036FD21F02CFE21F02BFE104BDF
:10048000104A009310496223206822F02AFD0F4988
:100490002B460F4A206822F024FD284604F058FF1E
:1004A0000C49206822F01DFD00BEFDE703B030BD01
:1004B000680D0020140F0020D51803003808030031
:1004C0000D0903003D080300D8080300E7080300F6
:1004D000E4080300FC080300012837B50C462AD0C5
:1004E00002284ED0002872D1002900F095804B4D93
:1004F0004B49286822F0F5FC4A49286822F0F1FCB3
:1005000021F0E7FD21F0E6FD474B484A00934849BA
:100510002C23286822F0E5FC46492346464A2868F1
:1005200022F0DFFC204604F013FF4449286822F043
:10053000D8FC00BEFDE700296ED0384D3849286848
:1005400022F0CFFC3749286822F0CBFC21F0C1FD16
:1005500021F0C0FD344B354A0093354930232868DB
:1005600022F0BFFC33492346334A286822F0B9FC05
:10057000204604F0EDFE3249286822F0B2FC00BEAD
:10058000FDE7002948D0254D2549286822F0A9FC1F
:100590002449286822F0A5FC21F09BFD21F09AFD5A
:1005A000214B224A009322493423286822F099FCE7
:1005B00020492346204A286822F093FC204604F074
:1005C000C7FE2049286822F08CFC00BEFDE719B365
:1005D000124D1349286822F084FC1249286822F041
:1005E00080FC21F076FD21F075FD0F4B0F4A009342
:1005F0000F493823286822F074FC0E4923460E4A1E
:10060000286822F06EFC204604F0A2FE0E492868FD
:1006100022F067FC00BEFDE703B030BD140F0020E0
:10062000D5180300380803006A0A03003E090300D6
:10063000D8080300E7080300E70D0300CE09030014
:10064000F90903001F0A0300450A030000B589B039
:100650001C22002101A824F018F819238DF8043079
:100660000C4B0D4902930D4B01A8039302238DF807
:1006700010304FF4806305930A23ADF8183004F06E
:1006800087FE014610B10020FFF726FF09B05DF894
:1006900004FB00BF010C0000A00D0020D9040000E5
:1006A000014B186821F058BDA00D002008B5064B7D
:1006B000186821F06DFD014620B1BDE80840012019
:1006C000FFF70ABF08BD00BFA00D002008B5064B0C
:1006D000186821F06BFD014620B1BDE808400220FA
:1006E000FFF7FABE08BD00BFA00D0020FF22114B8E
:1006F0004FF6FF711A704FF0FF330F4A13600F4A25
:1007000013800F4A11800F4A0121138000230E4AE3
:1007100013700E4A13600E4A13600E4A13700E4A8D
:1007200011700E4AC2E90F33C2E91133D382D36488
:10073000704700BF6D2F0020442A00206E2C00203F
:100740006C2C00206A2C0020A0240020AC0D00207E
:10075000A80D0020A12400206E2F0020502A002088
:1007600030B58BB005AB029306AB019304AD07AB7C
:1007700000930C4603950A4908AB09AA0BF0D4F87C
:1007800006280AD1631E053455F8042B03F8012FFF
:10079000A342F9D101200BB030BD0020FBE700BF20
:1007A0007B0A030038B5054CA06B10B9A06301208B
:1007B00038BD856822F0F7FF2846F6E7502A00206A
:1007C0002DE9FF4104461B4D06222146284623F011
:1007D00032FF68B3AF680FB13D46F5E70C2022F059
:1007E000D5FE064620B3DFF858801349A860D8F834
:1007F000000022F076FB21F06CFC21F06BFC2378EA
:100800000E49039363780293A3780193E3780093EE
:1008100023796279D8F8000022F063FB0120236875
:100820002B60A388AF71AB80B76004B0BDE8F081E6
:100830000020FAE7802A0020930A0300980A0300A8
:10084000140F002010B50446FFF7A2FDFCEEC07A9D
:100850000A4A0B4BC2ED147AD3ED007AB2EE007A5D
:10086000F8EE677A67EE877A87EE807AFCEEC77AD1
:10087000C2ED0F7A0CB1C4ED007A10BD502A0020F1
:10088000AC0D00200B4B10B51B788BB10A4B5A787E
:10089000042A0DD0022807D1084A1160002498705C
:1008A00021F004FB204610BD0128F7D1044AF4E7EB
:1008B0000224F5E7A4260020502A00204C2A00201C
:1008C000482A0020074B1B7853B1074B5A78042A5B
:1008D00006D0D870013801288CBF26200020704730
:1008E00002207047A4260020502A0020064B1B78C7
:1008F00043B1064B5B78042B04D10122044B00204A
:100900001A70704702207047A4260020502A002049
:10091000A3260020094B01461B7863B1084B5B7886
:10092000023B012B07D8074B082814BF02460422BC
:10093000187819F07BB90220704700BFA426002068
:10094000502A00206D2F0020064B1B7843B1064B28
:10095000187830B9054B5878043818BF0120704713
:1009600001207047A4260020A3240020502A002044
:10097000064B1B7843B1064B1B782BB9054B5878B7
:10098000042818BF0120704701207047A4260020CA
:10099000A3240020502A0020F0B5334C85B0E37822
:1009A00001278DF80D300023304AC4E9113313605C
:1009B0002F4AE36313602F4AE36413702E4A0546FF
:1009C00017702E4A1370FFF747FD2D4B1B784BB95C
:1009D0002FF0F9FB0646394638462EF035FC3046F6
:1009E0002FF0ECFB002D32D00DF10E0325492648E7
:1009F00000930122098800780DF10D0315F0F2F83B
:100A0000054620B3214C2249206822F06AFA214988
:100A1000206822F066FA21F05CFB21F05BFB1E4BA4
:100A20001E4A00931E4940F2BA33206822F059FA58
:100A30001C492B461C4A206822F053FA284604F031
:100A400087FC1A49206822F04CFA00BEFDE704201A
:100A5000607009F069FF09F01BFFFFF78FFC21F0C0
:100A600025FA05B0F0BD00BF502A0020AC0D0020D3
:100A7000A80D0020A12400206E2F0020A224002019
:100A8000A32400206A2C00206D2F0020140F0020CA
:100A9000D518030038080300D20F0300D70A03005B
:100AA000D8080300E7080300E4080300FC0803007B
:100AB00008B5074B1B7843B1064B5B78032B04D179
:100AC0000120FFF769FF002008BD0220FCE700BFFE
:100AD000A4260020502A0020002330B5364D0446BD
:100AE000287885B08DF80D3000283CD1FFF7AAFE9C
:100AF00001232B70314B002C38D083ED000A304994
:100B00000DF10E032F4800930122098800780DF1A2
:100B10000D0315F067F80546002849D02A4C2B49EB
:100B2000206822F0DEF92A49206822F0DAF921F063
:100B3000D0FA21F0CFFA274B274A0093274940F2F9
:100B40007333206822F0CDF925492B46254A2068C9
:100B500022F0C7F9284604F0FBFB2349206822F065
:100B6000C0F900BEFDE79FED210AC3E7204A1470DB
:100B700000221A601F4B1B784BB92FF024FB05464F
:100B8000214601202EF060FB28462FF017FB1A4C5F
:100B90001A4B1968236D61640093E06BD4E912323B
:100BA00009F092FE0320607009F0BEFEFFF70CFC16
:100BB00021F07CF905B030BDA2240020A40D002056
:100BC0006A2C00206D2F0020140F0020D518030080
:100BD00038080300B30F0300D70A0300D808030046
:100BE000E7080300E4080300FC080300000000001D
:100BF000A3260020A3240020502A0020A80D0020B6
:100C000038B5FFF753FD1D4B1B781BB31C4B5A78AF
:100C1000042A1FD19D781B4C012D18D1FFF7B8FB7A
:100C2000194BD3ED007AF8EE677AB4EEE70AF1EEED
:100C300010FA0CDB2570154CD4ED007AF5EE407AF5
:100C4000F1EE10FA0AD10120FFF746FF02E0237807
:100C5000002BF0D1BDE83840FFF738BDFFF798FB17
:100C6000D4ED007A30EE670AF7EE007AB4EEE70AC8
:100C7000F1EE10FAEEDD0020E6E700BFA42600202A
:100C8000502A0020A3260020482A0020A40D00207E
:100C90007F2337B58DF80730114B1878FF280ED019
:100CA000104D6B78042B0AD00DF1070118F0D2FF1C
:100CB000044630B99DF90700287421F007F903B004
:100CC00030BD094D0949286822F00BF921F001FADD
:100CD00021F000FA22460649286822F002F9EEE7E0
:100CE0006D2F0020502A0020140F0020930A0300CB
:100CF000870B0300F8B50E461546114C114F04F052
:100D000021FA04F039F83946206822F0EAF821F097
:100D1000E0F921F0DFF932460B49206822F0E1F8D2
:100D20003946206822F0DDF821F0D3F921F0D2F91C
:100D30002A4620680549BDE8F84022F0D2B800BF35
:100D4000140F00205F0B0300A80B0300B70B030078
:100D500073B50446124D1349286822F0C2F821F0F9
:100D6000B8F921F0B7F91049104814F0020F14BF78
:100D700002460A4614F0010F14BF03460B4614F056
:100D8000040F14BF06460E4614F0080F18BF0146A4
:100D9000CDE900610649286822F0A3F802B070BDD1
:100DA000140F00205F0B0300B8140300AA14030003
:100DB000C60B0300034610B5244C25492068052BBB
:100DC0003CD8DFE803F003131B232B3322F089F810
:100DD00021F07FF921F07EF91E49206822F081F888
:100DE00020681D49BDE8104022F07BB822F079F858
:100DF00021F06FF921F06EF91849EEE722F071F851
:100E000021F067F921F066F91549E6E722F069F863
:100E100021F05FF921F05EF91249DEE722F061F876
:100E200021F057F921F056F90F49D6E722F059F889
:100E300021F04FF921F04EF90C49CEE722F051F89C
:100E400021F047F921F046F90949C6E7140F0020BF
:100E50005F0B03000A0C0300D51803001A0C0300F3
:100E6000300C0300400C0300530C03006E0C030015
:100E7000820C03002DE9F04F074688460024684D98
:100E8000164695F82C2085B00392664A03F1FF3987
:100E9000D2F800B04C4504DB05B0BDE8F04F21F0BE
:100EA00004B833195B7816F804A0092B09D1584609
:100EB00023F01FFCA31C02465946F01823F0BBFB8D
:100EC00018B1A2440AF10104E4E7039B022BE3D129
:100ED000AE6B554C2046A4681CB946B105B0BDE8C0
:100EE000F08F0622394623F0A6FB0028F2D14F4CA2
:100EF0004F49206821F0F5FF21F0EBF821F0EAF8E6
:100F00004C49206821F0EDFF18F018FF064610B399
:100F10004949206821F0E5FF4849206821F0E1FFB8
:100F200021F0D7F821F0D6F8454B464A00934649C0
:100F3000F323206821F0D5FF44493346444A206812
:100F400021F0CFFF304604F003FA4249206821F037
:100F5000C8FF00BEFDE74FF00109484685F82C9018
:100F6000FFF728FF3146DFF8F8A0CDF800A07A7926
:100F70003B79386843EA022363F30F014246AB79B9
:100F800018F028FE2128054623D13349206821F096
:100F9000A8FF21F09EF821F09DF82B462C4A2B4902
:100FA000206821F09EFF284604F0D2F92B492068E2
:100FB00021F097FF3146CDF800A07A793B79386867
:100FC00043EA022363F30F0142464B4618F002FE48
:100FD0000546002D82D01849206821F082FF17496C
:100FE000206821F07EFF21F074F821F073F8144B93
:100FF000144A009314494FF48573206821F071FF5F
:1010000012492B46124A206821F06BFF284604F053
:101010009FF91049206821F064FF00BEFDE700BF82
:10102000502A0020402A0020802A0020140F00208F
:101030005F0B0300950C0300D5180300380803006C
:1010400013100300D70A0300D8080300E7080300C1
:10105000E4080300FC080300930A0300A50C030046
:101060006D2F002008B5FFF7F7F9FF220020054B90
:101070001A70054B83F82C00FFF79CFEBDE8084072
:10108000FFF734BB6D2F0020502A00207FB5784C2D
:10109000FFF70CFB7749206821F023FF21F019F8B6
:1010A00021F018F87449206821F01BFF002202206B
:1010B000724B734D1A7085F82C00FFF77BFE95F983
:1010C00005106FF0630001EB81010DF10E0303AA1F
:1010D000490018F041FE064618B36A49206821F01D
:1010E00000FF6949206821F0FCFE20F0F2FF20F0AB
:1010F000F1FF664B664A0093664940F22E33206842
:1011000021F0EFFE64493346644A206821F0E9FE8D
:10111000304604F01DF96249206821F0E2FE00BE6D
:10112000FDE70A23BDF90E0090FBF3F040B22871F1
:1011300020F0C5FE294631F8080F14F09DFE064642
:1011400018B35049206821F0CCFE4F49206821F0A7
:10115000C8FE20F0BEFF20F0BDFF4C4B4C4A009370
:101160004C4940F23333206821F0BBFE4A493346F4
:101170004A4A206821F0B5FE304604F0E9F84849B3
:10118000206821F0AEFE00BEFDE747F6FF73CDE913
:1011900000032B8DAA8C298CA88B18F0FBFC06462B
:1011A00018B33849206821F09CFE3749206821F0A7
:1011B00098FE20F08EFF20F08DFF344B344A0093D0
:1011C00034494FF44F73206821F08BFE3249334687
:1011D000324A206821F085FE304604F0B9F83049E3
:1011E000206821F07EFE00BEFDE70121287E18F078
:1011F00091FD002837D001262A4920682E7621F05B
:1012000070FE20F066FF20F065FF2749206821F07E
:1012100068FE287E314618F07DFD054618B3194951
:10122000206821F05EFE1849206821F05AFE20F067
:1012300050FF20F04FFF154B154A0093154940F21F
:101240004633206821F04DFE13492B46134A20688F
:1012500021F047FE284604F07BF81149206821F070
:1012600040FE00BEFDE7FFF731FA04B070BD00BFDD
:10127000140F00205F0B0300110D0300A0240020B9
:10128000502A0020D518030038080300910F0300EE
:10129000D70A0300D8080300E7080300E4080300A6
:1012A000FC080300930A0300260D030070B5FF2617
:1012B00092B0FFF7FBF920F0A6FE324600211E484F
:1012C00023F0E3F9002132461C4823F0DEF90A221C
:1012D0001B4C1C4B62712022C4E907224FF47A7226
:1012E00001252360002326812646A262164AC4E90E
:1012F000113384F82D306362E363E3641370A571E6
:101300002576FFF7F3F9607809F00EFB16F8100B5D
:1013100020F0CEFD31464422684623F0DDF994E802
:101320000F0020F034FEFFF7B1FE084B1D7012B025
:10133000BDE87040FFF7CAB9A4250020A52400200D
:10134000502A002001010001A4240020A42600202E
:10135000F7B59B4D04462B78002B00F09E84FFF7D9
:10136000A5F92368974A23F47F4323F007039342A8
:1013700000F009812BD802F17F42934200F078847B
:1013800013D802F17F42934255D002F54032934286
:1013900000F06684A2F58022934241D0FFF796F9CF
:1013A00003B0BDE8F04020F081BD874A934200F0D1
:1013B000808302F57C029342F0D123799B07EDD024
:1013C000237F002BEAD1A37F04F11F022EE07F4A86
:1013D000934200F0E58010D802F17C42934200F085
:1013E000198302F1FE7202F580329342D6D1607900
:1013F000774B987120F071FDD0E7764A934200F068
:101400006C8302F1FE7202F580329342C6D1704BBA
:10141000B4F805001989588280B220F075FDBDE747
:1014200023799A07BAD0A37D04F11702E17A601DEF
:10143000FFF720FDB2E7684B207B684F19783870C2
:1014400018F024FC1128044624D1654D654928680C
:1014500021F047FD6449286821F043FD20F039FE62
:1014600020F038FE614B624A009362494FF40973E1
:10147000286821F036FD60492346604A286821F03B
:1014800030FD204603F064FF5D49286821F029FD06
:1014900000BEFDE720B3524D5249286821F021FDDE
:1014A0005149286821F01DFD20F013FE20F012FEA6
:1014B0004E4B4F4A00934F4940F22723286821F0B2
:1014C00010FD4D4923464D4A286821F00AFD20466B
:1014D00003F03EFF4B49286821F003FD00BEFDE705
:1014E00002203B4D687009F01FFAA879FFF712FA45
:1014F0000446A8B13A4E4449306821F0F2FC20F08D
:10150000E8FD20F0E7FD3C4923463C4A306821F0E5
:10151000E8FC204603F01CFF3C49306821F0E1FC68
:10152000032085F82C00FFF745FC1021384A387855
:1015300014F00AFB054600283FF430AF284C294937
:10154000206821F0CEFC2849206821F0CAFC20F058
:10155000C0FD20F0BFFD254B254A0093254940F2F0
:101560003523206821F0BDFC23492B46234A2068FF
:1015700021F0B7FC284603F0EBFE2249206821F059
:10158000B0FC00BEFDE7B4F80500114BD860B4F81C
:1015900007105962B4F809209A62FFF7ABFBFDE629
:1015A0001C4DB4F805402B78013B052B3FF6F6AEF9
:1015B000DFE813F032009000A801F4002A010002D5
:1015C000A4260020A0000602A0000901A000090630
:1015D000502A0020A0000907A42400206D2F00201D
:1015E000140F0020D518030038080300251003004D
:1015F000D70A0300D8080300E7080300E408030043
:10160000610D0300FC080300930A0300BC0D0300F6
:10161000791003009F24002000232B7024B3A84DD1
:10162000A849286821F05DFCA749286821F059FCE9
:1016300020F04FFD20F04EFDA44BA54A0093A54994
:1016400040F23513286821F04CFCA3492346A34AF5
:10165000286821F046FC204603F07AFEA04928685D
:1016600021F03FFC00BEFDE79E4B19689E4B1878A9
:1016700014F07EFA064620B3914C9249206821F07E
:1016800030FC9149206821F02CFC20F022FD20F054
:1016900021FD8E4B8E4A00938E4940F2391320680B
:1016A00021F01FFC8C493346904A206821F019FC38
:1016B000304603F04DFE8A49206821F012FC00BE3E
:1016C000FDE7022304202B70894B83F82C00FFF7E1
:1016D00071FB63E600232B7024B3794D79492868A8
:1016E00021F0FFFB7849286821F0FBFB20F0F1FC9A
:1016F00020F0F0FC754B764A0093764940F2411396
:10170000286821F0EEFB74492346744A286821F0CA
:10171000E8FB204603F01CFE7149286821F0E1FB3C
:1017200000BEFDE7734B1B780F2B7FF437AE05200F
:101730006F4B83F82C00FFF73DFB6F4B012219889C
:10174000694B187814F028FA064620B35C4C5D49C2
:10175000206821F0C6FB5C49206821F0C2FB20F024
:10176000B8FC20F0B7FC594B594A0093594940F254
:101770004713206821F0B5FB574933465B4A206880
:1017800021F0AFFB304603F0E3FD5549206821F01E
:10179000A8FB00BEFDE704232B70FFE500232B70A0
:1017A00024B3474D4749286821F09BFB46492868E8
:1017B00021F097FB20F08DFC20F08CFC434B444A39
:1017C000009344494FF4A773286821F08AFB4249EB
:1017D0002346424A286821F084FB204603F0B8FDE6
:1017E0003F49286821F07DFB00BEFDE70120404B0A
:1017F000987520F079FB414B022219883A4B1878F2
:1018000014F0CAF90523C7E724B32D4D2D492868E4
:1018100021F067FB2C49286821F063FB20F059FC7C
:1018200020F058FC294B2A4A00932A4940F25913C8
:10183000286821F056FB28492346284A286821F0C9
:1018400050FB204603F084FD2549286821F049FB20
:1018500000BEFDE70220264BD87520F04CFB284B3C
:1018600001221988204B187814F096F9064620B307
:10187000134C1449206821F034FB1349206821F0EF
:1018800030FB20F026FC20F025FC104B104A009382
:10189000104940F25F13206821F023FB0E493346C4
:1018A000124A206821F01DFB304603F051FD0C491F
:1018B000206821F016FB00BEFDE703236CE700BFA4
:1018C000140F0020D518030038080300F20F03009E
:1018D000D70A0300D8080300E7080300DD0D030062
:1018E000FC080300442A00206D2F0020E4080300B8
:1018F000502A0020A02400206E2C00206C2C0020F8
:101900006A2C002000232B7024B39E4D9E4928682A
:1019100021F0E7FA9D49286821F0E3FA20F0D9FB8D
:1019200020F0D8FB9A4B9B4A00939B4940F26513E9
:10193000286821F0D6FA99492346994A286821F067
:10194000D0FA204603F004FD9649286821F0C9FA30
:1019500000BEFDE7944B02221988944B187814F0CE
:101960001BF9064620B3874C8749206821F0B9FA55
:101970008649206821F0B5FA20F0ABFB20F0AAFBE5
:10198000834B844A0093844940F26913206821F014
:10199000A8FA82493346864A206821F0A2FA3046E6
:1019A00003F0D6FC7F49206821F09BFA00BEFDE7DA
:1019B0000623F1E600232B7024B3724D7249286888
:1019C00021F08FFA7149286821F08BFA20F081FB11
:1019D00020F080FB6E4B6F4A00936F4940F26F130B
:1019E000286821F07EFA6D4923466D4A286821F067
:1019F00078FA204603F0ACFC6A49286821F071FAB5
:101A000000BEFDE703206B4B587008F08DFFFEF71A
:101A1000DBFCC3E4267A102E7FF4C0AC04F1090588
:101A200032462946644822F006FE68B9A2796379F5
:101A300043EA0223614A1380614B187840F00200A8
:101A40001870FFF785F9A9E4324629465D4822F06F
:101A5000F2FD50B9A279637943EA02235A4A13800E
:101A6000574B187840F00100EAE7324629465748BC
:101A700022F0E1FD50B9A279637943EA0223544A86
:101A800013804F4B187840F00400D9E71022294604
:101A9000504822F0D0FD00287FF480ACA279637911
:101AA00043EA0223404A1380454B187840F008006F
:101AB000C6E7627A102A7FF471AC474804F10A0144
:101AC00022F0B9FD00287FF469AC444BD4F805201E
:101AD0001A60434B01221A7060E43D4AB4F80530A5
:101AE00012889A4238D1237B002B31D00020FEF798
:101AF00053FF354AB4F8053012889A423BD02F4A3A
:101B000012889A427FF44AAC6289D1B290B200291D
:101B100070D128498B6C01338B64324C254D23687E
:101B200003442360AB8A834202D0AA8220F0EAF900
:101B30002D4A136801331360AB78022B7FF42EAC6F
:101B40002A4B22681B689A42FFF428AC284BC1E755
:101B50000122274B1A70CCE7134A12889A42C8D147
:101B6000E3791D2B7FF41AAC207914F02BF80020B8
:101B7000FEF7B2FF12E4E3791D2BC5D1207914F0F2
:101B800021F8C1E7140F0020D5180300380803001E
:101B9000F20F0300D70A0300D8080300E708030088
:101BA000DD0D0300FC080300682C00206D2F0020D1
:101BB000E4080300502A0020591003006E2C002076
:101BC000A0240020691003006C2C002049100300A1
:101BD0006A2C00203910030079100300442A0020E9
:101BE0009F240020AC0D0020A80D00204C2A0020CE
:101BF000A32600202A4B267B1F782A4D3FB30027BF
:101C00002E701F702B789E420ED0DFF89CC098BFBC
:101C1000C3F16403DCF84C708CBFF31A9B19DBB280
:101C20001F44CCF84C702E7001251A260C348D42BE
:101C3000BFF673AF6B1EB3FBF6FC06FB1C3314F848
:101C4000017F61339F427FF464AF0135EFE7642782
:101C50002B780133B3FBF7FC07FB1C332B70D1E768
:101C6000B4F80510104B1981588A89B2FFF7D5BB1B
:101C70000D4C6378062B09D100232B706370FFF79E
:101C8000F1F9607808F050FEFFF788BB012363701C
:101C9000FFF7E8F9FFF7FAF9F3E703B0F0BD00BF8B
:101CA0006E2F0020A1240020502A002073B5204E62
:101CB00096F82C30022B38D11E4C1F49206821F099
:101CC00010F920F006FA20F005FA1C49206821F0EE
:101CD00008F918F033F8054618B31949206821F0BF
:101CE00000F91849206821F0FCF820F0F2F920F002
:101CF000F1F9154B154A009315494FF444732068C8
:101D000021F0EFF813492B46134A206821F0E9F837
:101D1000284603F01DFB1149206821F0E2F800BEBF
:101D2000FDE786F82C00FFF745F802B070BD00BF54
:101D3000502A0020140F00205F0B0300950C0300B5
:101D4000D5180300380803004C0F0300D70A03001E
:101D5000D8080300E7080300E4080300FC080300B8
:101D6000F0B52F4B2F4C1B782646677893B0002B8D
:101D700053D0012F2AD02C4B187817F09BFF054623
:101D800030B32A4C2A49206821F0ABF82949206851
:101D900021F0A7F820F09DF920F09CF9264B274A66
:101DA000009327494FF47573206821F09AF825496C
:101DB0002B46254A206821F094F8284603F0C8FAFB
:101DC0002249206821F08DF800BEFDE7FFF76EFF85
:101DD000FF2200211E4822F058FCFF2200211D484E
:101DE00022F053FC012363700023C4E9113384F80B
:101DF0002D30E363E364FEF779FC012F01D1FFF797
:101E000045F9607808F090FD44221349684622F0B5
:101E100063FC96E80F0020F0BAF813B0F0BD00BFE5
:101E2000A4260020502A00206D2F0020140F00202F
:101E3000D5180300380803006D0F0300D70A03000C
:101E4000D8080300E7080300E4080300FC080300C7
:101E5000A4250020A5240020602A002070B5064695
:101E60000D461446FEF722FC0A4B1B787BB10A4B49
:101E70005A78042A0BD05E71084B1D70084B1C70F9
:101E8000FFF76EFF0024FEF721FC204670BD022400
:101E9000F9E700BFA4260020502A0020A424002037
:101EA000A324002038B50F4D6B78042B17D0FFF713
:101EB000FDFE6B78012B0BD00B4B187817F0FAFE58
:101EC000062304466B70687808F02EFD204638BD66
:101ED0000024064B6C701C70FFF7C4F8F3E7022473
:101EE000F4E700BF502A00206D2F0020A426002018
:101EF0000E4B10B51B780E4C2BB920F0EAF820F0F1
:101F0000E9F80C490CE00C4B5B78042BF5D1FEF79B
:101F1000EDFC0028F1D120F0DCF820F0DBF80749D7
:101F20002068BDE8104020F0DCBF00BFA4260020E0
:101F3000140F0020EE0D0300502A0020F50D0300C1
:101F4000124B10B51B78124C2BB920F0C2F820F0C0
:101F5000C1F8104915E0104B5B78032BF5D1D0E99F
:101F6000023253F822301878FEF7ACFC0028ECD18E
:101F7000FEF79EFD0028E8D120F0ABF820F0AAF88B
:101F800006492068BDE8104020F0ABBFA426002021
:101F9000140F0020EE0D0300502A0020F50D030061
:101FA00038B52E4B2E4C1B784BB920F092F820F010
:101FB00091F82C492068BDE8384020F092BF2A4DA6
:101FC0006B78013B032B3DD8DFE803F02A02303663
:101FD00020F07FF820F07EF82449206820F081FF6F
:101FE00020F077F820F076F82149206820F079FF7A
:101FF0002B786BBB20F06DF820F06CF81D49206841
:1020000020F06FFF20F065F820F064F81849206890
:1020100020F067FF20F05DF820F05CF81649C9E772
:1020200020F057F820F056F81449D6E720F051F880
:1020300020F050F81249D0E720F04BF820F04AF891
:102040001049CAE720F045F820F044F80E49C4E7EB
:1020500020F03FF820F03EF80C49D0E7A4260020FD
:10206000140F0020EE0D0300502A0020F90D03008C
:10207000D51803003B0E0300F50D0300070E030007
:10208000140E0300230E03002F0E03004C0E03005A
:10209000124B10B51B78124C2BB920F01AF820F017
:1020A00019F8104915E0104B5B78042BF5D0D0E9F6
:1020B000023203EB8201496853F82230098818780C
:1020C000FEF7E0FB0028E8D120F003F820F002F84A
:1020D00006492068BDE8104020F003BFA426002078
:1020E000140F0020EE0D0300502A0020F50D030010
:1020F000144B13B51B78144C53B91FF0EAFF1FF0B3
:10210000E9FF1249206802B0BDE8104020F0E9BEA6
:102110001FF0DFFF1FF0DEFF0D49206820F0E1FE19
:102120001FF0D7FF1FF0D6FF0A4B0B4A1B680B4965
:1021300000930B4B92781B68206820F0D2FE02B00F
:1021400010BD00BFA4260020140F0020EE0D0300D8
:102150005A0E0300482A0020502A0020690E03006E
:102160004C2A0020294B37B51B78294C53B91FF056
:10217000B0FF1FF0AFFF2749206803B0BDE8304033
:1021800020F0AFBE244B5B78042BF0D0D0E90230B6
:1021900003EB80018A68496812780978003A53F89D
:1021A000203018BF0122003918BF012193F9000027
:1021B000FFF754FE054628B91FF08BFF1FF08AFF7A
:1021C0001649D9E71649206820F08BFE154920688A
:1021D00020F087FE1FF07DFF1FF07CFF124B134A9B
:1021E0000093134940F25673206820F07AFE11499B
:1021F0002B46114A206820F074FE284603F0A8F808
:102200000E49206820F06DFE00BEFDE7A4260020E8
:10221000140F0020EE0D0300502A0020F50D0300DE
:10222000D518030038080300280F0300D70A03005D
:10223000D8080300E7080300E4080300FC080300D3
:10224000144B13B51B78144C53B91FF042FF1FF009
:1022500041FF1249206802B0BDE8104020F041BEA5
:102260001FF037FF1FF036FF0D49206820F039FEC0
:102270001FF02FFF1FF02EFF0A4B0B4A1B780B4954
:1022800000930B4B92F904201B78206820F029FE64
:1022900002B010BDA4260020140F0020EE0D030094
:1022A000750E0300A3240020502A0020880E03008E
:1022B000A4240020124B10B51B78124C4BB91FF010
:1022C00008FF1FF007FF20680F49BDE8104020F00D
:1022D00008BE0E4B5A78042AF1D0D0E9022152F8F8
:1022E000212012781A811FF0F4FE1FF0F3FE2068FF
:1022F000074920F0F6FDBDE81040FFF731BD00BFF3
:10230000A4260020140F0020EE0D0300502A002008
:10231000F50D0300114B10B51B78114C4BB91FF094
:10232000D8FE1FF0D7FE20680E49BDE8104020F00F
:10233000D8BD1FF0CEFE1FF0CDFE0B49206820F067
:10234000D0FD1FF0C6FE1FF0C5FE084B20681A899D
:102350000749BDE8104020F0C4BD00BFA4260020FE
:10236000140F0020EE0D0300920E0300502A0020EF
:102370008E0E0300104B10B51B78104C4BB91FF09C
:10238000A8FE1FF0A7FE0E492068BDE8104020F00F
:10239000A8BD0C4B5A78042AF1D0D0E9022152F89A
:1023A000212012781A76FFF7DBFC1FF092FE1FF057
:1023B00091FE0549E8E700BFA4260020140F002085
:1023C000EE0D0300502A0020F50D030038B5124B26
:1023D000124C1B782BB91FF07CFE1FF07BFE1049BE
:1023E00010E0104B5A78042AF5D0D0E9021551F8C4
:1023F0002510012A08780AD198711FF06AFE1FF093
:1024000069FE09492068BDE8384020F06ABDFEF742
:1024100081FA0028DFD1F0E7A4260020140F002065
:10242000EE0D0300502A0020F50D0300114B10B5EE
:102430001B78114C4BB91FF04CFE1FF04BFE20686F
:102440000E49BDE8104020F04CBD1FF042FE1FF0C9
:1024500041FE0B49206820F044FD1FF03AFE1FF0BA
:1024600039FE084A206893790749127EBDE810407A
:1024700020F037BDA4260020140F0020EE0D03002D
:10248000980E0300502A00208B0E030038B5174B1E
:10249000174C1B784BB91FF01CFE1FF01BFE206869
:1024A0001449BDE8384020F01CBD134A5378042B72
:1024B000F1D0D0E9023153F8210003EB81035968D0
:1024C000056808689968DB6809681B68C2E90750F5
:1024D000C2E909131FF0FDFD1FF0FCFD206807494C
:1024E00020F0FFFCBDE83840FFF73ABCA4260020EE
:1024F000140F0020EE0D0300502A0020F50D0300FC
:10250000144B13B51B78144C53B91FF0E2FD1FF0A8
:10251000E1FD1249206802B0BDE8104020F0E1BCA6
:102520001FF0D7FD1FF0D6FD0D49206820F0D9FC23
:102530001FF0CFFD1FF0CEFD0A4A0B49936A0193AD
:10254000536A00932068D2E9072320F0CAFC02B046
:1025500010BD00BFA4260020140F0020EE0D0300C4
:10256000A60E0300502A0020BB0E03001A4B13B521
:102570001B781A4C53B91FF0ACFD1FF0ABFD184986
:10258000206802B0BDE8104020F0ABBC154B5B7872
:10259000042BF0D0D0E90232694653F82200FEF74E
:1025A000DFF878B16846FEF70BF958B11FF091FDDE
:1025B0001FF090FD0C49206820F093FCFFF7D0FB42
:1025C00002B010BD1FF085FD1FF084FD0449206896
:1025D00020F087FCF4E700BFA4260020140F0020A1
:1025E000EE0D0300502A0020F50D0300104B10B52E
:1025F0001B78104C4BB91FF06CFD1FF06BFD206871
:102600000D49BDE8104020F06CBC0C4B5B78042BEE
:10261000F1D0FEF7C7F81FF05CFD1FF05BFD2068EE
:10262000074920F05EFCBDE81040FFF799BB00BFF2
:10263000A4260020140F0020EE0D0300502A0020D5
:10264000F50D03007FB5264B264D1B7853B91FF0BF
:1026500040FD1FF03FFD2449286804B0BDE87040EC
:1026600020F03FBC1FF035FD1FF034FD1F492868E6
:1026700020F037FC1FF02DFD1FF02CFD1C492868B1
:1026800020F02FFC1FF025FD1FF024FD19492868BC
:1026900020F027FC1FF01DFD1FF01CFD14492868C9
:1026A00020F01FFC144C154EA3682BB91FF011FD30
:1026B0001FF010FD0E49CFE71FF00BFD1FF00AFDC4
:1026C000217823796279039161780291A17801914F
:1026D000E17800912868314620F003FCA468E3E724
:1026E000A4260020140F0020EE0D0300CC0E0300E2
:1026F000D70E0300EE0E0300802A0020050F030012
:10270000012837B50C462AD002284ED0002872D1B5
:10271000002900F095804B4D4B49286820F0E1FBE3
:102720004A49286820F0DDFB1FF0D3FC1FF0D2FCE3
:10273000474B484A009348492C23286820F0D1FB96
:1027400046492346464A286820F0CBFB204602F043
:10275000FFFD4449286820F0C4FB00BEFDE70029C6
:102760006ED0384D3849286820F0BBFB37492868BF
:1027700020F0B7FB1FF0ADFC1FF0ACFC344B354A2A
:10278000009335493023286820F0ABFB33492346BA
:10279000334A286820F0A5FB204602F0D9FD3249D3
:1027A000286820F09EFB00BEFDE7002948D0254D9B
:1027B0002549286820F095FB2449286820F091FBE2
:1027C0001FF087FC1FF086FC214B224A0093224910
:1027D0003423286820F085FB20492346204A2868B6
:1027E00020F07FFB204602F0B3FD2049286820F04E
:1027F00078FB00BEFDE719B3124D1349286820F09D
:1028000070FB1249286820F06CFB1FF062FC1FF07F
:1028100061FC0F4B0F4A00930F493823286820F0C2
:1028200060FB0E4923460E4A286820F05AFB2046DA
:1028300002F08EFD0E49286820F053FB00BEFDE734
:1028400003B030BD140F0020D51803003808030072
:102850002F11030099100300D8080300E7080300B4
:10286000E70D0300CE090300F90903001F0A030066
:10287000450A030000B589B01C22002101A821F0FF
:1028800004FF19238DF804300C4B0D4902930D4BB6
:1028900001A8039302238DF810304FF48063059351
:1028A0000A23ADF8183002F073FD014610B1002084
:1028B000FFF726FF09B05DF804FB00BFB53000004C
:1028C000B00D002001270000014B18681FF044BC28
:1028D000B00D002008B5064B18681FF059FC0146E2
:1028E00020B1BDE808400120FFF70ABF08BD00BFC6
:1028F000B00D002008B5064B18681FF057FC0146C4
:1029000020B1BDE808400220FFF7FABE08BD00BFB5
:10291000B00D0020F0B501201A250D4C0D4A23788A
:102920000D4916880B70864207DC64220133B3FB25
:10293000F2F102FB11332370F0BD421EB2FBF5F73A
:1029400005FB1722613201F8012F0130EBE700BFD0
:10295000A526002054240020B2270020F0B5012035
:102960001A250D4C0D4A23780D4916880B708642A6
:1029700007DC64220133B3FBF2F102FB1133237055
:10298000F0BD421EB2FBF5F705FB1722613201F8DC
:10299000012F0130EBE700BFA526002056240020C0
:1029A000B32600200122014B1A707047B126002087
:1029B0000122014B1A707047B026002038B5FFF78E
:1029C00089FF1C4B1C481A781AB10389023B9342B9
:1029D00002DC0289033A92B2184B1A80184B1B781A
:1029E0001BB101890239994221DC418A99B10389DD
:1029F0008BB19942134C09D85B1A043393FBF1F362
:102A0000013313FB01F3073B238004E0CD1A042DAF
:102A10000BDC07392180C3789B075CBF094B1A8800
:102A2000BDE838408282FFF765BF033BECE705490C
:102A30000B80F0E7AA2600206C0E00205624002010
:102A4000AB26002054240020FF2208B5094B0A4879
:102A50001A7002F065FD094802F062FD0023084A81
:102A6000D382084A1370084A1370BDE808401FF06B
:102A700056BA00BF722F0020340E0020FC0D00203B
:102A80006C0E0020B5280020B428002038B504467C
:102A90000D46FFF71FFF0B4B1B788BB10A4B5A7883
:102AA000042A0DD0022C07D1084A15609C7000241E
:102AB000FFF720FF204638BD012CF7D1044AF4E788
:102AC0000224F5E7B32800206C0E0020AC2A002079
:102AD000A82A002010B5FFF7FDFE084B1B785BB15C
:102AE000074B5B78042B07D101220024054B1A7099
:102AF000FFF700FF204610BD0224F9E7B3280020AD
:102B00006C0E0020B2280020064B1B7843B1064B08
:102B1000187830B9054B5878043818BF0120704731
:102B200001207047B3280020B22600206C0E002040
:102B3000064B1B7843B1064B1B782BB9054B5878D5
:102B4000042818BF0120704701207047B3280020D7
:102B5000B22600206C0E002038B5174D6B78042B80
:102B600027D0164B1878FF2809D16B78012B13D189
:102B70000024134B6C701C70FFF766FF13E016F017
:102B800083FF044630B90F4B187816F07DFF0446DA
:102B90000028EAD0204638BD0B4B187817F08AF889
:102BA000062304466B70687807F0D2FE1FF0B7F971
:102BB000F0E70224EEE700BF6C0E0020712F00202A
:102BC000B3280020702F0020722F002008B50B4B77
:102BD0009A7D012A02D0DA7D022A0CD1084A1278A5
:102BE0004AB1084A1278002A0CBF0220032058700C
:102BF00007F0AEFE08BD0220F9E700BF6C0E002012
:102C0000B5280020B4280020002337B50121544AFC
:102C1000544C1360544A05461370544A5448136088
:102C2000544AC4E912331370534AE3631170534A90
:102C300063641370524A1370524A1370524A1370ED
:102C400002F06EFC514802F06BFC514802F068FC47
:102C5000E378DA0701D5FFF75DFEE3789B0701D53E
:102C6000FFF77CFE002D2DD04A48012223214A4B3C
:102C7000007813F065F9054620B3484C48492068B0
:102C800020F02FF94749206820F02BF91FF021FA96
:102C90001FF020FA444B454A0093454940F2CF23A8
:102CA000206820F01EF943492B46434A206820F053
:102CB00018F9284602F04CFB4049206820F011F931
:102CC00000BEFDE7A378012B2ED100233C490093E1
:102CD0003C4A09682D4802F041FC054620B32F4CC0
:102CE0002F49206820F0FDF82E49206820F0F9F8DF
:102CF0001FF0EFF91FF0EEF92B4B2C4A00932C49F3
:102D00004FF43673206820F0ECF82A492B462A4A03
:102D1000206820F0E6F8284602F01AFB27492068D0
:102D200020F0DFF800BEFDE7274B1B784BB92DF0F4
:102D30004AFA0121054608462CF086FA28462DF06D
:102D40003DFA0420607007F003FE07F05DFD2CF0F3
:102D5000B1FE1E4B186003B0BDE830401FF0DFB875
:102D6000B80D00206C0E0020A5260020B40D002018
:102D7000C40D0020A92600206F2F0020B0260020BF
:102D8000AF260020AD260020B1260020FC0D00203B
:102D9000340E0020722F0020FB130300140F0020BC
:102DA000D518030038080300E412030040110300A3
:102DB000D8080300E7080300E4080300FC08030048
:102DC000A82A0020A5290000B2260020C00D00205E
:102DD0002DE9F04117461E46174C184DDDF81880B6
:102DE00007F02EFD2946206820F07BF81FF071F9CE
:102DF0001FF070F93A461249206820F072F829460F
:102E0000206820F06EF81FF064F91FF063F9324675
:102E10000C49206820F065F82946206820F061F808
:102E20001FF057F91FF056F9424620680649BDE8E1
:102E3000F04120F056B800BF140F00205F0B0300D4
:102E4000640B0300700B03007B0B03002DE9F043C0
:102E50002DED028B794C83B00646FFF73BFD63787E
:102E6000052B28D00025052375486370E57002F016
:102E700057FB744B1E70744B1D70744B1D70744B5C
:102E80001D70744B1D70744B1D70744B1D70EEB132
:102E9000734801222321734B007813F051F8002866
:102EA00000F08A80FFF726FD03B0BDEC028BBDE881
:102EB000F0431FF034B81EB1634B1B78002BE7D0F2
:102EC000DFF8888198F80030002B7BD12CF0F2FDE0
:102ED000654B664D1B68C01A07EE900A644BB8EE4E
:102EE000678A1B68286063642CF0FEFD07EE100AF9
:102EF000B8EE477AC8EE077A5E4BFCEEE77A93EDC0
:102F0000008AC4ED147AB8EE488AF2EE007AD5ED64
:102F1000008A28EE278A2CF0E7FD07EE900AF8EEEB
:102F2000688AF8EE677A88EEA77AC8EE077A0023F7
:102F3000FCEEE77A464A4A481370474A2721137045
:102F400000784D4B0422C4ED0F7A13F011F80346BC
:102F50000028A7D101213D4A117000904FF4FA7169
:102F6000464A374802F0FAFA054600289AD0444CFF
:102F7000444920681FF0B5FF434920681FF0B1FFA6
:102F80001FF0A7F81FF0A6F8404B414A00934149B3
:102F90004FF41E7320681FF0A4FF3F492B463F4AA1
:102FA00020681FF09EFF284602F0D2F93C492068B5
:102FB0001FF097FF00BEFDE70122234B1A70234B41
:102FC00018706FE7224F244E3B781BB93378002BE3
:102FD0003FF468AF334B93F80090B9F1000F09D17B
:102FE0002DF0F1F80546494601202CF02DF9284630
:102FF0002DF0E4F8FFF7EAFD0023134A88F80030CB
:103000001370144A3B701370012233704FF47A71BD
:1030100000922548254A02F0A1FA254B1B7823B1DE
:10302000616CE06B07F00CFC3CE7236D0093616C76
:10303000E06BD4E91232FFF7CBFE33E76C0E0020D1
:10304000C40D0020B1280020AE260020AF260020AD
:10305000AD260020B1260020B0260020B228002096
:10306000722F0020FA130300C00D0020BC0D0020B9
:10307000B40D0020B80D0020A80E0020B1290000DA
:10308000140F0020D5180300380803004A1303006A
:1030900040110300D8080300E7080300E408030018
:1030A000FC080300B2260020340E0020093900007D
:1030B000A8260020624B2DE9F3411F78002F40F035
:1030C000BB80604C6378042B40F0AD80E3789A07B6
:1030D00026D55D4E3378002B3ED0DFF8908198F8EE
:1030E0000030002B33D0594D594B2A681B88594862
:1030F0001344594A2B6013680133136002F010FA2D
:10310000A3783770022B88F8007019D1534B2A68C6
:103110001B689A4214D30120FFF798FE1EF0FFFEB1
:10312000E378DB0740F188804D4B1A78002A58D0AD
:103130000120FFF78BFE02B0BDE8F0411EF0EFBEAC
:10314000484B1A78002AE9D000221A70E3E7464B70
:103150001B78002BE2D0DEE7414B1D78002DDAD141
:10316000FFF7FCFB414B3B481D7002F0D9F9384A90
:103170003F481B213F4B1288007812F0F9FE0123D3
:103180004FF4FA7133703C4A2B460095314802F0F7
:10319000E5F905460028C1D0384C394920681FF0B0
:1031A000A0FE384920681FF09CFE1EF092FF1EF022
:1031B00091FF354B354A0093354940F2433320683F
:1031C0001FF08FFE33492B46334A20681FF089FEDB
:1031D000284602F0BDF8314920681FF082FE00BE8B
:1031E000FDE7204B197809B11A70A1E72C4D204852
:1031F0001F212C4B2A88007812F0A2FE00289AD1B9
:10320000124B2D881A681544134A1D601368013348
:103210001360FFF77FFBA378022B8CD10F4B1B6849
:103220009D4288D384E7052B06D11F4B187802B046
:10323000BDE8F041FFF70ABE02B0BDE8F08100BF73
:10324000A82600206C0E0020AF260020B80D00201C
:1032500056240020C40D0020B40D0020AC2A00200C
:10326000B2280020B1260020B0260020AD26002084
:10327000722F0020B3260020B1290000140F002077
:10328000D5180300380803006C1303004011030035
:10329000D8080300E7080300E4080300FC08030063
:1032A00054240020B2270020B1280020F0B5AA4DF8
:1032B00085B0AA4CFFF70EFBA94F287816F0E4FB67
:1032C000207816F0E1FB97F905106FF0630001EB31
:1032D00081010DF10E0303AA490016F03DFD0646DB
:1032E00020B3A04CA04920681FF0FBFD9F49206837
:1032F0001FF0F7FD1EF0EDFE1EF0ECFE9C4B9D4A0C
:1033000000939D4940F2251320681FF0EAFD9B4978
:1033100033469B4A20681FF0E4FD304602F018F85F
:10332000984920681FF0DDFD00BEFDE70A23BDF9C6
:103330000E0090FBF3F040B238711EF0F2FD3946FA
:1033400031F8080F12F098FD064620B3854C8649E7
:1033500020681FF0C6FD854920681FF0C2FD1EF0E1
:10336000B8FE1EF0B7FE824B824A0093824940F2BB
:103370002B1320681FF0B5FD80493346804A206832
:103380001FF0AFFD304601F0E3FF7E4920681FF0DB
:10339000A8FD00BEFDE7287816F086FB207816F021
:1033A00083FB284616F00EFB064620B36D4C6E4993
:1033B00020681FF096FD6D4920681FF092FD1EF0F9
:1033C00088FE1EF087FE6A4B6A4A00936A494FF4F2
:1033D0009B7320681FF085FD68493346684A206862
:1033E0001FF07FFD304601F0B3FF664920681FF0F3
:1033F00078FD00BEFDE70221287816F065FB064641
:1034000020B3584C584920681FF06BFD574920687D
:103410001FF067FD1EF05DFE1EF05CFE544B554A2A
:103420000093554940F23B1320681FF05AFD534961
:103430003346534A20681FF054FD304601F088FFA0
:10344000504920681FF04DFD00BEFDE7C8220090E6
:1034500003461146287816F0CFFA064620B3414CB1
:10346000414920681FF03DFD404920681FF039FDAB
:103470001EF02FFE1EF02EFE3D4B3E4A00933E49AD
:103480004FF4A17320681FF02CFD3C4933463C4AA1
:1034900020681FF026FD304601F05AFF39492068A8
:1034A0001FF01FFD00BEFDE70721287816F0C4FAC3
:1034B000064620B32B4C2C4920681FF012FD2B49E7
:1034C00020681FF00EFD1EF004FE1EF003FE284BC8
:1034D000284A0093284940F2451320681FF001FD57
:1034E00026493346264A20681FF0FBFC304601F08F
:1034F0002FFF244920681FF0F4FC00BEFDE7287868
:10350000022116F0F5FA054600283DD0154C164963
:1035100020681FF0E6FC154920681FF0E2FC1EF051
:10352000D8FD1EF0D7FD124B124A0093124940F20B
:10353000491320681FF0D5FC10492B46104A20681B
:103540001FF0CFFC284601F003FF0E4920681FF052
:10355000C8FC00BEFDE700BF712F0020702F0020C7
:103560006C0E0020140F0020D5180300380803004B
:103570009213030040110300D8080300E70803007A
:10358000E4080300FC080300204616F01BFA054679
:1035900020B3974C974920681FF0A3FC96492068F8
:1035A0001FF09FFC1EF095FD1EF094FD934B944A76
:1035B0000093944940F24F1320681FF092FC924907
:1035C0002B46924A20681FF08CFC284601F0C0FE72
:1035D0008F4920681FF085FC00BEFDE7014620787A
:1035E00016F03EFA054620B3814C824920681FF050
:1035F00078FC814920681FF074FC1EF06AFD1EF003
:1036000069FD7E4B7E4A00937E4940F25313206849
:103610001FF067FC7C492B467C4A20681FF061FC48
:10362000284601F095FE7A4920681FF05AFC00BE3A
:10363000FDE70221207816F083FA054620B36C4C92
:103640006C4920681FF04DFC6B4920681FF049FC55
:103650001EF03FFD1EF03EFD684B694A009369492C
:103660004FF4AC7320681FF03CFC67492B46674A57
:1036700020681FF036FC284601F06AFE6449206885
:103680001FF02FFC00BEFDE70023A022009311468F
:10369000207816F0B1F9054620B3554C55492068FD
:1036A0001FF01FFC544920681FF01BFC1EF011FD89
:1036B0001EF010FD514B524A0093524940F25F13E5
:1036C00020681FF00EFC50492B46504A20681FF01E
:1036D00008FC284601F03CFE4D4920681FF001FC23
:1036E00000BEFDE70721207816F0A6F9054620B3B5
:1036F0003F4C404920681FF0F4FB3F4920681FF011
:10370000F0FB1EF0E6FC1EF0E5FC3C4B3C4A00934F
:103710003C4940F2631320681FF0E3FB3A492B4613
:103720003A4A20681FF0DDFB284601F011FE3849B7
:1037300020681FF0D6FB00BEFDE70422207811466A
:1037400016F0EAF9054618B321284DD0284C29492E
:1037500020681FF0C6FB284920681FF0C2FB1EF03E
:10376000B8FC1EF0B7FC254B254A009325494FF4C1
:10377000B57320681FF0B5FB264A274920681FF063
:10378000B0FB2A46254920681FF0ABFB00BEFDE7D1
:1037900002220421207816F0E7F9054620B3144CE4
:1037A000144920681FF09DFB134920681FF099FB06
:1037B0001EF08FFC1EF08EFC104B114A0093114935
:1037C0004FF4B97320681FF08CFB0F492B460F4A4A
:1037D00020681FF086FB284601F0BAFD0C492068DE
:1037E0001FF07FFB00BEFDE7FFF784F805B0F0BDDA
:1037F000140F0020D51803003808030092130300AB
:1038000040110300D8080300E7080300E4080300A0
:10381000FC080300CE1103000A1203002212030069
:1038200070B5FF2492B01EF0EEFB2246002119482D
:1038300020F02BFF22460021174820F026FF4FF4EE
:103840008073164C002523800A236371F723012619
:103850002381134BC4E911551D70A5702574A67101
:10386000E56065826561E563E564FFF71FFD0D4B6B
:1038700004F11001442268461E7020F02DFF94E8E8
:103880000F001EF084FB084B1D7012B0BDE87040A5
:103890001EF045BBB2270020B32600206C0E00208E
:1038A000AC260020B3280020A826002070B50646CC
:1038B0000C461546FFF70EF80E4B1B78BBB10E4AAF
:1038C0005378042B13D056710C4A012B15700C4AF7
:1038D000147008D00B4B187816F0ECF90446FFF77B
:1038E00009F8204670BDFFF7E1FC0024F7E7022449
:1038F000F5E700BFB32800206C0E0020B2260020A0
:10390000AC260020722F002037B5FEF7E3FF7F239F
:103910008DF80730124B187870B1124D6B78042B6C
:103920000AD00DF1070116F095F9044640B99DF94A
:10393000070028741EF0FCFAFEF7DCFF03B030BD70
:10394000094D0A4928681FF0CCFA1EF0C2FB1EF090
:10395000C1FB2246064928681FF0C3FAECE700BF06
:10396000722F00206C0E0020140F0020930A030019
:103970005D120300F8B507460E461546FEF7AAFF8E
:10398000144B1B781BB3144C6378042B1FD0134BC0
:1039900027811E70124B1D70FFF710F8A38A228931
:1039A000618AE0681EF0D2FA6378012B09D12146C2
:1039B00031F8080F12F060FA0446FEF79BFF20462C
:1039C000F8BD084B0024187816F074F9F5E70224C6
:1039D000F3E700BFB32800206C0E0020AA260020C9
:1039E000AB260020722F002038B50546FEF772FF87
:1039F000224B1B78002B39D0214C6378032B35D117
:103A0000E37D9B072BD5A37DD80707D545B10123BF
:103A1000022DE3702ED10223E37001E0022DFAD0D3
:103A2000E3782BB3DA0748BF164A618A48BF128889
:103A3000E06848BFA2829B0748BF134B228944BF5E
:103A40001B88A382A38A1EF081FA0120FFF7DCF80D
:103A50000024FEF74FFF1EF062FA204638BD012D0C
:103A6000DED1A37DD907DBD50123D5E70224F0E71A
:103A70002624EEE7012DD3D1F6E700BFB3280020BE
:103A80006C0E00205424002056240020F7B5AC4EC4
:103A900004463578002D00F05187FEF71BFF2368A0
:103AA000A84A23F47F4323F00703934200F0B48431
:103AB0003CD802F17D4202F57F02934200F09486E9
:103AC00013D802F17F42934200F0038102F57D0298
:103AD000934200F0A68302F17F42934200F0B58347
:103AE00003B0BDE8F040FEF705BF974A934200F0EF
:103AF0007C8102F540329342F2D1267A102EEFD12A
:103B000004F1090532462946904820F094FD00282A
:103B100040F04486A279637943EA02238C4A1380F9
:103B20008C4A137843F002031370D9E78A4A934210
:103B300000F06C8644D802F17E4202F57D02934289
:103B400000F0BC8002F54032934200F09D8402F107
:103B50007D4202F57D029342C2D1804E62793346A6
:103B6000002103F8062F2C20012212F0BDF9054692
:103B7000002800F026837A4C7A4920681FF0B1F9BA
:103B8000794920681FF0ADF91EF0A3FA1EF0A2FAE1
:103B9000764B774A0093774940F2BE4320681FF086
:103BA000A0F975492B46754A20681FF09AF92846F6
:103BB00001F0CEFB724920681FF093F900BEFDE7CB
:103BC000704A93423AD002F1FE72934288D1A279B0
:103BD0006379624D43EA02236B82FEF7EFFE012117
:103BE0003C2005F1120212F0DBF90646002800F035
:103BF000E1825B4C5B4920681FF073F95A492068E9
:103C00001FF06FF91EF065FA1EF064FA574B584A20
:103C1000009358494FF4966320681FF062F95649A3
:103C20003346564A20681FF05CF9304601F090FB9D
:103C3000534920681FF055F900BEFDE7B4F8053080
:103C4000232B7FF44DAF454B207B5A7888B3032A52
:103C500007D000254C4B2A462321187812F05AF938
:103C60003EE70022DA709A7DD97DBAB102F00102F6
:103C7000B9B162B1C4070AD50122DA70DB789A07BC
:103C800012D5FEF76BFE0020FEF7BEFFE2E78907C4
:103C9000F4D510F0020FF1D00222EEE711F0020F7E
:103CA000F9E7002AE8D1E9E7DB07D2D5FEF732FED3
:103CB000E9E7042ACDD1FFF7C9F8CBE7274B5A78BB
:103CC000042A3FF40DAF94F9060018711EF029F98B
:103CD00006E7A2796379214D43EA02232B81FEF79F
:103CE0006DFE01220021402005F1080312F0FCF8CE
:103CF000064600284AD01A4C1A4920681FF0F1F8ED
:103D0000194920681FF0EDF81EF0E3F91EF0E2F902
:103D1000164B174A0093174940F25F4320681FF083
:103D2000E0F815493346154A20681FF0DAF83046A6
:103D300001F00EFB124920681FF0D3F800BEFDE72A
:103D4000B3280020A0000A03A0000602CA13030043
:103D5000742C0020A7260020A00009076C0E00206C
:103D6000140F0020D518030038080300281303009F
:103D700040110300D8080300E7080300E40803002B
:103D8000FC080300A0000A07722F00200121402038
:103D900005F1080212F004F90646002800F00A8234
:103DA000A04CA14920681FF09CF8A04920681FF092
:103DB00098F81EF08EF91EF08DF99D4B9D4A0093E8
:103DC0009D4940F2644320681FF08BF89B493346BD
:103DD0009B4A20681FF085F8304601F0B9FA9949EE
:103DE00020681FF07EF800BEFDE7B4F80530964D60
:103DF0002079EB60B4F8073005F108016B62B4F884
:103E00000930AB6212F054F8044620B3854D864960
:103E100028681FF066F8854928681FF062F81EF0D0
:103E200058F91EF057F9824B824A0093824940F2BA
:103E3000754328681FF055F880492346804A286852
:103E40001FF04FF8204601F083FA7E4928681FF0E2
:103E500048F800BEFDE7FEF7B1FD214601223C20F7
:103E600005F1120312F040F8044620B36D4D6E497F
:103E700028681FF036F86D4928681FF032F81EF0E8
:103E800028F91EF027F96A4B6A4A00936A4940F202
:103E90007D4328681FF025F868492346684A28684A
:103EA0001FF01FF8204601F053FA664928681FF0FA
:103EB00018F800BEFDE701460122402005F1080385
:103EC00012F012F8044620B3564D574928681FF0E7
:103ED00008F8564928681FF004F81EF0FAF81EF09A
:103EE000F9F8534B534A0093534940F282432868F0
:103EF0001EF0F7FF51492346514A28681EF0F1FF92
:103F0000204601F025FA4F4928681EF0EAFF00BE5E
:103F1000FDE701460422302005F10C0311F0E4FF17
:103F2000064620B33F4C404920681EF0DAFF3F4967
:103F300020681EF0D6FF1EF0CCF81EF0CBF83C4BEC
:103F40003C4A00933C4940F2874320681EF0C9FF79
:103F50003A4933463A4A20681EF0C3FF304601F022
:103F6000F7F9384920681EF0BCFF00BEFDE70422C7
:103F700000213420354B11F0B7FF044620B3294D02
:103F8000294928681EF0ADFF284928681EF0A9FFBE
:103F90001EF09FF81EF09EF8254B264A00932649F6
:103FA00040F28C4328681EF09CFF24492346244A93
:103FB00028681EF096FF204601F0CAF921492868BA
:103FC0001EF08FFF00BEFDE7014604223820204B83
:103FD00011F08AFF064600283CD0124C1249206896
:103FE0001EF07FFF114920681EF07BFF1EF071F864
:103FF0001EF070F80E4B0F4A00930F4940F29143A8
:1040000020681EF06EFF0D4933460D4A20681EF0F1
:1040100068FF304601F09CF90A4920681EF061FFF4
:1040200000BEFDE7140F0020D51803003808030078
:104030002813030040110300D8080300E708030019
:10404000E4080300FC0803006C0E0020900E002022
:10405000940E002001214020964A11F0A1FF06464F
:1040600020B3954C954920681EF03BFF9449206889
:104070001EF037FF1EF02DF81EF02CF8914B924ADF
:104080000093924940F2964320681EF02AFF90491F
:104090003346904A20681EF024FF304601F058F95C
:1040A0008D4920681EF01DFF00BEFDE70421302071
:1040B0008A4A11F075FF064620B37F4C7F4920687D
:1040C0001EF00FFF7E4920681EF00BFF1EF001F866
:1040D0001EF000F87B4B7C4A00937C4940F29A43E7
:1040E00020681EF0FEFE7A4933467A4A20681EF0A8
:1040F000F8FE304601F02CF9774920681EF0F1FEF9
:1041000000BEFDE704213420754A11F049FF064640
:1041100020B3694C694920681EF0E3FE68492068B5
:104120001EF0DFFE1DF0D5FF1DF0D4FF654B664A83
:104130000093664940F29E4320681EF0D2FE644917
:104140003346644A20681EF0CCFE304601F000F988
:10415000614920681EF0C5FE00BEFDE7042138203D
:10416000604A11F01DFF064620B3534C53492068A6
:104170001EF0B7FE524920681EF0B3FE1DF0A9FFE5
:104180001DF0A8FF4F4B504A0093504940F2A24304
:1041900020681EF0A6FE4E4933464E4A20681EF0A7
:1041A000A0FE304601F0D4F84B4920681EF099FE7D
:1041B00000BEFDE7AB8A2A89698AE8681DF0C6FE61
:1041C0008EE401212C20B21D11F0EAFE054620B339
:1041D000394C3A4920681EF084FE394920681EF0A7
:1041E00080FE1DF076FF1DF075FF364B364A0093BA
:1041F000364940F2C34320681EF073FE34492B4613
:10420000344A20681EF06DFE284601F0A1F83249BC
:1042100020681EF066FE00BEFDE7B0791DF08FFE3F
:104220005EE4314C6378062B08D100253570FEF72B
:104230000BFC6570607806F08BFB51E40123637022
:10424000FEF702FCFFF732F8F4E7274F7B78012BEB
:104250007FF446AC237B254E3370254B187815F040
:1042600013FC0546002845D0134C144920681EF065
:1042700038FE134920681EF034FE1DF02AFF1DF0A1
:1042800029FF104B104A0093104940F2DE4320688A
:104290001EF027FE0E492B460E4A20681EF021FE16
:1042A000284601F055F80C4920681EF01AFE00BEA1
:1042B000FDE700BF740E0020140F0020D518030086
:1042C000380803002813030040110300D808030036
:1042D000E7080300E4080300FC080300780E002050
:1042E000900E0020940E00206C0E0020722F0020F3
:1042F000712F00209C4B187815F0C6FB044620B3A4
:104300009A4D9B4928681EF0ECFD9A4928681EF0DA
:10431000E8FD1DF0DEFE1DF0DDFE974B974A009391
:10432000974940F2E24328681EF0DBFD9549234699
:10433000954A28681EF0D5FD204601F009F89349FA
:1043400028681EF0CEFD00BEFDE702237B70FEF75D
:104350003DFC01234FF47A718D4A00938D4823462A
:1043600001F0FCF88C4B3078197815F08FFC05467D
:1043700020B37E4C7E4920681EF0B3FD7D49206845
:104380001EF0AFFD1DF0A5FE1DF0A4FE7A4B7B4A8A
:1043900000937B494FF49E6320681EF0A2FD79498B
:1043A0002B46794A20681EF09CFD284600F0D0FF7D
:1043B000764920681EF095FD00BEFDE71021774A82
:1043C000307811F0C1FB054600283FF489AB674CFB
:1043D000674920681EF085FD664920681EF081FD52
:1043E0001DF077FE1DF076FE634B644A009364492E
:1043F00040F2F64320681EF074FD62492B46624A83
:1044000020681EF06EFD284600F0A2FF5F4920687C
:104410001EF067FD00BEFDE7B4F80520E379272A0A
:104420000BD1022B15D0012B7FF45AAB22895C4BA8
:104430001A70FEF7CBFBFFF753BB1B2A07D0012BEB
:104440007FF44EAB232A13D12289564BF0E7022B7F
:1044500004D1554B01221A70FFF742BB012B7FF4A8
:104460003FAB2089514B00F00200D8751DF088FD4C
:10447000B4F805301F2BDCD120894C4B00F0010033
:1044800098751DF076FDD4E7494DB4F805402B78BA
:10449000013B042B3FF624AB01A252F823F000BFEE
:1044A000B5440000C5450000E13A00007F46000029
:1044B000E146000000232B7024B32C4D2C492868C2
:1044C0001EF00FFD2B4928681EF00BFD1DF001FEAC
:1044D0001DF000FE374B294A0093294940F257331B
:1044E00028681EF0FEFC27492346334A28681EF040
:1044F000F8FC204600F02CFF244928681EF0F1FC4F
:1045000000BEFDE72D4B19682D4B187811F030FBDC
:10451000064620B3154C164920681EF0E2FC1549EA
:1045200020681EF0DEFC1DF0D4FD1DF0D3FD214BF4
:10453000124A0093124940F25B3320681EF0D1FC0E
:1045400010493346104A20681EF0CBFC304600F07C
:10455000FFFE0E4920681EF0C4FC00BEFDE70223EA
:104560002B70FFF7BDBA00BF702F0020140F002082
:10457000D518030038080300281303004011030076
:10458000D8080300E7080300E4080300FC08030060
:1045900009390000340E0020AC260020EA13030085
:1045A000B5280020B4280020AD2600206C0E002085
:1045B000A626002007130300DD0D0300A42A002017
:1045C000722F002000232B7024B3A84DA84928681F
:1045D0001EF087FCA74928681EF083FC1DF079FDBA
:1045E0001DF078FDA44BA54A0093A54940F2613324
:1045F00028681EF076FCA3492346A34A28681EF0CB
:1046000070FC204600F0A4FEA04928681EF069FC5A
:1046100000BEFDE79E4B1B78072B7FF461AA9D4BE4
:10462000012219889C4B187811F0B6FA064620B37F
:104630008E4C8F4920681EF054FC8E4920681EF075
:1046400050FC1DF046FD1DF045FD8B4B8B4A009341
:104650008B4940F2653320681EF043FC894933469C
:104660008E4A20681EF03DFC304600F071FE8749FE
:1046700020681EF036FC00BEFDE7042370E700232F
:104680002B7024B3794D7A4928681EF02AFC7949A9
:1046900028681EF026FC1DF01CFD1DF01BFD764B4E
:1046A000764A009376494FF45B7328681EF019FC34
:1046B00074492346744A28681EF013FC204600F013
:1046C00047FE724928681EF00CFC00BEFDE7744BE3
:1046D00002221988704B187811F05EFA05233FE723
:1046E00024B3624D624928681EF0FBFB61492868CB
:1046F0001EF0F7FB1DF0EDFC1DF0ECFC5E4B5F4A7D
:1047000000935F494FF45D7328681EF0EAFB5D4932
:1047100023465D4A28681EF0E4FB204600F018FEA0
:104720005A4928681EF0DDFB00BEFDE75D4B012203
:104730001988594B187811F02FFA064620B34B4CC4
:104740004B4920681EF0CDFB4A4920681EF0C9FB8A
:104750001DF0BFFC1DF0BEFC474B484A0093484982
:1047600040F2773320681EF0BCFB464933464B4A83
:1047700020681EF0B6FB304600F0EAFD4349206891
:104780001EF0AFFB00BEFDE700F006FD204600F086
:1047900009FD00F0F1FA2C70FFF7A2B93246294664
:1047A00041481FF048FF58B9A279637943EA0223D0
:1047B0003B4A1380364A137843F00103FFF7B4B93C
:1047C0001022294639481FF036FF00287FF488A9B7
:1047D000A279637943EA0223324A13802C4A137880
:1047E00043F00403FFF7A0B9627A102A7FF478A996
:1047F0002F4804F10A011FF01EFF00287FF470A962
:104800002C4BD4F805201A602B4B23E6254AB4F82C
:10481000053012889A420DD1247B284D34B10123F2
:1048200000202B70FEF7F0F9FFF75AB92046FEF78B
:104830000DFBB0E71A4A12889A4247D0154A1288EF
:104840009A427FF44DA9628912F0FF0145D11C49BB
:104850008B6C01338B641B490B6813441A4A0B6041
:10486000136801331360FFF73BB900BF140F00203A
:10487000D518030038080300071303004011030094
:10488000D8080300E7080300DD0D0300FC0803005F
:10489000A7260020742C0020722F0020E4080300BB
:1048A000722C0020702C0020DA130300BA130300CE
:1048B000EA130300A42A0020A6260020A826002030
:1048C0006C0E0020B80D0020B40D0020E3791D2BE4
:1048D000B9D1207911F076F9B5E7194B257B1E780F
:1048E000184816B3002605701E7003789D420BD041
:1048F000154F98BFC3F16403FE6C8CBFEB1A5B19B4
:10490000DBB21E44FE64057001201A250C34884277
:10491000A1DA431EB3FBF5F705FB173314F8016F5B
:1049200061339E4293D10130F1E76426037801336D
:10493000B3FBF6F706FB17330370D6E703B0F0BD01
:104940006F2F0020A92600206C0E00200E4B10B502
:104950001B780E4C2BB91DF0BCFB1DF0BBFB0C49AA
:104960000CE00C4B5B78042BF5D1FEF7B3F8002874
:10497000F1D11DF0AEFB1DF0ADFB07492068BDE88D
:1049800010401EF0AEBA00BFB3280020140F002064
:10499000EE0D03006C0E0020F50D0300104B10B55A
:1049A0001B78104C2BB91DF094FB1DF093FB0E49A6
:1049B00011E00E4B5B78032BF5D1D0E9023253F8AE
:1049C00022301878FFF710F80028ECD11DF081FB99
:1049D0001DF080FB06492068BDE810401EF081BA3A
:1049E000B3280020140F0020EE0D03006C0E0020F1
:1049F000F50D030038B52E4B2E4C1B784BB91DF02E
:104A000068FB1DF067FB2C492068BDE838401EF0AC
:104A100068BA2A4D6B78013B032B3DD8DFE803F0E1
:104A20002A0230361DF055FB1DF054FB2449206846
:104A30001EF057FA1DF04DFB1DF04CFB214920687C
:104A40001EF04FFA2B786BBB1DF043FB1DF042FBB1
:104A50001D4920681EF045FA1DF03BFB1DF03AFB96
:104A6000184920681EF03DFA1DF033FB1DF032FBA3
:104A70001649C9E71DF02DFB1DF02CFB1449D6E7A4
:104A80001DF027FB1DF026FB1249D0E71DF021FB8E
:104A90001DF020FB1049CAE71DF01BFB1DF01AFB9F
:104AA0000E49C4E71DF015FB1DF014FB0C49D0E7BF
:104AB000B3280020140F0020EE0D03006C0E002020
:104AC000F90D0300D51803003B0E0300F50D03009C
:104AD000070E0300140E0300230E03002F0E030025
:104AE0004C0E0300124B10B51B78124C2BB91DF065
:104AF000F0FA1DF0EFFA104915E0104B5B78042B2B
:104B0000F5D0D0E9023203EB8201496853F8223034
:104B100009881878FDF7BAFF0028E8D11DF0D9FA06
:104B20001DF0D8FA06492068BDE810401EF0D9B93A
:104B3000B3280020140F0020EE0D03006C0E00209F
:104B4000F50D0300144B13B51B78144C53B91DF02D
:104B5000C0FA1DF0BFFA1249206802B0BDE810404B
:104B60001EF0BFB91DF0B5FA1DF0B4FA0D4920686A
:104B70001EF0B7F91DF0ADFA1DF0ACFA0A4B0B4A66
:104B80001B680B4900930B4B92781B6820681EF042
:104B9000A8F902B010BD00BFB3280020140F0020F8
:104BA000EE0D03007F120300A82A00206C0E0020E7
:104BB000690E0300AC2A0020174B10B51B78174C68
:104BC0002BB91DF086FA1DF085FA15491EE0154B2C
:104BD0005B78042BF5D0D0E9023003EB80018A68C2
:104BE000496812780978003A53F8203018BF01223A
:104BF000003918BF012193F90000FEF757FE002885
:104C0000DFD11DF066FA1DF065FA07492068BDE89E
:104C100010401EF066B900BFB3280020140F00201A
:104C2000EE0D03006C0E0020F50D0300144B13B5C0
:104C30001B78144C53B91DF04CFA1DF04BFA124975
:104C4000206802B0BDE810401EF04BB91DF041FADB
:104C50001DF040FA0D4920681EF043F91DF039FAA5
:104C60001DF038FA0A4B0B4A1B780B4900930B4B8B
:104C700092F904201B7820681EF033F902B010BDB1
:104C8000B3280020140F0020EE0D0300A312030030
:104C9000B22600206C0E0020880E0300AC260020F7
:104CA000134B10B51B78134C2BB91DF012FA1DF0E5
:104CB00011FA114917E0114B5B78042BF5D0D0E9BC
:104CC000023203EB820153F82230D1E9011002785D
:104CD00009781878FEF74EFE0028E6D11DF0F9F9A4
:104CE0001DF0F8F906492068BDE810401EF0F9B83B
:104CF000B3280020140F0020EE0D03006C0E0020DE
:104D0000F50D0300144B13B51B78144C53B91DF06B
:104D1000E0F91DF0DFF91249206802B0BDE810404B
:104D20001EF0DFB81DF0D5F91DF0D4F90D4920684B
:104D30001EF0D7F81DF0CDF91DF0CCF90A4B0B4A47
:104D40001B880B4900930B4B12891B8820681EF0AF
:104D5000C8F802B010BD00BFB3280020140F002017
:104D6000EE0D0300C0120300542400206C0E00203E
:104D7000880E0300562400202DE9F0411226B54C80
:104D8000B54D1DF0A6F9013E1DF0A4F92946206895
:104D90001EF0A7F816F0FF06F3D11DF09AF91DF0EA
:104DA00099F9AE4920681EF09CF8AD4FAD4DDFF883
:104DB000AC821DF08EF91DF08DF9394620681EF089
:104DC00090F8F3B2013B0B2B0DD8DFE813F058003D
:104DD0008A009A00DC00A500B700C600CD001C01C7
:104DE00033018D0197012B78002B3AD11DF071F919
:104DF0001DF070F99C4920681EF073F81DF069F9E8
:104E00001DF068F9994920681EF06BF81DF061F9F2
:104E10001DF060F9394620681EF063F801361DF078
:104E200058F91DF057F9414620681EF05AF80D2E2A
:104E3000BFD11225884E1DF04CF9013D1DF04AF9F5
:104E4000314620681EF04DF815F0FF05F3D11DF036
:104E500040F91DF03FF920688049BDE8F0411EF09F
:104E600040B81DF036F91DF035F9814920681EF073
:104E700038F81DF02EF91DF02DF97E49C3E76B7847
:104E8000032B09D0042B15D0022B21D11DF021F9C1
:104E90001DF020F97849E9E71DF01BF91DF01AF91A
:104EA000764920681EF01DF81DF013F91DF012F967
:104EB0007349A8E71DF00DF91DF00CF97149206840
:104EC0001EF00FF81DF005F91DF004F96E499AE780
:104ED0001DF0FFF81DF0FEF86C4920681EF001F887
:104EE00009E01DF0F6F81DF0F5F895F90420684981
:104EF00020681DF0F6FF1DF0ECF81DF0EBF8654999
:104F000081E71DF0E6F81DF0E5F895F910206249FB
:104F100020681DF0E6FFC7E71DF0DBF81DF0DAF8AA
:104F2000D5ED037AB7EE047AF8EE677A67EE877A02
:104F3000FDEEE77A594917EE902AE9E71DF0C9F826
:104F40001DF0C8F86A8A564920681DF0CAFF1DF096
:104F5000C0F81DF0BFF8534955E71DF0BAF81DF031
:104F6000B9F82A895049EFE71DF0B3F81DF0B2F8FF
:104F70004E49AA8A20681DF0B4FF1DF0AAF81DF062
:104F8000A9F84B493FE7AB79013B072B2DD8DFE868
:104F900003F004122C182C2C2C261DF09AF81DF06E
:104FA00099F8444920681DF09CFF1DF092F81DF00F
:104FB00091F8414927E71DF08CF81DF08BF83F4927
:104FC000F0E71DF086F81DF085F83D4920681DF0DA
:104FD00088FF1DF07EF81DF07DF83A4913E71DF0BB
:104FE00078F81DF077F83849F0E71DF072F81DF0F9
:104FF00071F8364920681DF074FF1DF06AF81DF045
:1050000069F83349FFE6AB7D012B05D11DF061F84E
:105010001DF060F82F4952E71DF05BF81DF05AF8BB
:105020002D4920681DF05DFF1DF053F81DF052F86A
:105030002A49E8E6EB7D022B05D11DF04AF81DF068
:1050400049F8274912E71DF044F81DF043F82549B7
:1050500043E700BF140F0020FC130300D518030022
:10506000FE130300C00E00203B0E0300EC310300D2
:105070004C0E030085140300F90D0300140E030009
:1050800086140300230E030083140300070E03009D
:1050900000140300841403000D1403001C14030007
:1050A0002B14030080140300341403003D14030088
:1050B00081140300471403007F1403004F140300FE
:1050C00057140300871403006714030077140300C8
:1050D0007E14030089140300951403008214030056
:1050E000A0140300AE1403001CF0F3FF1CF0F2FF49
:1050F000EA6B064920681DF0F4FE6AE71CF0E9FF40
:105100001CF0E8FF6A6C024902E700BFBB14030011
:10511000C8140300014B5870704700BFC00E002038
:10512000014B1870704700BFC00E0020014B187172
:10513000704700BFC00E0020014B1874704700BFBD
:10514000C00E0020014BD860704700BFC00E002089
:10515000014B5882704700BFC00E0020014B1881E0
:10516000704700BFC00E0020014B9882704700BFFF
:10517000C00E0020014B9871704700BFC00E002088
:10518000014B9875704700BFC00E0020014BD875C9
:10519000704700BFC00E0020014BD863704700BFAE
:1051A000C00E0020014B5864704700BFC00E0020A5
:1051B00008B503482BF03BF8BDE808401FF068B97C
:1051C0002017030001482BF032B800BF201703005E
:1051D0000348044A0449121A92101CF018BF00BF79
:1051E0004001000080010000002A002008B5154B96
:1051F00083F30A8800F030F8FFF7EAFF124B1349F7
:105200008B4212D30020124B12498B4218D3FBF76A
:1052100003F8186850F82240586840F822400132DC
:1052200098688242F5D30C33EAE70022F8E71C685D
:1052300044F8220001325C68A242F8D30833E4E764
:105240000022F8E70000002064730300707303007D
:1052500070730300707303004FF40041134B144A42
:1052600070B59A60D3F88820124D42F47002C3F8EA
:105270008820114A05F5005491664FF0FF322266EE
:105280004FF6DF7262660222C3F8D020BFF34F8F61
:10529000BFF36F8F4FF44036032003F055F903201E
:1052A000E66003F035F92E6170BD00BF00ED00E04F
:1052B000000000000080004400900050014B186086
:1052C000704700BFB42A0020054B1860054B1B6FC8
:1052D00003F00703032B01D129F068BE704700BF1C
:1052E000BC2A00200080005070B5D0B1C9B10E4E6C
:1052F000431E013913F8014F2046325D02F00302CC
:10530000012A11F8012F08BF04F12000B55C05F057
:105310000305012D08BF2032801A01D1002CE9D1EC
:1053200070BD0120FCE700BF2E2F030008B503F07D
:1053300025F9014B186008BD140F0020024B0349EA
:1053400018681DF0CEBD00BF140F0020D21403005A
:1053500070B50C4C0C49064620681DF0C2FD03F0E8
:105360000DF90546206803F0FDF83046FFF7E6FF2B
:10537000284603F0F7F820680449BDE870401DF0A6
:10538000B0BD00BF140F0020D4140300D6140300D6
:10539000F8B50F460546002843D0002941D00378D0
:1053A0004268980702D01AB9212428E0002AFBD1CC
:1053B000190702D5AA8A002AF6D09A0605D5EB8AE3
:1053C000002BF1D0AB69002BEED02C201EF0DEF8C4
:1053D000064640B32C2200211FF057F92B46321D00
:1053E00005F11C0153F8040B8B4242F8040BF9D170
:1053F0002B785B0705D53E606B686BB900242046AF
:10540000F8BD012130461CF07BFE04460028F2D096
:1054100030461EF0C8F9F2E7314604481CF00BFE96
:10542000ECE72224EBE71924E9E700BF180F00207E
:1054300008B503481CF0F8FDBDE808401FF00AB8A5
:10544000180F00200B4B10B51C680CB901200AE0A6
:105450002AF0B9FE94F8202003462AB1A26A1AB1B4
:105460002AF0ACFE002010BD18462AF0A7FE2468E2
:10547000EBE700BF180F00200B4B10B51C680CB9F0
:1054800001200AE02AF09FFE94F8202003462AB16A
:10549000A26A1AB12AF092FE042010BD18462AF022
:1054A0008DFE2468EBE700BF180F00200C4B10B5F1
:1054B0001C6804B910BD2AF086FE94F8203002461C
:1054C0004BB1A36A3BB1013BA3622AF077FEA3680C
:1054D00098472468EDE710462AF070FEF9E700BF10
:1054E000180F002038B505462AF076FE00230B4A37
:1054F00014685CB1AC4206D1A96A6BB199622AF01A
:1055000066FE012007E02346A46AF2E7002DF3D0EF
:105510002AF05DFE204638BD1160F0E71C0F002028
:1055200010B50446B0B12AF04BFA2046FFF7DAFF77
:1055300010B194F82C300BB9002010BD064C236834
:10554000002BF9D02AF048FE2368013B23602AF0A3
:105550003EFEF1E72220F0E7200F00202DE9F04386
:1055600085B00546914698460E469DF8307009B9BB
:10557000002F5CD12846FFF7D3FF0446002836D120
:1055800085F82C00686303F059FF864233D92AF06E
:10559000ABFA2146844640F2E7304FF47A7200239A
:1055A000E6FB0C0105F024FD4FF0FF32002305F06F
:1055B0001FFD2B46E88611462846CDE900441D4ACA
:1055C0002AF0F5FE044690B9C5E9089885F82D70D3
:1055D0002E632AF001FE184A136833B31A469B6AF9
:1055E000002BFBD195620023AB622AF0F0FD204630
:1055F00005B0BDE8F08347B12B4631462846CDE9DA
:1056000000440C4A2AF0C2FADCE7304603A92AF02B
:1056100071FA04460028EAD12B462846CDE90077E6
:10562000044A03992AF09FFECCE71560DBE72124AA
:10563000DDE700BF3D5600001C0F002091F82C3024
:1056400013B50C4683B98B8ECA8E93420ED243B9E2
:10565000CDE9003320460B46124A4FF0FF312AF0C5
:1056600066FEA38E0133A38602B010BD52B191F83D
:105670002D3093B101230093D1E908232046096B13
:10568000FFF76CFF012384F82C30074B1A680132B6
:105690001EBF1A6801321A60E6E708462AF090F940
:1056A000F0E700BF3D560000200F00202DE9F0413B
:1056B000154E336833B34FF00008144F2AF08CFDB9
:1056C00005463C6824B92846BDE8F0412AF07FBD74
:1056D00094F82C30A3B1336884F82C8013B133686C
:1056E000013B336094F82D3013B92046FFF7FAFEE2
:1056F00028462AF06CFDD4E9083120469847DDE7BA
:10570000A46ADFE7BDE8F081200F00201C0F002015
:10571000034B1B68002B14BF04200120704700BFFF
:10572000200F0020024B1868B0FA80F04009704743
:10573000200F002030B5056887B0AB8804461848B4
:10574000ADF80C302AF073FD0022012103A81CF0F3
:1057500001FE0DF10B0103A81CF04EFE9DF80B306D
:1057600083F001032B70AB79022B15D14FF0FF337F
:105770000022CDE9043304A90A4B009403A800F0E9
:1057800047F9049B009401330CBF04220122054B0E
:1057900005A903A800F0D6F8002007B030BD00BF6F
:1057A000201703006B220200002307B5294801934C
:1057B0002AF03DFD4FF44073012204216846ADF804
:1057C00000301CF0C7FD0122234B0520C3F8442400
:1057D00001A92AF027FD002839D1204BD3F8F02069
:1057E00042F00102C3F8F020D3F8FC2042F08072AE
:1057F000C3F8FC201A4AA3F55D431A60019B194ABD
:1058000003F5D52303F2FC43B3FBF2F3164A013B45
:1058100013610223C2F8F0304FF48073C2F80433EE
:105820004FF06043114AC3F8B02F114AC3F8802EDD
:10583000D3F8002E42F48072C3F8002EFF2283F8C2
:105840002020D3F8002E22F48072C3F8002E03B07B
:105850005DF804FB2017030000D0035000ED00E0CA
:10586000FF030040F8590D00000004E055CEACC520
:10587000090001004FF06043D3F8802E30B5D20705
:1058800015D501240B4D8440D5F8FC2042F08072E0
:10589000C5F8FC20D3F8002E2243C3F8002E53F89D
:1058A0002020002AF0D003F82010002030BD112065
:1058B000FCE700BF00ED00E0F8B504460127124DFB
:1058C0000CB314F001000BD0002024F0010405EB10
:1058D000C0021668002EF3D05168C0B2B047EFE79F
:1058E0002246013020284FEA520201D0D307F8D5D2
:1058F00007FA00F20F2824EA0204E8D9421E05EB59
:10590000C2021038E5E7F8BD240F002008B50C48A6
:105910002AF08DFC192002F009FE28B1192002F0AE
:1059200013FE192002F0F4FD1A2002F0FFFD28B149
:105930001A2002F009FE1A2002F0EAFD002008BD3C
:10594000201703002DE9F0410D4690461F460446FE
:10595000002837D0002935D02AF03EFC23780646AF
:10596000FF2B05D042462046296801F04FFE2860F3
:105970002B68013309D12378FF2B06D1124B6078B5
:10598000D3F824141CF058FE28602A68531C13D046
:105990000E49069B41F8327001EBC2014B6023783F
:1059A000FF2B04D001239340094AC2F82434304627
:1059B0002AF00DFC002003E030462AF008FC2D20E0
:1059C000BDE8F0812220FBE700C00350240F002037
:1059D00000D003500F2838B5054613D82AF0FCFB39
:1059E00001230024084AAB40C2F82034C2F8243412
:1059F000064B43F8354003EBC5035C602AF0E7FB38
:105A0000204638BD2120FCE700E00350240F002091
:105A10002DE9F0410D4690461F46044660B359B348
:105A20002AF0DAFB23780646FF2B05D042462046B3
:105A3000296801F071FE28602A68531C16D00F49AE
:105A400002F10F0341F8337001EBC301069B4B6079
:105A50002378FF2B05D0012310329340084AC2F867
:105A6000243430462AF0B3FB002003E030462AF00D
:105A7000AEFB2D20BDE8F0812220FBE7240F0020A3
:105A800000D0035008B501F061FD054B00F0553022
:105A900020F05020C3F82004BDE80840FFF70CBFF9
:105AA00000E0035008B501F051FD054B00F0AA30AD
:105AB00020F0A020C3F82004BDE80840FFF7FCBE9A
:105AC00000E0035013B504460A482AF0B0FBA27860
:105AD0000421B2FA82F2237852098DF804306378F7
