:020000040800F2
:1000000000100020992A00089D2A00089D2A000857
:100010009D2A00089D2A00089D2A00089D2A0008A4
:100020009D2A00089D2A00089D2A00089D2A000894
:100030009D2A00089D2A00089D2A00089D2A000884
:100040009D2A00089D2A00089D2A00089D2A000874
:100050009D2A00089D2A00089D2A00089D2A000864
:100060009D2A00089D2A00089D2A00089D2A000854
:100070009D2A00089D2A00089D2A00089D2A000844
:100080009D2A00089D2A00089D2A00089D2A000834
:100090009D2A00089D2A00089D2A00089D2A000824
:1000A0009D2A00089D2A00089D2A00089D2A000814
:1000B0009D2A00089D2A00089D2A00089D2A000804
:1000C0009D2A00089D2A00089D2A00089D2A0008F4
:1000D0009D2A00089D2A00089D2A0008590700084B
:1000E000390700089D2A00089D2A00089D2A00085B
:1000F0009D2A00089D2A00089D2A00089D2A0008C4
:100100009D2A00089D2A00089D2A00089D2A0008B3
:100110009D2A00089D2A00089D2A00089D2A0008A3
:100120009D2A00089D2A00089D2A00089D2A000893
:100130009D2A00089D2A00089D2A00089D2A000883
:100140009D2A00089D2A00089D2A00089D2A000873
:100150009D2A00089D2A00089D2A00089D2A000863
:100160009D2A00089D2A00089D2A00089D2A000853
:100170009D2A00089D2A00089D2A00089D2A000843
:100180009D2A00089D2A00089D2A00089D2A000833
:100190009D2A00089D2A00089D2A00089D2A000823
:1001A0009D2A00089D2A00089D2A00089D2A000813
:0401B0009D2A00087C
:1001C000013800D0FCE770470348044B834202D05B
:1001D000034B03B118477047401100204011002025
:1001E00000000000064B0749C91A891048BF0131B9
:1001F000491003D0044B0BB101481847704700BFAA
:1002000040110020401100200000000010B5064CF5
:10021000237843B9FFF7D8FF044B13B10448AFF379
:1002200000800123237010BD1C110020000000007D
:100230001837000808B5054B1BB105490548AFF351
:100240000080BDE80840FFF7CDBF00BF0000000000
:100250000010002018370008A3F5803A704700BF4F
:10026000174B002B08BF134B9D46FFF7F5FF0021EE
:100270008B460F461348144A121A02F0AEFC0E4B7E
:10028000002B00D098470D4B002B00D09847002042
:10029000002104000D000D48002802D00C48AFF3E7
:1002A000008002F0D1FB2000290002F08CFC02F05B
:1002B000B9FB00BF000008000000000000000000C3
:1002C000001000200010002020110020000000007D
:1002D0000000000008B5044802F0A9FD02F05AFC35
:1002E000BDE8084000F008B8F4360008014802F004
:1002F0009EBD00BFF43600082DE9F0415E4C92B07F
:1003000009AD94E80F0085E80F000DAA174604F127
:10031000100304F1200C164618685968083303C608
:1003200063453246F7D11868544B08A930601879F4
:1003300002F078FD524802F07AFD524802F077FD53
:100340004FF4807308985049ADF83430814228BF8B
:1003500001460C9702F06EF829464FF4E0650A90CA
:100360004A4801F05FFF494801F0AEFD474801F0FF
:100370005FFE464801F010FEB4F8248001220421FB
:100380006846ADF8008000F04FF9E78C00220121AB
:1003900001A8ADF8047000F047F9268D0122042170
:1003A00002A8ADF8086000F03FF90122042103A87B
:1003B000374CADF80C5000F037F9364B4FF448701D
:1003C000C4F8C8344FF00213C4F8C43403F58033C2
:1003D000C4F8CC341C23C4F8B43402F0F7FA07A8EC
:1003E000ADF81C5000F080F9142002F0EFFA07A8D5
:1003F000ADF81C5000F050F9232002F0E7FA07A8EE
:10040000ADF81C5000F070F9B921204801F0ECFF64
:1004100007A8ADF81C5000F03FF9002204A81146CF
:10042000ADF8108000F000F9002205A81146ADF8E3
:10043000147000F0F9F80122002106A8ADF8186048
:1004400000F0F2F80122002107A8ADF81C5000F0DE
:10045000EBF80E4801F08EFE00230A48C4F8B434CD
:10046000C4F8C834C4F8C434C4F8CC3402F0E2FC94
:1004700012B0BDE8F08100BF382F0008FC3600083C
:10048000F4360008F8360008E070720000C008502A
:1004900000C00350020001000348044A0449121A34
:1004A000921002F0FCBA00BFB4010008B4010008C9
:1004B0002011002008B5154B83F30A8800F030F8AE
:1004C000FFF7EAFF124B13498B4212D30020124B65
:1004D00012498B4218D3FFF7C3FE186850F8224028
:1004E000586840F82240013298688242F5D30C33B4
:1004F000EAE70022F8E71C6844F8220001325C6851
:10050000A242F8D30833E4E70022F8E70000002015
:10051000203700082C3700082C3700082C3700083B
:100520004FF48041144B154A70B59A60D3F8882077
:10053000134D42F47002C3F88820124A05F50054A6
:1005400091664FF0FF3222666FF4003262660D2230
:10055000A2660222C3F8D020BFF34F8FBFF36F8F84
:100560004FF44036002002F0DFF90020E66002F090
:10057000A9F92E6170BD00BF00ED00E00000000889
:100580000080004400900050014B1860704700BF8D
:1005900024110020054B1860054B1B6F03F0070367
:1005A000032B01D102F048BB704700BF2C11002083
:1005B0000080005070B5044601260C4D04B970BD92
:1005C00094FAA4F0B0FA80F006FA00F224EA0204E9
:1005D000C200AA580F2805EBC001C8BF1038002A76
:1005E000ECD04968C0B29047E8E700BF181000207F
:1005F00008B50C4802F01BFC272002F07DF928B159
:10060000272002F091F9272002F05CF9282002F05F
:1006100073F928B1282002F087F9282002F052F956
:10062000002008BDF4360008F8B50D46174604460C
:1006300028B91848892102F02DFA2220F8BD0F2987
:1006400003D98C21134802F025FA23782BB1012B12
:100650001AD0022B1BD0032B05D140F2FF73627816
:10066000D340DB0703D48D210A4802F013FA02F0CD
:10067000CDFB06463A462946204601F02FFF30467C
:1006800002F0BFFB0020D9E740F2FF13E7E743F693
:10069000FF73E4E7622F000810B5044628B911483B
:1006A000CF2102F0F7F9222010BD03782BB1012BE6
:1006B00012D0022B13D0032B05D140F2FF736278C6
:1006C000D340DB0703D4D221064802F0E3F92046E9
:1006D00002F030FB0020E7E740F2FF13EFE743F6BC
:1006E000FF73ECE7622F000810B5044628B91148E3
:1006F000DF2102F0CFF9222010BD03782BB1012BAE
:1007000012D0022B13D0032B05D140F2FF73627875
:10071000D340DB0703D4E221064802F0BBF92046B0
:1007200001F0A4FE0020E7E740F2FF13EFE743F6F5
:10073000FF73ECE7622F000808B501F0C5FE054B1A
:1007400000F0553020F0A040C3F82004BDE8084078
:10075000FFF730BF00E0035008B501F0B5FE054BD0
:1007600000F0AA3020F02040C3F82004BDE8084083
:10077000FFF720BF00E00350044BD3F88420D206DB
:10078000FBD4D3F88400C0F38110704700400050C0
:1007900038B5104B0546D3F800310C4603F003037F
:1007A000022B0BD0032B0DD0012B0FD102F05EFAE0
:1007B000032305B1286004B1236038BD02F0B4FA08
:1007C0000923F6E702F058FA0823F2E70123002094
:1007D000EFE700BF0080005038B5104B0546D3F856
:1007E00040310C4603F00303022B0BD0032B0DD03A
:1007F000012B0FD102F010FB0A2305B1286004B1D0
:10080000236038BD02F090FA0923F6E702F007FBF7
:100810000C23F2E701230020EFE700BF0080005027
:1008200038B5104B0546D3F860310C4603F003038E
:10083000022B0BD0032B0DD0012B0FD102F0ECFAC1
:100840000A2305B1286004B1236038BD02F06CFAB8
:100850000923F6E702F0E3FA0C23F2E70123002074
:10086000EFE700BF0080005038B5104B0546D3F8C5
:1008700040320C4603F00303022B0BD0032B0DD0A8
:10088000012B0FD102F0C8FA0A2305B1286004B188
:10089000236038BD02F048FA0923F6E702F0BFFAF8
:1008A0000C23F2E701230020EFE700BF0080005097
:1008B00038B5124B0546D3F880300C4603F00303DD
:1008C000022B0BD0032B0DD0012B0FD102F094F98A
:1008D0000E2305B1286004B1236038BD02F0D0F9C1
:1008E0000723F6E702F082F90623F2E7044841F213
:1008F000013102F0CFF800231846EAE700800050EB
:10090000EA2F000838B51A4B0546D3F820010C46EB
:1009100000F00700062821D8DFE800F028040C14B6
:1009200010181C0002F062F9052305B1286004B11B
:10093000236038BD02F09AF90323F6E702F0A0F92C
:100940000723F2E702F08EF90223EEE702F04EF9F8
:100950000623EAE702F08AF90423E6E7054841F2B4
:100960007E3102F097F800231846DEE70123DCE72A
:1009700000800050EA2F000838B5194B0546D3F81F
:1009800028310C4603F00703013B052B20D8DFE894
:1009900003F003131B0F0B1702F028F9052305B111
:1009A000286004B1236038BD02F020F90623F6E781
:1009B00002F066F90723F2E702F058F90323EEE7A5
:1009C00002F054F90423EAE702F04CF90223E6E7C7
:1009D000044841F2781102F05DF800231846DEE782
:1009E00000800050EA2F0008002337B50193194B0F
:1009F0000546D3F820320C4603F00703042B1FD81A
:100A0000DFE803F025030F141900002101A8FFF708
:100A1000B3FF12230DB1019A2A6004B1236003B021
:100A200030BD02F02DF907230190F3E702F0F4F94D
:100A30000A230190EEE702F077F909230190E9E734
:100A400041F23511044802F025F80023E2E70123C2
:100A5000E0E700BF00800050EA2F0008F7B500274C
:100A6000144B0197D3F88041064604F00304022C8E
:100A70000D4614D0032C0DD0012C14D1394601A8F9
:100A8000FFF740FF10240EB1019B336005B12C60CD
:100A900003B0F0BD02F0F4F807240190F3E702F090
:100AA000E1F80190EFE741F2E341034801F0F2FF82
:100AB0003C46E8E700800050EA2F000838B5164BA6
:100AC0000546D3F800020C4600F00700042819D8A8
:100AD000DFE800F020030B0F130002F09DF90A235A
:100AE00005B1286004B1236038BD02F01DF9092367
:100AF000F6E702F094F90C23F2E702F09DF80F23D9
:100B0000800AEDE7054841F2A15101F0C3FF00233F
:100B10001846E5E70123E3E700800050EA2F0008CC
:100B200038B5164B0546D3F808020C4600F007000E
:100B3000042819D8DFE800F020030B0F130002F09F
:100B40006BF90A2305B1286004B1236038BD02F0B7
:100B5000EBF80923F6E702F062F90C23F2E702F062
:100B60006BF80F23800AEDE7054841F2D95101F0F7
:100B700091FF00231846E5E70123E3E700800050DA
:100B8000EA2F000838B5124B0546D3F850320C4610
:100B900003F00303022B17D0032B09D0012B0FD036
:100BA0000C4841F2A81101F075FF0023184602E03D
:100BB00002F035F90C2305B1286004B1236038BD7B
:100BC00002F02AF90A23F6E702F0AEF80923F2E769
:100BD00000800050EA2F0008002337B50193184B1E
:100BE0000546D3F860320C4603F00703013B032BA4
:100BF0001FD8DFE803F0020E1914002101A8FFF747
:100C000081FE10230DB1019A2A6004B1236003B064
:100C100030BD002101A8FFF7DFFD1123F2E702F04C
:100C20002FF807230190EDE702F01CF80223019052
:100C3000E8E741F2DC11034801F02CFF0023E1E773
:100C400000800050EA2F0008002337B50193184BAD
:100C50000546D3F894320C4603F00703013B032BFF
:100C60001FD8DFE803F0020E1914002101A8FFF7D6
:100C700049FE10230DB1019A2A6004B1236003B02C
:100C800030BD002101A8FFF7A7FD1123F2E701F015
:100C9000F7FF07230190EDE701F0E4FF0223019045
:100CA000E8E741F20F21034801F0F4FE0023E1E7F9
:100CB00000800050EA2F000808B5334B98424FD00F
:100CC00027D8324B984245D017D8314B98423ED066
:100CD0000AD838B12F4B984239D041F2B8412E484A
:100CE00001F0D8FE002034E02C4B98422FD02C4B42
:100CF0009842F2D12B4B586E2BE02B4B98422CD0C4
:100D000003F5371303F5D8639842E6D1254B986F66
:100D10001FE0264B98422FD00CD8254B984223D069
:100D2000244B984224D0244B9842D6D11D4BD3F863
:100D300084000EE0214B984222D003F5740303F5A2
:100D400010539842C9D1174BD3F8980001E0154BC6
:100D5000986D08BD134B186FFBE7124B586FF8E7FF
:100D6000104BD3F88000F4E70E4BD3F88800F0E77F
:100D70000C4BD3F88C00ECE70A4BD3F89000E8E773
:100D8000084BD3F89400E4E780BA8C01405DC600BC
:100D900080841E0040420F00EA2F000800093D0039
:100DA000C0CF6A000080E00F0024F400007E5603EC
:100DB00080D54302006CDC020048E8010090D003BB
:100DC000F8B505460F46144602F017F8064625B951
:100DD0004FF49C71064801F05DFE2B6830465C4084
:100DE0003C405C402C60BDE8F84002F001B800BF18
:100DF0006B300008B0F5207F10B52DD009D8B0F5C4
:100E0000007F23D003D868B1B0F5C07F0AD000249A
:100E10001AE0B0F5607FFAD1124BD3F88040C4F3EA
:100E2000011411E00F4B1B6F13F4604FC3F3033435
:100E30000AD0072C08D00F2C06D0032C04D04FF476
:100E40002771094801F026FE601C10BD054BD3F840
:100E50009040C4F30464F7E7024B1C6FC4F3802492
:100E6000F2E700BF00800050EA2F00084FF4803204
:100E700038B5104B04469A6600200D46FFF7BAFFBE
:100E800041F671320C4B6043DC69DA635A6804F452
:100E9000803422F440125DB90849884294BF002092
:100EA0000120000502435A600CB10022DA6338BD0C
:100EB0000349F2E70090005000000350005A62021C
:100EC000002D3101002130B5B0F5807F85B004469A
:100ED000CDE9001100F00B816BD8002800F0DB8019
:100EE000A0F12004602C75D8602C73D8DFE814F0D2
:100EF000D300E000D300E000F000F000F000F000CC
:100F0000F000E000FA007E0010019E007E00E0008C
:100F1000E000E00072007200720072007200720065
:100F200072007200E000E000E000B1001A01E00091
:100F30007200720072007200720072007200720021
:100F400072007200720072001F01F000D300D30023
:100F5000D30015017E007E00BD0024019300F50042
:100F600072007200720072007200C800D30072003A
:100F7000F000F000F000F000F000F500F500E000F7
:100F80007200E000E00072007200720072007200F5
:100F900072007200720072007200720072007200C1
:100FA00072007200720072007200720072007200B1
:100FB000CD00B0F5E06F00F0B5803CD8B0F5607FB3
:100FC00000F081801DD8B0F5007F67D008D8B0F55B
:100FD000C07F60D040F2F741644801F05BFD57E00C
:100FE000B0F5207F64D0B0F5407FF3D101F024FE4E
:100FF00004464FF42070FFF7FDFEB4FBF0F46408E4
:101000005FE0B0F5B06F6DD00AD8B0F5806F5FD0FB
:10101000B0F5A06FDED100216846FFF7E5FC37E0B0
:10102000B0F5C06F74D0B0F5D06FD3D10021684651
:10103000FFF744FD2CE0B0F5186F78D00ED8B0F56E
:10104000086F00F08F80B0F5106F66D0B0F5F06FCC
:10105000C0D100216846FFF7E3FB19E0B0F5286F27
:101060006AD007D8B0F5206FB4D100216846FFF7E9
:10107000B3FD0DE0B0F5406F2FD0B0F5486FA9D1AA
:1010800000216846FFF7E0FD02E001F0B5FD0090A9
:10109000009805B030BD01F0CFFDF8E701F0ACFDE0
:1010A00005462046FFF7A6FEB5FBF0F50095EFE7F5
:1010B00001F0C2FD04464FF42070FFF79BFEB4FB25
:1010C000F0F40094E4E701A8FFF7F2FB019DE8E7E4
:1010D00000216846FFF716FCDAE700216846FFF7B3
:1010E0004BFCD5E700216846FFF7B8FCD0E74FF08E
:1010F000E02302911B695B0705D501F09DFD02907D
:10110000029B0093C4E703A902A8FFF765FBF7E77A
:1011100000216846FFF760FBBAE700216846FFF749
:10112000FFFCB5E700216846FFF79EFBB0E7002112
:101130006846FFF727FDABE700210D4B0391D3F87D
:10114000703203F00303012B07D0022B08D041F2C9
:101150003A21064801F09EFC02E003A8FFF73CFBA1
:10116000039BCEE76846FFF713FB91E7EA2F0008E1
:101170000080005008B58020FFF7A4FE034B984282
:101180009EBF4FF48032024B1A6708BD005A6202BC
:1011900000A000501FB503460020B3F5807F0190EA
:1011A00000F0FB8000F28B80662B7BD83C2B05D8AF
:1011B000243B092B5CD940F2F151DDE03D3B292B6A
:1011C000F9D801A252F823F0BD130008EB13000870
:1011D000B7110008B7110008B7110008B7110008CF
:1011E000B7110008B7110008B7110008B7110008BF
:1011F000B7110008B7110008B7110008B7110008AF
:10120000B7110008F513000891130008B711000882
:10121000B7110008B711000827130008B71100081C
:10122000B711000841130008FF130008E912000875
:10123000E1130008B7110008B7110008B711000842
:10124000B7110008B711000859130008B7110008BA
:10125000B7110008911300089113000891130008BA
:101260009113000891130008E1130008E11300082E
:10127000092BA0D801A252F823F000BF9113000857
:1012800091130008911300089113000891130008AE
:10129000B711000881130008B711000807130008F0
:1012A000C7130008802B86D1614B1B6F03F0070327
:1012B000013B032B5ED8DFE803F05B545759B3F5CD
:1012C000F06F7BD024D8B3F5B06F59D011D8B3F5F7
:1012D000607F00F08180FFF46EAFB3F5806F57D070
:1012E000B3F5A06F7FF467AF002001A9FFF77CFB87
:1012F0004AE0B3F5D06F66D0B3F5E06F75D0B3F5C3
:10130000C06F7FF458AF002001A9FFF765FA3BE0FA
:10131000B3F5186F6ED00BD8B3F5086F58D0B3F58E
:10132000106F7FF448AF002001A9FFF7F9FB2BE015
:10133000B3F5286F63D008D8B3F5206F7FF43BAFC7
:10134000002001A9FFF748FC1EE0B3F5406F47D02D
:10135000B3F5486F7FF42FAF002001A9FFF774FCAD
:1013600012E0052301930FE00323FBE70823F9E7CD
:101370000223F7E740F229512E4801F08BFB03E0EE
:10138000002001A9FFF76AFB019805B05DF804FB96
:10139000002001A9FFF7B6FAF6E74FF0E02302902C
:1013A0001B695B0705D501F047FC0D230393039BE5
:1013B000D8E703A902A8FFF70FFAF8E7002001A970
:1013C000FFF72EFAE0E7002001A9FFF777FBDBE744
:1013D00001A9FFF7DDF9D7E701A9FFF769FAD3E71C
:1013E000002001A9FFF7C8FACEE7002001A9FFF706
:1013F0003BFAC9E7002001A9FFF7C4FBC4E70C4B87
:10140000D3F8703203F00303012B08D0022B0CD069
:1014100041F23A21074801F03DFB0023A2E70021F9
:1014200003A8FFF7D9F911239CE715239AE700BF1A
:1014300000800050EA2F00084FF48032074B084923
:10144000586E03F580535A664B6A23F001034B62D2
:10145000C3035CBF034B5A66704700BF0080005057
:101460000000085000A0005038B5036804460F2B58
:1014700004D940F657417E4801F00CFB63680F2BFE
:1014800004D940F65A417A4801F004FBA3680F2BB7
:1014900004D940F65D41764801F0FCFA237B0F2B1E
:1014A00004D94FF44661724801F0F4FA637B0F2BC4
:1014B00004D940F663416E4801F0ECFAA37B3F2B60
:1014C00004D940F666416A4801F0E4FAE37B3F2B19
:1014D00004D940F66941664801F0DCFA2369032B20
:1014E00004D940F66C41624801F0D4FA6369032BD9
:1014F00004D940F66F415E4801F0CCFAE369032B52
:1015000004D940F672415A4801F0C4FA8020FFF72E
:1015100041FE032800F08A804FF48012554B4FF0B3
:10152000A0615A6645F60E03534AC2F88030534B09
:1015300099624FF4803103F580539962936DD9031A
:10154000FCD4916D11F08041FBD1D4E900031B055F
:1015500043EA0063E07B0343207B43EA0043607B74
:1015600043EA0033A07B43EA801313619069D4E916
:1015700004531B0643EA856300F000400343A07E4A
:10158000E57E0343207E43EA0043607E43EA002376
:101590009361136AE06923F00F03002843EA000314
:1015A00043EA850314BF0125002543EAC5031362FE
:1015B000334D3CD194F82430916A94F82000DB003C
:1015C000294043EA40130B4394F8211043EA0113E6
:1015D00043F4803393622B49274A936D31EA030326
:1015E000FBD14FF08071254881621369A56823F40F
:1015F000700343EA055313614FF00043836194F88D
:1016000022300BB9204B996294F823303BB94FF448
:1016100080321D4B9A62184A936D5B00FCD494F89B
:1016200025301BB1144B194AC3F8802038BD02285D
:1016300008D11161164891614FF408524FF47F416F
:10164000FFF7BEFB0C4994F822308A6A94F8200018
:101650001B062A4043EA4013134394F8242043EA2C
:10166000C20394F8232043EA02438B62D7E700BF0A
:10167000EA2F0008009000500040005A0050005A25
:10168000C7FFFEFE030001000060005AF1A7FFFF44
:101690003440005A014B93F9000070473411002088
:1016A000436810B5072B044604D940F6BF612A48A9
:1016B00001F0F0F9A368032B04D940F6C161264874
:1016C00001F0E8F92378032B04D940F6C3612248DE
:1016D00001F0E0F994F90130002B04DA40F6C5611D
:1016E0001D4801F0D7F94FF400011C4A6378516698
:1016F0004FF4D151022002F5B832516218494F2BF4
:1017000048604FF0010028BF4F2301F58051486029
:101710001169C903FCD4217843EA01235361D4E958
:1017200001131B0143EA0123617B0B43217B43EA45
:1017300041039360E37BA17B1B0143EA4113617C7E
:101740000B43217C43EA41035360A37C13B16FF444
:10175000D153536210BD00BFEA2F00080090005023
:1017600000100250014B1880704700BF321100205A
:10177000014B1880704700BF301100204FF48002E9
:1017800008B5184B5A660223174A5360936813F43E
:101790008033FBD1012822D101F068FA134B984223
:1017A00015D003F5122303F5F863984213D0104BBC
:1017B00000EB8002400AB3FBF0F3520A0A49CA6206
:1017C0000B6301234B620022074B5A6008BD45F6AC
:1017D0007A13084AF2E745F61A03074AEEE753621E
:1017E000F1E700BF009000500040025000F04902B5
:1017F00064666666D8B80500BBCF0500B0F5207FEB
:1018000038B576D00ED8B0F5007F60D003D890B34D
:10181000B0F5C07F2FD0BDE8384040F253313D488D
:1018200001F038B9B0F5607FF5D13B4A4C1ED2F8D3
:10183000FC5015F080751EBFD2F8FC3023F0807389
:10184000C2F8FC30032C04D940F21E31314801F0BB
:1018500021F9324AD2F8803023F0300343EA0413EE
:10186000C2F8803035B12C4AD2F8FC3043F0807396
:10187000C2F8FC3038BD102901F1FF3403D8284BE1
:10188000CB40DB0704D440F2EF21224801F002F9FB
:1018900001F012F901F01EF94FF48031214B1F4A7B
:1018A0001967136F23F4704343EA0433136701F09D
:1018B000C3F90446FEF760FFC0F10201204601F0C3
:1018C00003F900F049F8BDE83840FFF753BC4C1E5F
:1018D0001F2C04D940F236310E4801F0DBF80F4AD4
:1018E000D2F8903023F0F85343EA0463C2F8903002
:1018F000C0E74C1E012C04D94FF44F71054801F08C
:10190000C9F8064A136F23F4806343EA84231367FC
:10191000B0E700BFEA2F000800ED00E000800050B3
:10192000160101000090005008B50121022000F0CE
:1019300077F94FF42070FFF75DFA054B187001F04E
:10194000BBF801F0C7F84FF48032024B1A6708BDAC
:101950001D1100200090005008B54FF4C070FFF733
:10196000B1FABDE808400449884294BF0121022130
:101970004FF42070FFF742BF80F0FA0238B50446FA
:1019800001F05AF90546FEF7F7FEC0F102012846BC
:1019900001F09AF80121002000F096F92CB1FFF730
:1019A000DBFFBDE83840FFF7E5BB034B4FF4207089
:1019B0001978FFF723FFF4E71D1100202DE9F0410E
:1019C0000546FFF779F9431E0333044604D940F670
:1019D000A621394801F05EF84FF4C022374B5A6611
:1019E00003F598335A68012A04D135494A605A6888
:1019F0009207FCD48020FFF7CDFB052807D101F02A
:101A00005BF801F067F84FF480322C4B1A672D4BCE
:101A100024F040749D423DD02B4B9D423DD001F0BF
:101A2000E5F88542064603D90121284600F04CF925
:101A3000264FFB6813F0060FFBD1D7F80880BC6077
:101A4000BB68634013F4F81F2AD12846FEF79CFDBB
:101A50008020FFF79FFB052814D101F0EDF88542A7
:101A6000044604D240F60231134801F013F8FEF7A1
:101A700083FEC0F10201204601F026F8FFF76CFF5B
:101A8000FFF778FBB54214D8BDE8F04101210020F2
:101A900000F01AB944F00074C1E744F08074BEE766
:101AA00040F6F121044800F0F5FF3546C7F80880FC
:101AB000CEE7BDE8F08100BFEA2F0008009000509B
:101AC00000E0015040420F0080841E0000000150E1
:101AD00038B53D4B0546984258D026D83B4B9842E6
:101AE00064D015D868B13A4B984239D0394B9842F6
:101AF00036D0394B984233D041F2CB21374800F0F1
:101B0000C9FF002441F26501344800F0C3FF2DE015
:101B1000334B98424ED003F5371303F5D863984200
:101B2000EAD1304BD3F8B8401DE02F4B984235D066
:101B30000CD82E4B98422DD003F5742303F5107367
:101B40009842D9D1274BD3F8C4400CE0284B984297
:101B500028D0284B9842CFD1224BD3F8D04002E076
:101B6000204BD3F8A040631E0333CBD84FF40022A0
:101B7000214B24F040745A66174B9D421ED0144BE3
:101B80009D421ED04FF0B4439C6038BD154BD3F836
:101B9000BC40E8E7134BD3F8C040E4E7114BD3F85F
:101BA000C840E0E70F4BD3F8CC40DCE70D4BD3F84F
:101BB000A440D8E70B4BD3F8B040D4E744F000740E
:101BC000E0E744F08074DDE70024F400404B4C0073
:101BD00080841E0000093D0040420F00EA2F0008EB
:101BE000809698000080E00F80BA8C01C0EA210145
:101BF0000048E801005A620200900050024A536B0C
:101C00000342FCD1704700BF00800950034A0179AC
:101C1000D36E23F030030B43D3667047004000506F
:101C2000F8B50446244BD3F88420D006FBD4D3F86F
:101C30008430C3F381139C423CD000F0DDFF012CC3
:101C400005460BD11D4B984204D940F2A6711C48A1
:101C500000F020FF0121284600F036FF01F0CDF80A
:101C60004FF00072174B07465A66204600F037FFC8
:101C70004FF48063104E621E93403367736E9A0177
:101C80000AD5384601F0B4F8022C13D12846BDE835
:101C9000F840002100F018BFD6F884309B06F0D43D
:101CA000D6F884309906E9D540F2BE71044800F0B8
:101CB000F1FEE3E7F8BD00BF00400050005A6202A9
:101CC000EC3000080060005010B50C4608B900F078
:101CD00093FF074B21461B783BB1064B984204D833
:101CE0000120BDE81040FFF79BBF0220F9E700BFCD
:101CF0001E110020005A62024FF0004238B5244BFA
:101D0000244C5A664AF6CD33656C014605F0010550
:101D1000236430BB0120FFF771FF6368DB0708D441
:101D2000002415B11B4B1C4A1A6400F0D9FE204652
:101D300038BD1A4B58600846194B226BD20705D4A0
:101D4000984201D10724ECE70130F6E79842E7D149
:101D5000F8E70132236B13F0080305D08A42F8D16B
:101D6000F0E700220E49F5E78A42EBD020210B4A2A
:101D700091620121A2F5805251600649084A886AA1
:101D8000800603D49342DDD00133F8E79342DEE7C7
:101D900000900050008009503254FFFF00A009500D
:101DA00040420F004FF0004238B5164B01465A66CC
:101DB0004AF6CD33144C154A656C236443780B20E6
:101DC0005B0043F00103D363FFF718FF63688A7871
:101DD00023F4F87343EA02136360CA784B7943EA49
:101DE0000223A3600A798B7943EA022323610878EE
:101DF000FFF782FFEB0744BF054B236400F070FE42
:101E0000012038BD00900050008009500040005073
:101E10003254FFFF0F2870B5044605D940F63B71D8
:101E2000124800F037FE0F244FF00042104B1149CA
:101E30005D6E03F580535A664AF6CD334E6C8020B2
:101E40000B64FFF7DBFE0B6A23F00F0323430B62E7
:101E5000F30744BF084B0B64002DA2BF4FF00042B4
:101E6000064B5A6600F03CFE70BD00BFEC30000827
:101E700000800050008009503254FFFF00A0005045
:101E800038B50E4B044698420D460FD00C4B984285
:101E90000CD003F58043984208D003F58043984264
:101EA00004D04FF4AA61074800F0F4FD6368DB0733
:101EB00002D5636D2B42F9D138BD00BF0000015B34
:101EC00000C008506D3100080F4B10B59842044611
:101ED0000FD00E4B98420CD003F58043984208D0A7
:101EE00003F58043984204D040F26151084800F065
:101EF000D1FD204640F6FF71FFF7C2FF012304F534
:101F00008054636010BD00BF0000015B00C008503A
:101F10006D3100080D4B10B5984204460FD00C4BA4
:101F200098420CD003F58043984208D003F58043D3
:101F3000984204D040F27351064800F0ABFD63684C
:101F4000012B04BF04F50054636010BD0000015B69
:101F500000C008506D3100080C4B10B59842044683
:101F60000FD00B4B98420CD003F58043984208D019
:101F700003F58043984204D040F28F51054800F0A9
:101F800089FD63689B07FCD410BD00BF0000015BA6
:101F900000C008506D3100080F4B10B59842044640
:101FA0000FD00E4B98420CD003F58043984208D0D6
:101FB00003F58043984204D040F2A251084800F053
:101FC00069FD204640F6FF71FFF75AFF012304F533
:101FD0008054A36310BD00BF0000015B00C0085027
:101FE0006D3100080F4B10B5984204460FD00E4BD0
:101FF00098420CD003F58043984208D003F5804303
:10200000984204D040F2B351084800F043FD204606
:1020100040F6FF71FFF734FF022304F58054A363F9
:1020200010BD00BF0000015B00C008506D3100080A
:102030000F4B10B5984204460FD00E4B98420CD06F
:1020400003F58043984208D003F58043984204D0BA
:1020500040F2C451084800F01DFD204640F6FF71D3
:10206000FFF70EFF042304F58054A36310BD00BFE7
:102070000000015B00C008506D3100080F4B10B527
:10208000984204460FD00E4B98420CD003F5804383
:10209000984208D003F58043984204D040F2D551CD
:1020A000084800F0F7FC204640F6FF71FFF7E8FE15
:1020B000082304F58054A36310BD00BF0000015B3A
:1020C00000C008506D310008114B10B5984204460D
:1020D0000FD0104B98420CD003F58043984208D0A3
:1020E00003F58043984204D04FF4C5610A4800F0DC
:1020F000D1FCA36CDA0704D540F22B61064800F04E
:10210000C9FCA36C1B0600D410BDE36BF9E700BF4C
:102110000000015B00C008506D310008124B10B583
:10212000984204460FD0114B98420CD003F58043DF
:10213000984208D003F58043984204D040F24461AD
:102140000B4800F0A7FCA36C9A0704D540F2476146
:10215000074800F09FFC4FF4807204F580539A63A7
:10216000A36C9B01FCD410BD0000015B00C00850B3
:102170006D310008274B10B5984204460FD0264B0E
:1021800098420CD003F58043984208D003F5804371
:10219000984204D04FF4AC71204800F07BFC2046FC
:1021A000FFF76CFF2046FFF71DFF50212046FFF789
:1021B00067FE2046FFF7AEFE2046FFF7CDFE204625
:1021C000FFF782FF2046FFF7A9FF042304F58051A3
:1021D00004F500520B6113610B6113610B61136114
:1021E0000B611361202341F2020123610023E360AC
:1021F000A36061614FF4A02161620949E361236238
:10220000A361A365A362E3622365D164236363636F
:10221000236310BD0000015B00C00850FA310008C4
:10222000FF3F0D036A4B70B5984204460D460FD030
:10223000684B98420CD003F58043984208D003F5D0
:102240008043984204D04FF48371634800F022FC2D
:1022500025B94FF48471604800F01CFC2046FFF75C
:1022600089FF23692A7823F0870313436A7A43EAB4
:10227000420343F080032361A368AA7A23F0030397
:1022800043EA420343F00103A36063692A7A23F01F
:102290000F031343636123696A6823F07F4343EAB2
:1022A00002632361EB68002B00F0908022691979AA
:1022B00022F0F80242EAC112197842EA4112D978B2
:1022C00042EA0112D97A42EAC102997942EA8112BC
:1022D0002261E268987C22F0F04222F4702242EA05
:1022E000C062D87C597942EA0042987842EA80225A
:1022F00042EAC132E260A268987A22F4C04242EA1D
:102300004032A2605A7804F5805092028260666A78
:10231000DA7B324802F0030230400243187B0001AE
:1023200000F070000243587B000200F4E0600243BA
:10233000987B000300F4E0400243587A000400F464
:102340007020024362621A8AA26139B1204A944223
:1023500011D174220021D87900F030F9EB689A7914
:10236000A2B31B4A94421BD17022BDE870400021E9
:10237000187A00F023B9174A944201D18022E9E784
:10238000174A944201D18C22E4E7164A944201D1C3
:102390009822DFE740F277410F4800F07BFBDDE752
:1023A0000C4A944201D17C22DFE70D4A944201D1CC
:1023B0008822DAE70B4A944201D19422D5E740F211
:1023C0009F41BDE87040044800F064BB70BD00BF91
:1023D0000000015B00C00850FA3100088C88F0FF53
:1023E000000009500040095038B50F4B0446984290
:1023F0000D460FD00D4B98420CD003F58043984208
:1024000008D003F58043984204D04FF40271084885
:1024100000F040FBA36C5A06FCD56564A36C1B0658
:10242000FCD5E06B80B238BD0000015B00C00850F5
:10243000FA31000838B504460D4681B940F2FD2155
:10244000094800F027FBB4FBF5F4013CFF2C04D94C
:102450004FF44171044800F01DFB204638BD814215
:10246000F1D940F2FE21EBE7FA31000810B504463D
:1024700020B940F2E621124800F00CFB23782BB182
:10248000012B17D0022B18D0032B05D140F2FF737C
:102490006278D340DB0704D440F2E721084800F01B
:1024A000F9FA0122637821789A4030235943054B89
:1024B0005A5010BD40F2FF13EAE743F6FF73E7E717
:1024C0008732000840E00350034BD3F82424D3F8AC
:1024D00020041040704700BF00C003502DE9F041B8
:1024E0000E461746044618B98A21314800F0D2FA40
:1024F00023782BB1012B21D0022B22D0032B05D125
:1025000040F2FF736278D340DB0703D48B21284865
:1025100000F0C0FA274BD3F810331BB18C212448AC
:1025200000F0B8FA0F2E0FD8DFE806F03934343453
:1025300034343434343434343434343440F2FF13E7
:10254000E0E743F6FF73DDE740F2CB11184800F0F7
:10255000A1FA4FF000082046F7B100F0EBFB302263
:102560000F21207863785043072B88BF083B124D1A
:1025700095BF9B009B0004300C3008FA03F2994091
:10258000284400F0AEFA86B9204657B1BDE8F041C4
:1025900000F0D0BBB046DEE7FFF768FFDFE7B046EC
:1025A000DDE7BDE8F041FFF761BFBDE8F08100BFA6
:1025B0001233000800C0035030C00350B2F5805FF2
:1025C00070B505460E46144612D39B210E4800F006
:1025D00061FA24F0030404F1A04404F5603456B910
:1025E0000F2D03D9A321084800F054FA256001E01B
:1025F000002AEED170BD032D03D9A721024800F0B7
:1026000049FA2D02F2E700BF9D33000830B58C482F
:102610008BB000F00CFC20B140F27931894800F019
:1026200039FA6C46884D0FCD0FC42B68874A23605A
:10263000FF238DF80130D2F84C3113F4802340F0A1
:10264000F280D2F850218DF801309DF801306C46AF
:10265000FF2B08BF3F2368467D4D8DF80130FFF703
:102660001FF83220FFF77EF80FCD0FC40FCD0FC437
:1026700095E8030084E80300744BD3F84C2112035F
:1026800000F1CB80D3F85041E4B28DF81940FFF748
:1026900001F8044484F308046E488DF81840FDF7EF
:1026A00079FF6846FEF7E0FE3220FFF761F86A48DE
:1026B000FFF784F96948FFF70BFA694800F0B7FBA8
:1026C00020B14FF4EB715F4800F0E4F9654C002055
:1026D000FFF754F8FFF728F9236F002023F00703D2
:1026E00043F003032367FFF749F9236F5E4923F49F
:1026F00074432367D1F8FC2012F080721EBFD1F81A
:10270000FC3023F08073C1F8FC300021D4F8803015
:1027100023F0030343F00103C4F88030534BC3F8A4
:10272000801032B1504AD2F8FC3043F08073C2F8C6
:10273000FC304C4CD4F8203123F0070343F0020363
:10274000C4F82031D4F8283123F0070343F0020302
:10275000C4F82831D4F8803123F0030343F0010397
:10276000C4F88031D4F8403123F0030343F002036E
:10277000C4F84031D4F8603123F0030343F002037E
:10278000C4F86031D4F8403223F0030343F002036D
:10279000C4F84032D4F8003223F0070343F00203B8
:1027A000C4F80032D4F8083223F0070343F00203E0
:1027B000C4F80832D4F8503223F0030343F0020384
:1027C000C4F85032D4F8703223F0030343F001030D
:1027D000C4F87032D4F8203223F0070343F0010329
:1027E000C4F82032FEF728FE4FF0E02200201369E3
:1027F00043F004031361D4F8603223F0070343F07D
:102800000103C4F86032D4F8943223F0070343F094
:102810000103C4F894320BB030BD154B1C88FF2C5B
:1028200088BF8C2431E74FF07E6393F89C2093F9A6
:102830009C30002BFFF609AF8DF8012005E700BFA3
:10284000EC360008C9340008A83600080080E00F04
:10285000BC360008C017530200B4C404C0EA21010A
:10286000F03600080080005000ED00E000900050BD
:102870000001E00F07B5094B186899889B79009013
:102880006846ADF804108DF80630FFF78BFA0C207F
:10289000FFF7C0FA002003B05DF804FBE43600083F
:1028A00013B50024064A6846536F43F0010353678B
:1028B00000948DF80440FFF7A9F9204602B010BD3E
:1028C000004000505D2810B5044608D80123610976
:1028D000074A04F01F04A34042F8213010BD40F223
:1028E0003711044800F0D6F8002CF7DBEEE700BF04
:1028F00000E100E0703500085C2810B5044604D9FA
:102900004FF4A171064800F0C5F8064B621153F868
:10291000220004F01F04E040C04300F0010010BD9D
:102920007035000800E100E0002808DB01224309BF
:10293000034900F01F008240603341F823207047B4
:1029400000E100E038B500F110036D2B04460D46A0
:1029500004D940F20E210E4800F09CF80F2D04D946
:1029600040F20F210A4800F095F860B20028ACBF91
:1029700000F16040074B4FEA0515EDB2ABBF00F523
:10298000614000F00F0080F800531D5438BD00BFB7
:102990007035000814ED00E010B500F037FA0A4B6E
:1029A0001A786AB901226FF004041A7000F029FA4B
:1029B000204605210134FFF7C5FF5D2CF8D110BD7D
:1029C000BDE8104000F01DBA1F11002010B50446EC
:1029D00000F032F94FF47A729042B0FBF2F105D276
:1029E0003921BDE810400C4800F054B80B4BB3FB44
:1029F000F1F30B49884201D93F21F2E702FB04F0D1
:102A0000B0FBF3F0022806D9BDE810400323B0FB69
:102A1000F3F0FDF7D5BB10BD1B36000840420F0098
:102A2000E7CD9A3B08B5064B044613B10021AFF33E
:102A30000080044B1B6803B19847204600F02BF838
:102A4000000000001811002070B50D4B00260D4D40
:102A50005B1B9C10A64209D10B4D00F061FA0B4B99
:102A600000265B1B9C10A64205D170BD55F8043BA7
:102A700001369847EEE755F8043B01369847F2E7F0
:102A80003811002038110020381100203C1100209E
:102A90000F207047FEE7FEE7FDF70CBDFEE70023C1
:102AA0009A4200D1704710B550F8234041F82340B6
:102AB00001339A42F8D110BD08B500F0CFF8BDE857
:102AC00008400021FEF7D2B90029CCBF0121002126
:102AD000FEF7CCB902214FF42070FEF78FBE70478D
:102AE000704770B5054614460E4600F086F92B680F
:102AF0005C4034405C402C60BDE8704000F078B928
:102B0000704700F000B800207047FFF77FBD7047A6
:102B1000704770477047704708B500F040F800F004
:102B200048F800F048F8FFF7F4FF00F046F8BDE879
:102B3000084000F043B808B5FFF7E2FFFFF7E7FFF2
:102B4000FFF72AFFFFF796FEFFF7DFFFFFF7A8FE6C
:102B5000FFF7DEFF00F007F800F02AF8BDE80840B4
:102B6000FFF7DABF704708B500F015F800F014F869
:102B700000F013F800F012F8FFF7F4FF08BD08B5F5
:102B800000F01DF800F01CF800F01BF8BDE808404C
:102B900000F018B87047704770477047704708B525
:102BA000FDF7A4FBFFF7ADFFBDE80840FDF792BBC2
:102BB0007047FDF71DBDFFF76BBF7047704770474B
:102BC00070477047704708B5FFF7B5FFFFF7A2FFE2
:102BD000FFF7D5FFFFF79FFFFAE702440346934252
:102BE00000D1704703F8011BF9E70000014B18689A
:102BF000704700BF241100200A4B1B6F03F007032E
:102C0000013B032B03D8DFE803F00A030608FEE7C5
:102C1000054B18687047054BFBE7054870470548AA
:102C2000704700BF00800050241100202C110020AC
:102C300080D54302002D310108B5FFF7DDFF054BBC
:102C40001B6FC3F303330133B0FBF3F0024B186087
:102C500008BD00BF008000502011002000487047D0
:102C600000B4C40400487047002D3101014B1868BE
:102C7000704700BF2C1100200048704780D54302E8
:102C80004FF400221B4B5A664FF0B4429368C3F3D3
:102C900004430C2B0AD8DFE803F00B0709092709C6
:102CA000191B1D1F21232500134870470020704762
:102CB000936803F04073B3F1807F17D0B3F1007FC6
:102CC00016D0002B0D4818BF002070470C487047E5
:102CD0000C4870470C4870470C4870470C487047C8
:102CE0000C4870470C4870470C4870470C487047B8
:102CF0000C48704700900050404B4C0000093D00CC
:102D0000405DC6000024F400C0EA2101002D31011D
:102D100080BA8C010048E801005A6202809698004F
:102D200080841E0040420F00014B1868704700BFAE
:102D30002811002010B5044620B940F2BF211248E6
:102D4000FFF7A8FE23782BB1012B17D0022B18D048
:102D5000032B05D140F2FF736278D340DB0704D424
:102D60004FF430710848FFF795FE0122637821780F
:102D70009A4030235943054B5A5010BD40F2FF137F
:102D8000EAE743F6FF73E7E78732000840D00350D5
:102D900070B50E4608B3056815F4E07FC5F38213DD
:102DA00014D0012B14D0022B17D10D4CAB0603D538
:102DB00091210C48FFF76EFE66B104F580540123A3
:102DC000002005F03F05AB40236070BD064CEDE7E9
:102DD000064CEBE704F50054F1E70E20F5E700BFE1
:102DE0006C8000506B300008648000506880005098
:102DF00010B962B6BFF36F8F7047EFF3108072B6F1
:102E0000704780F31188BFF36F8F7047EFF3118025
:102E1000302383F3118870474FF4004070474FF41C
:102E20007A70704709B100F008B82220704701217C
:102E3000FFF7AEBF0021FFF7ABBF70B506460D46EA
:102E4000FFF7E4FF0446202E59D8DFE806F0111AF8
:102E5000581F222558282B582E58313458373A3DC0
:102E600058405843585558465849584C584F5200A6
:102E7000FFF7C2FE002628602046FFF7C2FF30465B
:102E800070BD4FF4C070FEF71DF8F3E74FF42070EB
:102E9000F9E74FF44070F6E74FF46070F3E74FF452
:102EA0000070F0E74FF48060EDE74FF44060EAE730
:102EB0004FF4C060E7E74FF4F060E4E74FF4B06030
:102EC000E1E74FF4D060DEE74FF41060DBE74FF44A
:102ED000E060D8E74FF4A060D5E74FF41860D2E780
:102EE0004FF42860CFE74FF48070CCE74FF42060B8
:102EF000C9E74FF44860C6E74FF40860C3E7002015
:102F00002126B8E7000000000000000000000000DB
:102F100000000000000000000000000000000000B1
:102F2000F8B500BFF8BC08BC9E467047F8B500BFB6
:102F3000F8BC08BC9E46704701000000000000007D
:102F4000020000000000000001000000010000007D
:102F50000104000000000000000000000203020263
:102F60000201433A2F55736572732F726F796D6149
:102F70002F53696D706C69636974795374756469F2
:102F80006F2F76365F776F726B73706163652F5743
:102F90006F6D62436172655F4669726D77617265DC
:102FA0002F73696D706C69636974795F73646B5FAB
:102FB000323032362E362E302F706C6174666F725E
:102FC0006D5F636F72652F706C6174666F726D2FC9
:102FD0006472697665722F6770696F2F7372632FE1
:102FE000736C5F6770696F2E6300433A2F5573658A
:102FF00072732F726F796D612F53696D706C696395
:1030000069747953747564696F2F76365F776F7260
:103010006B73706163652F576F6D62436172655F9B
:103020004669726D776172652F73696D706C696343
:103030006974795F73646B5F323032362E362E30AE
:103040002F706C6174666F726D5F636F72652F7045
:103050006C6174666F726D2F656D6C69622F73722F
:10306000632F656D5F636D752E6300433A2F557353
:103070006572732F726F796D612F53696D706C6912
:103080006369747953747564696F2F76365F776FEF
:10309000726B73706163652F576F6D624361726508
:1030A0005F4669726D776172652F73696D706C69C7
:1030B000636974795F73646B5F323032362E362EFB
:1030C000302F706C6174666F726D5F636F72652F05
:1030D000706C6174666F726D2F656D6C69622F69BB
:1030E0006E632F656D5F6275732E6800433A2F55CE
:1030F000736572732F726F796D612F53696D706C88
:10310000696369747953747564696F2F76365F7774
:103110006F726B73706163652F576F6D624361727D
:10312000655F4669726D776172652F73696D706C4A
:1031300069636974795F73646B5F323032362E363F
:103140002E302F706C6174666F726D5F636F726585
:103150002F706C6174666F726D2F656D6C69622F74
:103160007372632F656D5F656D752E6300433A2F33
:1031700055736572732F726F796D612F53696D701E
:103180006C696369747953747564696F2F76365FFF
:10319000776F726B73706163652F576F6D624361F8
:1031A00072655F4669726D776172652F73696D70C4
:1031B0006C69636974795F73646B5F323032362E89
:1031C000362E302F706C6174666F726D5F636F7234
:1031D000652F706C6174666F726D2F7065726970A7
:1031E000686572616C2F696E632F736C5F68616CC8
:1031F0005F6575736172742E6800433A2F5573656D
:1032000072732F726F796D612F53696D706C696382
:1032100069747953747564696F2F76365F776F724E
:103220006B73706163652F576F6D62436172655F89
:103230004669726D776172652F73696D706C696331
:103240006974795F73646B5F323032362E362E309C
:103250002F706C6174666F726D5F636F72652F7033
:103260006C6174666F726D2F7065726970686572DB
:10327000616C2F7372632F736C5F68616C5F65752F
:10328000736172742E6300433A2F55736572732F06
:10329000726F796D612F53696D706C6963697479B0
:1032A00053747564696F2F76365F776F726B7370C6
:1032B0006163652F576F6D62436172655F46697226
:1032C0006D776172652F73696D706C69636974796C
:1032D0005F73646B5F323032362E362E302F706C57
:1032E0006174666F726D5F636F72652F706C61746D
:1032F000666F726D2F7065726970686572616C2F90
:10330000696E632F736C5F68616C5F6770696F2EA5
:103310006800433A2F55736572732F726F796D6130
:103320002F53696D706C696369747953747564693E
:103330006F2F76365F776F726B73706163652F578F
:103340006F6D62436172655F4669726D7761726528
:103350002F73696D706C69636974795F73646B5FF7
:10336000323032362E362E302F706C6174666F72AA
:103370006D5F636F72652F706C6174666F726D2F15
:103380007065726970686572616C2F7372632F73F8
:103390006C5F68616C5F6770696F2E6300433A2FE2
:1033A00055736572732F726F796D612F53696D70EC
:1033B0006C696369747953747564696F2F76365FCD
:1033C000776F726B73706163652F576F6D624361C6
:1033D00072655F4669726D776172652F73696D7092
:1033E0006C69636974795F73646B5F323032362E57
:1033F000362E302F706C6174666F726D5F636F7202
:10340000652F706C6174666F726D2F706572697074
:10341000686572616C2F7372632F736C5F68616C87
:103420005F7072732E6300433A2F55736572732F6A
:10343000726F796D612F53696D706C69636974790E
:1034400053747564696F2F76365F776F726B737024
:103450006163652F576F6D62436172655F46697284
:103460006D776172652F73696D706C6963697479CA
:103470005F73646B5F323032362E362E302F706CB5
:103480006174666F726D5F636F72652F706C6174CB
:10349000666F726D2F736572766963652F636C6FEB
:1034A000636B5F6D616E616765722F7372632F73FB
:1034B0006C5F636C6F636B5F6D616E616765725F9C
:1034C00068616C5F73322E6300433A2F55736572E7
:1034D000732F726F796D612F53696D706C696369B9
:1034E000747953747564696F2F76365F776F726B7A
:1034F00073706163652F576F6D62436172655F46DC
:1035000069726D776172652F73696D706C6963693B
:1035100074795F73646B5F323032362E362E302F03
:10352000706C6174666F726D5F636F72652F706C23
:103530006174666F726D2F736572766963652F6350
:103540006C6F636B5F6D616E616765722F73726321
:103550002F736C5F636C6F636B5F6D616E6167652A
:10356000725F696E69745F68616C5F73322E6300AD
:10357000433A2F55736572732F726F796D612F53B4
:10358000696D706C696369747953747564696F2FC0
:1035900076365F776F726B73706163652F576F6DEF
:1035A00062436172655F4669726D776172652F7300
:1035B000696D706C69636974795F73646B5F3230D5
:1035C00032362E362E302F706C6174666F726D5FDE
:1035D000636F72652F706C6174666F726D2F7365A7
:1035E00072766963652F696E746572727570745F47
:1035F0006D616E616765722F7372632F736C5F69A3
:103600006E746572727570745F6D616E61676572FC
:103610005F636F727465786D2E6300433A2F557344
:103620006572732F726F796D612F53696D706C695C
:103630006369747953747564696F2F76365F776F39
:10364000726B73706163652F576F6D624361726552
:103650005F4669726D776172652F73696D706C6911
:10366000636974795F73646B5F323032362E362E45
:10367000302F706C6174666F726D5F636F72652F4F
:10368000706C6174666F726D2F73657276696365B5
:103690002F7564656C61792F7372632F736C5F751E
:1036A00064656C61792E630001260000040000004F
:1036B0000000000000010000000000000B000000FE
:1036C0000C000000030000000000202000000000AB
:1036D000030000003C3C3C00000000000000000033
:1036E0000000000001031001010903001E0000009A
:1036F000160000001A0000005700000000C008502B
:103700000A000000F83600081437000810370008D7
:08371000010010000000100090
:0837180040CBFF7F010000001F
:0C3720002C3700082011002008000000D9
:10372C00C0EA2101C0EA210100800000C017530249
:10373C00FFFFFFFF28000000350200080D02000803
:0400000508002A992C
:00000001FF
