S02B0000433A2F496F54206368616C6C656D676520323032362D576F6D62436172652F576F6D62636172655F75
S31508000000C00A00203F1F0208431F0208431F0208B8
S315080000105F440208431F0208431F0208431F0208E1
S31508000020431F0208431F0208431F0208431F020812
S31508000030431F0208431F0208C5120208431F02088D
S31508000040431F0208431F0208431F0208431F0208F2
S31508000050431F0208431F0208431F0208431F0208E2
S31508000060431F0208431F0208431F0208431F0208D2
S31508000070431F0208431F0208431F0208431F0208C2
S31508000080431F0208431F0208431F0208431F0208B2
S31508000090431F0208431F0208431F0208431F0208A2
S315080000A0431F0208431F0208431F0208431F020892
S315080000B0917D0620431F0208431F0208431F0208BA
S315080000C0431F0208431F0208431F020879810008DC
S315080000D0431F0208431F0208431F0208C9190008E4
S315080000E0A9190008431F0208431F0208431F0208F4
S315080000F0431F02081DF0010819F90108D1F7020883
S31508000100CDF7020865F00108E7F70208D5F70208F7
S31508000110E9F80108D9F702087D06020859F9010825
S31508000120431F0208431F0208431F0208431F020811
S3150800013009400208431F0208431F0208431F02081A
S31508000140431F0208BD9E0008431F0208431F0208FA
S31508000150431F0208431F0208431F0208431F0208E1
S31508000160431F0208431F0208431F0208431F0208D1
S31508000170431F0208431F0208431F0208431F0208C1
S31508000180431F0208431F0208431F0208031A0308F5
S31508000190C1DB0108431F0208EDD9010821DA01086D
S315080001A0431F0208431F0208431F0208431F020891
S309080001B0431F0208D1
S315080001C0F0B5114A114C124E00F00105E3695F07BC
S315080001D013D40DB9334213D103EA00078F4207D16E
S315080001E00B4A1A40002A14BF6FF001000020F0BD28
S315080001F0013AEBD16FF00200F9E74FF0FF30F6E76E
S315080002006FF00100F3E700BF8096980000000350E6
S31508000210020001000B4B70B5D96911F480310DD17C
S3150800022001244FF48072084E084DF46020462C6471
S315080002301A61FFF7C5FF3464EC6070BD6FF001000A
S31508000240FBE700BF000003500010035000200350D6
S315080002504FF4803238B50E4B0E4C9A66E56941F676
S31508000260713315400122E3630B4B0021DA60022348
S31508000270606121202361FFF7A3FF10B92120FFF752
S315080002809FFF0122054BDA600DB10023E36338BDF9
S315080002900090005000000350001003500020035047
S315080002A070B5134C6061E3695B071ED40E4656F8B9
S315080002B0043B8D18A361AE420BD1042300212120F3
S315080002C02361FFF77DFF58B9BDE870402120FFF78D
S315080002D077BF08210846FFF773FF10B1042323618F
S315080002E070BD56F8043BA361E5E74FF0FF30F7E72A
S315080002F0000003502DE9F84316464FF48032184B98
S3150800030089469A6603F51C33DA69074602F480388B
S3150800031041F67132DA63012203F58053114DDA6032
S3150800032066B930460122104BDA60B8F1000F03D0E7
S315080003300022A3F50053DA63BDE8F88307F50054F5
S315080003402C40E41BB44228BF344649462246384668
S31508000350FFF7A6FF0028E5D12744A144361BDFE7AF
S315080003600090005000E0FFFF0020035010B582B057
S3150800037001A90DF1030000F0E7F8019A92F8403060
S315080003805BB2002B0FDD0949D36A496B19420AD0C3
S3150800039092F840100648074C013949B282F84010D5
S315080003A063634362836402B010BD00BF000004505B
S315080003B000100450002004502DE9F04F85B003A921
S315080003C00DF10B0000F0C0F8039C94F82950D4F8FE
S315080003D00C8004EB45039B8C94F82A60A068626B3A
S315080003E0216A08EB830306B1490803EB810C1168FF
S315080003F0494E21F07F4100EB810094F84210D778EE
S3150800040001EB410106EB0111168908615068013EAE
S3150800041020F07F4008EB800048614048009740EA9A
S315080004200610C860206B064601903D488662466203
S3150800043049696163E18C21B1013505F0010584F84C
S3150800044029501832944553D3A646364FDFF8DC9028
S315080004505EF8386B20E01AF0040F0CBF594694F882
S31508000460291002F10C021CBF04EB4101898C5D6165
S3150800047018BF08EB810121F00301C3F818E01AF050
S31508000480020FC3F81090D9611EBFD96941F0020165
S31508000490D96162455B462BD852F80C1C12F8050C3C
S315080004A021F07F41043006EB810154F820B012F8A0
S315080004B009AC32F8025C596052F8080C32F8041C90
S315080004C020F07F400BEB80000139986047EA011164
S315080004D003F11000196020F0030141F0020103F155
S315080004E0200BD960002DB6D10C3262450346D3D90C
S315080004F0009AD2070CD40C490C4A019858609960A6
S315080005001A6053F8041C43F00202D96043F8042C1D
S3150800051005B0BDE8F08F00BF5800045000003F0842
S3150800052000100450080020083C1004500A00300847
S315080005304FF0BA43196ADA6903F500530A40DA61DB
S31508000540704700BF000000005FF800F03904030898
S31508000550000000000000000000000000000000008D
S31508000560013800D0FCE770470348044B834202D0A9
S31508000570034B03B118477047D87F0620D87F06205B
S3150800058000000000064B0749C91A891048BF013107
S31508000590491003D0044B0BB101481847704700BFF8
S315080005A0D87F0620D87F06200000000010B5064C2C
S315080005B0237843B9FFF7D8FF044B13B10448AFF3C8
S315080005C000800123237010BDAA78062000000000D1
S315080005D03C79030808B5054B1BB105490548AFF337
S315080005E00080BDE80840FFF7CDBF00BF000000004F
S315080005F0C80D00203C790308A3F5803A704700BF70
S31508000600174B002B08BF134B9D46FFF7F5FF00213C
S315080006108B460F461348144A121A24F036F80E4B26
S31508000620002B00D098470D4B002B00D09847002090
S31508000630002104000D000D48002802D00C48AFF335
S31508000640008009F0AFFE2000290023F0E7FF09F03B
S3150800065097FE00BF00000800000000000000000030
S31508000660C00A0020C00A0020207A062000000000E8
S315080006700000000037B504460CF07CFF002840D186
S31508000680214B20766361A36843F48013A36023F0AB
S315080006904BFFA368A0801B030CD4B0F5FA7F09D9D9
S315080006A030F0F7FD0121054608462FF0ADFF284634
S315080006B030F0EAFD20460CF085FF0546F0B91348F0
S315080006C00FF0D4FC25F0FBFC0BF014FD27F00CF919
S315080006D025F09DF92A460121042025F0C5FC01A82C
S315080006E08DF804500DF024F9032104200FF0CCF9FD
S315080006F00A200BF0CFFA204620F0DAFD284603B090
S3150800070030BD0025FAE700BF05040300AC7F0620CC
S3150800071008B50449044818F035FCBDE8084018F047
S3150800072061BC00BFCC1A0308B41B03084FF0805203
S31508000730014B5A60704700BF00ED00E0F8B50E4661
S315080007400546D0B1C9B10E4B0E4F1968386802F08C
S31508000750F7F8044678B9062332460B49386802F09A
S31508000760B7F9044638B901232A460849386802F019
S31508000770AFF900B12C702046F8BD2124FBE700BF75
S31508000780D07D0620F07D06202C0004003C000400E5
S3150800079008B5044830F070FF23F0FCFEBDE80840B9
S315080007A000F008B8C81F0308014830F065BF00BF4D
S315080007B0C81F03082DE9F0415E4C92B009AD94E8D4
S315080007C00F0085E80F000DAA174604F1100304F17F
S315080007D0200C164618685968083303C6634532461E
S315080007E0F7D11868544B08A93060187930F03FFFE4
S315080007F0524830F041FF524830F03EFF4FF48073C4
S3150800080008985049ADF83430814228BF01460C9704
S3150800081022F05CFC29464FF4E0650A904A4805F048
S31508000820F9FB494822F0FAFB474822F020FC4648E3
S3150800083022F009FCB4F82480012204216846ADF8A8
S31508000840008021F0F5FBE78C0022012101A8ADF814
S31508000850047021F0EDFB268D0122042102A8ADF8D3
S31508000860086021F0E5FB0122042103A8374CADF806
S315080008700C5021F0DDFB364B4FF44870C4F8C834F1
S315080008804FF00213C4F8C43403F58033C4F8CC34EB
S315080008901C23C4F8B43408F069F907A8ADF81C504D
S315080008A000F0D4FF142008F061F907A8ADF81C5031
S315080008B000F0BCFF232008F059F907A8ADF81C5032
S315080008C000F0C4FFB921204822F0F6FB07A8ADF8CE
S315080008D01C5000F0ABFF002204A81146ADF81080AA
S315080008E021F0A6FB002205A81146ADF8147021F0E8
S315080008F09FFB0122002106A8ADF8186021F098FB9D
S315080009000122002107A8ADF81C5021F091FB0E48E2
S3150800091005F046FB00230A48C4F8B434C4F8C834C2
S31508000920C4F8C434C4F8CC3430F0A9FE12B0BDE81B
S31508000930F08100BF481C03089C200308C81F030851
S31508000940D41F0308E070720000C0085000C00350AE
S315080009500200010010B50A46044619B1024B0021EF
S315080009601B68984710BD00BF741C03080E4B034054
S31508000970B3F1607F06D1B1F5885F0CBF00206FF038
S3150800098086007047B3F1707F0BD101F4E043B3F5ED
S31508000990005F06D111F4E06F14BF00206FF08600E7
S315080009A070476FF0860070470000C07F8A42F8B52E
S315080009B006460D4600F0CD806A4B22F4FF7121F001
S315080009C00101994210D0684922F0FF038B420BD0EF
S315080009D022F47F7020F00300A1F57061884203D0ED
S315080009E001F5A0618B4227D15E4B25F4FF7121F0FA
S315080009F00101994210D05C4925F0FF038B420BD0C8
S31508000A0025F47F7020F00300A1F57061884203D0B9
S31508000A1001F5A0618B420FD115F0FF000BD0534BA7
S31508000A2040F00070984240F0968082EA0500FF2860
S31508000A308CBF00200120F8BD05F0FE43B3F1A06F7E
S31508000A4011D102F0FE43B3F1A06F72D182EA050319
S31508000A5033F47E136DD128046BD5C5F30540C2F374
S31508000A6005429042E4E7B3F1407F62D102F0FE43CB
S31508000A70B3F1407F5DD182EA050030F47E1458D187
S31508000A8031462846FFF772FF002864D1384912F428
S31508000A907C1701EA020116D0B1F1607FC2F3054363
S31508000AA036D1D1B241F0007101F17E4103391029E6
S31508000AB001D83048445C15F47C1F2FD19C4214BFE2
S31508000AC000200120B7E7B1F1607F0AD1D3B243F025
S31508000AD0007303F17E43033B102B40D82649CB5CB9
S31508000AE0DFE7B1F1707F17D106F4E043B3F5005F95
S31508000AF033D10123C6F302218B4006F4E041B1F558
S31508000B00005FD8D10120C6F3022600FA06F4D2E720
S31508000B10B1F1707FCFD1F0E73B46CCE71FB9C5F3FB
S31508000B200541A14215D0290403D5C5F305409842CD
S31508000B307EE725F47F03B3F1106F0CD102F0FE4374
S31508000B40B3F1106F07D10D48104040F01060A8426D
S31508000B50B5E701206FE700206DE73B46CDE73B464A
S31508000B609FE700BF0002000600130006FF00000210
S31508000B700000C07F781C0308781C03080000FFF6F5
S31508000B8037B50D4D0C466B78022B12D12B78072BF7
S31508000B900FD100230A460193014601AB281D22F016
S31508000BA030FE20B9019BA34218BF6FF0930003B033
S31508000BB030BD6FF08800FAE7E00D002038B500F088
S31508000BC0FE43B3F1407F04460D4602D06FF086001F
S31508000BD038BDFFF7CBFE0028F8D114F47C1F18D0D7
S31508000BE0C4F30543032B137022D9224A2240B2F1DB
S31508000BF0607F31D1E4B244F0007404F17E44033CD2
S31508000C00102CE3D81C4A125D9342DFD8142BDFD987
S31508000C100EE0184B2340B3F1607F0FD1E3B243F0E7
S31508000C20007303F17E43033B102B04D90023137092
S31508000C306FF08500CCE71149CB5CD3E7B3F1707F41
S31508000C40F4D101F4E043B3F5005FEFD10123C1F31A
S31508000C5002218B40DBB2C5E7B2F1707FB6D105F44D
S31508000C60E042B2F5005FB1D10122C5F30225AA40E0
S31508000C70CAE700BF0000C07F781C0308781C030879
S31508000C802DE9F843884617461C4600F0A1FB0546A1
S31508000C90002844D1D8F80060B6F8009009F4E0437B
S31508000CA0B3F5804FB36808BF27F0010737EA030397
S31508000CB02DD1A4B3244B24F4FF7222F001029A42E8
S31508000CC010D0224A24F0FF0393420BD024F47F71FC
S31508000CD021F00301A2F57062914203D002F5A062E9
S31508000CE093421FD114F0FF0304D0194A43F000734E
S31508000CF093421ED022464846F168FFF757FE07463C
S31508000D0068B9224648463169FFF750FED0B96FF0F8
S31508000D10840500233046C8F8003021F027F8284615
S31508000D20BDE8F88304F0FE43B3F1407F04D1230401
S31508000D30E0D56FF08605ECE7B3F1A06FF7D0044B6A
S31508000D409C42D6E73D46EAE7000200060013000685
S31508000D50FF0000022DE9F04F9B46002389B08DF86D
S31508000D601B30159B9246DDE91289002B0E460B4671
S31508000D700CBF4FF400624FF4806207A9149FFFF777
S31508000D807FFF044610BB079D304629880DF11B02DC
S31508000D90FFF714FF0446C8B99DF81B00484531D82B
S31508000DA0D5E908126B681B0A012B20D0184CA34200
S31508000DB000D053BBCDE9030733462846CDE901B831
S31508000DC0CDF800A023F07CF8044608B1C7F80090D7
S31508000DD04A46214640463B6820F0BBFA079820F071
S31508000DE0C5FF002C18BF204609B0BDE8F08FCDE935
S31508000DF0030733462846CDE901B8CDF800A023F00D
S31508000E0002F8E1E76FF08904E0E76FF08604DDE7B2
S31508000E10020080002DE9F04F064600208BB00F46F1
S31508000E2014469946CDE9060009921860002A00F092
S31508000E309880B2F1005F80F0978006AA314607AB2A
S31508000E4020F02CFC024628BB069B5A6A8AB1069DEE
S31508000E50A8466A686B88120A012A089358F824AFCC
S31508000E602B6A6DD042498A425FD01AB36FF0860268
S31508000E7010E073681B0A15D0012B04D03C498B423D
S31508000E800FD00992F2E7304609A9099420F051FEDD
S31508000E90024638B1DDE90601059220F066FC059A9E
S31508000EA03FE009940999069820F08CFA0246002832
S31508000EB0CDD0EFE70DF1200B224639462846CDE97D
S31508000EC0018BCDF800A0059322F07AFF10F1860F6A
S31508000ED00246059B09D1224639462846CDE9018BAB
S31508000EE0CDF800A020F091FA02460698002AD1D142
S31508000EF04288089B7ABB43804FF6F87293422DD8F6
S31508000F00338813B102889A42B0D1738813B14288E4
S31508000F109A42ABD14A46079920F00EFC02460028B1
S31508000F20B8D110460BB0BDE8F08F08AACDE901820A
S31508000F30394622462846CDF800A022F041FFD3E7DD
S31508000F4008AACDE90182394622462846CDF800A0EE
S31508000F5022F0E7FDC8E79A42CED087E76FF0850210
S31508000F6098E76FF08602DCE76FF08502D9E700BFE5
S31508000F70020080002DE9F043994600230C460168DB
S31508000F8085B005461746039300295BD100F108088A
S31508000F909822404623F079FBB9F1000F20463B46DC
S31508000FA00CBF4FF400624FF4806203A9FFF768FE96
S31508000FB00446002848D1039C384621882A1DFFF795
S31508000FC0FDFD0646002844D16B7969F300036B7171
S31508000FD06168D4E90823090AB9F1000F20D001296C
S31508000FE015D01E48814200D0A9BB2146404600972D
S31508000FF022F09FFF044638BB04232B60039820F099
S31508001000B5FE002E18BF304605B0BDE8F083214670
S315080010104046009706F060FD0446A8B90523ECE7AC
S31508001020012909D00D48814200D0A1B92146404680
S31508001030009722F0C6FFDDE721464046009722F0DA
S3150800104007FFE9E76FF08804284620F092FB26465A
S31508001050D4E70446F8E76FF08604F5E70200800057
S315080010602DE9F04F00249B4601F0FE438FB0B3F103
S31508001070806F0F46DDE918689246DDF86890099496
S3150800108040F085800B464FF4807209A9FFF7F8FDFA
S31508001090054600287FD1099B1B8803F4E042B2F578
S315080010A0005F1CD113F4E06F19D03F4927F4807212
S315080010B08A420AD001F500718F4206D03B498F4219
S315080010C003D0A1F53F418A4209D10124C3F3022383
S315080010D09C40102C0ED900266FF0830534E042F2AE
S315080010E00402934202D1324B9F420DD0314B9F42AC
S315080010F00CD10D24A04550D321460AA8FFF740FD80
S31508001100054620B100261FE00C24F3E700240998C1
S31508001110D0E908126EB306EB040C4568A8EB040385
S315080011202D0A012D27D0DFF890E0754500D07DBB4C
S31508001130CDE905390AAB0093CDE903BC3B46CDE9B9
S31508001140014A22F0BBFE0546099820F00FFE074625
S315080011503DBB38BB24B1224630460AA923F09DFA86
S31508001160D9F800301C443846C9F800400FB0BDE82D
S31508001170F08FB446D1E7CDE905390AAB0093CDE93E
S3150800118003BC3B46CDE9014A22F03BFEDBE7264697
S315080011906FF08605D8E72646D6E700266FF089055C
S315080011A0D2E72F460024DEE70010C00400FF400403
S315080011B0000180040013C00402008000002307B564
S315080011C01A460091024920F0C5FB03B05DF804FBFE
S315080011D08C1C030810B5114C2378580744BF03F03C
S315080011E0FB032370990705D500F098F8237823F0B8
S315080011F00203237063781BB10023094A63605360B6
S315080012000023082106486370FFF7A4FB2378DA0752
S3150800121044BF23F00103237010BD00BFE00D00207A
S31508001220E40D002038B51A4D6A782B78022A01D1C8
S31508001230072B1DD0DC070BD422F0D8FA044610B9C8
S3150800124022F0DDFA04462B7843F001032B70E4B94B
S31508001250980707D400F05AF82B78044643F002039F
S315080012602B7090B96A780AB9D90704D45A0708D5F1
S315080012700024204638BD07496A604A6002226A701F
S31508001280F4E743F004032B70F2E7FFF7A3FFF0E758
S31508001290E00D0020E40D002000F14043032B70B55B
S315080012A005460E460CD82822174C02FB0344237E1B
S315080012B0022B02D1636983421ED06FF08B0021E0B6
S315080012C0012120F02DFD70B10F4B00221C46197E1E
S315080012D0022902D15969A9420BD00132042A03F125
S315080012E02803F4D1E9E76FF087000BE06FF096006A
S315080012F008E0282303FB0244204620F004FD0028CA
S31508001300F4D1346070BD00BFEC0D00200122024B01
S31508001310002083F8A0207047EC0D00202DE9F0414D
S315080013200A4C002526464FF0010803272046C4F834
S315080013301C802776013520F0A3F8042D04F1280433
S31508001340F4D1002386F8A030BDE8F081EC0D00202A
S31508001350F8B51E4D064695F8A0300F4683B300240F
S315080013602B462246197ED1B13CB9022905D1D96945
S3150800137019B91979002918BF1C460132042A03F144
S315080013802803EFD114B96FF08C0006E0204620F050
S31508001390BAFC204620F074F810B100240EE01C4672
S315080013A0237E83B9012323763EB1651BED1003F135
S315080013B0CC335D4305F18045356000203C60F8BDBF
S315080013C06FF08800E9E76FF09600E6E7EC0D00207D
S315080013D0F7B50026294B0E6093F8A03007460D4650
S315080013E0002B48D0FFF758FF10F18C0F044627D181
S315080013F029463046FFF7ACFF044608BB01232E6892
S31508001400CDE90000694630467761736001AA20F08D
S3150800141030FD044628B9DDE9001230461FF0E5FF25
S315080014200446DDE9000120F022FD28685CB120F0C1
S3150800143027F814F18C0F08BF6FF0870400232B6080
S31508001440204603B0F0BD8368D90444BF43F48063E3
S3150800145083609A0444BF43F400638360037E012BD0
S3150800146004BF0223037620F04EFC04460028E7D08A
S315080014706FF09604E2E76FF08804E1E7EC0D0020D0
S3150800148030B40D4D2C681C606C685C6000249C6050
S315080014905468DC6014881C8254885C8294685C6199
S315080014A0D4689C61126930BCDA6119620A46014641
S315080014B003F1240023F0F1B8901C03082DE9F84342
S315080014C0232904460F4691469846089E04D86FF08D
S315080014D098052846BDE8F8830822194923F0ACF890
S315080014E005460028F3D1A368002BF0D1216A243FD2
S315080014F08F42C8F80010EAD3B1F5005FE7D271B998
S31508001500C9F80000E3687360238A3380638A7380AE
S315080015106369B360A369F360E3693361D9E70120BE
S3150800152022F0DAFEC9F8000030B1D8F8002004F13C
S31508001530240123F0B2F8E5E76FF08C05C9E700BF90
S31508001540901C03080348044A0449121A921020F012
S31508001550F9BC00BFC001000860050008207A062013
S3150800156008B5154B83F30A8800F030F8FFF7EAFF51
S31508001570124B13498B4212D30020124B12498B424D
S3150800158018D3FFF73DF8186850F82240586840F815
S315080015902240013298688242F5D30C33EAE70022EA
S315080015A0F8E71C6844F8220001325C68A242F8D3C6
S315080015B00833E4E70022F8E700000020447903082E
S315080015C05079030850790308507903084FF480418D
S315080015D0144B154A70B59A60D3F88820134D42F417
S315080015E07002C3F88820124A05F5005491664FF038
S315080015F0FF3222666FF4003262660D22A26602226C
S31508001600C3F8D020BFF34F8FBFF36F8F4FF4403628
S31508001610002006F053FF0020E66006F033FF2E6137
S3150800162070BD00BF00ED00E0000000080080004427
S3150800163000900050014B1860704700BFC47D06201B
S31508001640054B1860054B1B6F03F00703032B01D1ED
S315080016502EF004BC704700BFCC7D062000800050E9
S3150800166030B5056887B0AB8804461848ADF80C3025
S3150800167030F002F80022012103A820F0D9FC0DF170
S315080016800B0103A820F0E8FC9DF80B3083F001035A
S315080016902B70AB79022B15D14FF0FF330022CDE921
S315080016A0043304A90A4B009403A800F045F9049BE7
S315080016B0009401330CBF04220122054B05A903A897
S315080016C000F0D4F8002007B030BD00BFC81F0308DB
S315080016D0731F020870B506460C4605782FF0E2FD22
S315080016E0737D01461BB12FF0D8FD042070BD074B52
S315080016F0AA003CB120681344586008462FF0CDFD77
S315080017000020F3E713445C60F7E700BF004004508D
S315080017102DE9F84F9B46254B1646002914BF8A46E5
S315080017209A460127DAF8008004462FF0BBFDD8F860
S315080017302C50B7403D40814605D02FF0AEFD04251C
S315080017402846BDE8F88F0A9B31465046C4E903355A
S31508001750C4F804A02670C4F808B0A58220F067FC77
S31508001760636898682FF088FF114B98682FF084FFFC
S3150800177029462046FFF7AEFF072E13D822463146E4
S31508001780284606F0BDFC0B4A3146284606F0A0FC62
S3150800179008F5805347F0004208F500585F635A651C
S315080017A0C8F8407048462FF078FDC9E7DC1F0308E3
S315080017B060200308AB13030870B5044601260C4DD8
S315080017C004B970BD94FAA4F0B0FA80F006FA00F2F3
S315080017D024EA0204C200AA580F2805EBC001C8BFB4
S315080017E01038002AECD04968C0B29047E8E700BF35
S315080017F0900E002008B50C482FF03EFF272006F073
S315080018004FFE28B1272006F059FE272006F03AFE9B
S31508001810282006F045FE28B1282006F04FFE28208D
S3150800182006F030FE002008BDC81F030848B1012293
S31508001830437801789A4030235943034B00205A5085
S3150800184070472220704700BF40D0035048B101229C
S31508001850437801789A4030235943034B00205A5065
S3150800186070472220704700BF40E003502DE9F04141
S315080018700D4690461F460446002836D0002934D027
S315080018802FF010FD23780646FF2B05D0424620464A
S31508001890296804F0DDFC28602868421C0BD12378EF
S315080018A0FF2B1CD1124B6078D3F8241421F021FCAD
S315080018B0431C286013D00F49069B41F8307001EB92
S315080018C0C0014B602378FF2B04D001230A4A8340CA
S315080018D0C2F8243430462FF0E0FC002003E03046FE
S315080018E02FF0DBFC2D20BDE8F0812220FBE700BFAE
S315080018F000C00350900E002000D003500F2838B5C2
S31508001900054613D82FF0CEFC01230024084AAB4025
S31508001910C2F82034C2F82434064B43F8354003EBAA
S31508001920C5035C602FF0B9FC204638BD2120FCE7D2
S3150800193000E00350900E00202DE9F0410D46904638
S315080019401F46044650B349B32FF0ACFC237806462D
S31508001950FF2B05D042462046296804F0FFFC286084
S315080019602A68531C14D00E49069B103241F832706F
S3150800197001EBC2014B602378FF2B04D0012393406F
S31508001980084AC2F8243430462FF087FC002003E0CA
S3150800199030462FF082FC2D20BDE8F0812220FBE79F
S315080019A0900E002000D0035008B504F0F7FB054B55
S315080019B000F0553020F0A040C3F82004BDE80840E8
S315080019C0FFF7FABE00E0035008B504F0E7FB054B45
S315080019D000F0AA3020F02040C3F82004BDE80840F3
S315080019E0FFF7EABE00E003502DE9F04F144606461D
S315080019F00F4689B00393C36B01225B6904A960682B
S31508001A009847F36B01225B6905A93846984704A8ED
S31508001A1020F095FF054650B10023A37563754FF076
S31508001A20FF33A3600025284609B0BDE8F08F05A856
S31508001A3020F092FF0123A375237E04EBC303DF6125
S31508001A401D846368BB420ED1206005A820F0A5FF5F
S31508001A504FF0FF332075A360237D043B022B26D865
S31508001A600023A375DEE723681A1A53425341A37568
S31508001A7005A820F092FF237D834218BFA57505A807
S31508001A8020F06EFF804604A820F06AFF804518BF44
S31508001A90002305A818BFA37520F069FF804604A88F
S31508001AA020F065FF80451CBF0023A375D4E705A871
S31508001AB020F056FF80B1F36B022238465B6906A90F
S31508001AC0984706A820F05AFF0346207D032839D8F0
S31508001AD0DFE800F03838040905A8F3E7CC22237EAE
S31508001AE004EBC3031A8401F0ADFA129B187005A81B
S31508001AF094F8188020F028FF04EBC80888F822001C
S31508001B00237E05A804EBC303B3F820A093F822802C
S31508001B1020F026FF814605A820F029FF8346B9F163
S31508001B20000F14D0F36B022238465B6906A9984762
S31508001B3006A820F0E9FE607568B90023A3754FF082
S31508001B4000093CE0227E04EBC2021384CBE705A819
S31508001B5020F0C5FEEFE794F81690B9F1000FEED025
S31508001B60BAF1000F0DD1B8F1000F1DD00123E375AE
S31508001B70637E002B3FD1B8F1010F30D184F819806C
S31508001B8014E0736C07EB0B015A4287EA0100104216
S31508001B901CBF0022A2755A1E0A409B1A9A45CCD829
S31508001BA0A37D002BDFD1CAE7E37D43B94FF00009D7
S31508001BB053465A463946304620F008FCA060A37DB5
S31508001BC013B12269524422611F49227E0978914243
S31508001BD01AD901322276039ACAB91D4623E796F81E
S31508001BE034307BB9F36A0133E2D1B8F1030FDFD1A0
S31508001BF00123A376DAE7B8F1010FE0D0B8F1030FB5
S31508001C00D4D1F5E79946D3E70023A3750BE7002B54
S31508001C103FF409AFE57D002DDFD0B9F1000F11D1F2
S31508001C20B8F1030F3FF4FFAEA1684B1C3FF4FBAEBF
S31508001C30129B2246009330460123FFF7D5FE054640
S31508001C40A075F0E64D46EEE6B81C03082DE9F04F00
S31508001C500E46984600238BB004464FF0FF311046D7
S31508001C6017468DF8133001F0D7F9B6F5801F20D244
S31508001C70314605AA04F1080020F0AFFD451C0146CF
S31508001C8003D1237CBBB92D2010E0384601F0C4F9F6
S31508001C900122394620460DF1130320F0E9FB0028FE
S31508001CA0EFD09DF8133088F8003000200BB0BDE85F
S31508001CB0F08FB01CE5D1E56A691C36D12046616A09
S31508001CC020F0CAFA0546B31C18BF0123DFF8CC90EA
S31508001CD00193636A626C0293236805A902FB053ABD
S31508001CE0E36B05225B695046984705A820F0C1FEBC
S31508001CF020F0E4FE504620F0ECFE4FF0000B824642
S31508001D0001464B1C05D0636C81EA0A025B4213420A
S31508001D1011D02946204620F09FFA029BAB422CD0D0
S31508001D20BBF1000F2CD10546D3E72368ED1A636C87
S31508001D30B5FBF3F5C7E7484601F06EF90DF1130355
S31508001D4049462046019A20F093FB034690B1B21CFF
S31508001D5003D0D9F80020B2420CD19DF81320039382
S31508001D600D4B88F8002049461A68384622F095FC3B
S31508001D70039B9B46D9F80810C3E7BBF1000F82D036
S31508001D80B6F5801F91D2314698F800307A6804F18A
S31508001D90080001F06FF888E7B41C03080416002051
S31508001DA02DE9F3410446174698460E46184D816AB2
S31508001DB0E36A8B4201D04B1C02D102B0BDE8F08128
S31508001DC0284601F029F90122294620460DF1070384
S31508001DD020F04EFB38B14346294620469DF8072099
S31508001DE0B8470028E9D0A9684A1C04D16968204682
S31508001DF020F0BFFA0146012EDAD16B6881EA0302A8
S31508001E00636C5B421A4218BF4FF0FF31D0E700BF40
S31508001E10D81500202DE9F0474FF0FF334FF6FF7233
S31508001E200025044600F108078AB0C0E90923C36201
S31508001E30056205633846884620F0A0FC204620F057
S31508001E408BF960BB2046414620F056FA204620F022
S31508001E5083F960BB5E200AB0BDE8F0872368E26BB1
S31508001E60606C566900FB0530052205A9B04705A830
S31508001E7020F0FFFD012806460CD12946204620F011
S31508001E800CFA012E024600D101322946204620F0DE
S31508001E9082F903E020F017FE0028EED10135E36948
S31508001EA09D42DBD3204620F057F90028CAD02046A9
S31508001EB020F082F94FF6FF72636A934200F0A6801B
S31508001EC0E26B666C2068694606FB030055690522C5
S31508001ED0A847684620F0A4FD626A2368606C4C4DEA
S31508001EE000FB023020F0F5FD4FF0FF33A062E362FD
S31508001EF02A466FF00101204605ABFFF7A7FE00282A
S31508001F0046D1AD6829462046E56220F001F92063EE
S31508001F1020B92046E16A20F02CFAE06229462046DC
S31508001F2020F027FA0546A36A9D4233D1204620F0C1
S31508001F30ADF800268046B146E36999453CD3B045DD
S31508001F4059D92046616A20F087F90027054604F129
S31508001F50400AB74212D3626C2368694602FB053908
S31508001F60E36B05225B6948469847684620F058FDAA
S31508001F70534602464946E06B20F0ADFD2946204609
S31508001F8020F06AF90137B8450546E2D1642062E7D0
S31508001F90A56AB7E72946204620F0BAF8236B2946F2
S31508001FA0034406462363204620F0E3F90546002E3F
S31508001FB0B9D1C4E90B06B6E7636C2568052203FBAD
S31508001FC00955E36B05A95B692846984705A820F0DB
S31508001FD050FD20F073FD58B1284620F07AFD0146E1
S31508001FE0204620F095F8636C143B984208BF0136EA
S31508001FF009F10109A0E7384620F0C0FB0023204676
S315080020001946044AFFF7CCFE002024E7672022E79A
S31508002010301600205F2402082DE9F041036B904634
S31508002020826B90B09A4288BF8363426C436A0768A2
S315080020300E4602FB0377C36B01A905225B690446BA
S315080020403846984701A820F014FD0128014630704B
S3150800205057D0656CE26B2368606AD2F814C005FB3A
S315080020600030052206A9E04706A820F002FD01284F
S315080020704FF0000523D0D4E90A3201219342CDE975
S315080020800B458DF834800E958DF83C102AD11946EB
S31508002090204620F06EF9236B626C14339B1AE062BB
S315080020A023630C9B53B99DF83C303BB1626A616C63
S315080020B02368E06B01FB023120F093FC0C9DE36B77
S315080020C005225B6901A93846984701A820F0D1FC8A
S315080020D030702846236BA26B9A4288BFA36310B060
S315080020E0BDE8F081237C33B91C490BAA04F108002A
S315080020F000F00EFFD5E72046194A0BABFFF750FE56
S31508002100CFE7237C23BB2246164904F1080000F0DA
S31508002110FFFE616A204620F0C0F8616A421C20462C
S3150800212020F039F8054620B9236B626C1344143B3A
S3150800213023632046A16A20F01CF92368A062C01A0E
S31508002140636CB0FBF3F06062204620F055F9B6E701
S3150800215000232046044AFFF723FEDAE78D28000805
S3150800216009280008F92402089524020873B50D46C3
S31508002170D11E4A421C461B7E4A419A4226D12968EC
S315080021802368994222D3636899421FD8114E0DF1EC
S3150800219007033246FFF75AFDC0B972686B689A4260
S315080021A014D19DF80730DA1E53425341227E9342DA
S315080021B00CD1636901336361D4E90323934205D2E1
S315080021C02968A26842F8231001332361012002B06E
S315080021D070BD00BF301600202DE9F04F9A468BB02F
S315080021E09DF85030DFF850B10293DBF81030804686
S315080021F053450D461646C0F09880D146DBF80430A4
S315080022000193B9F1000F00F08C80D8F83C30012218
S315080022105B6907A90198984707A820F09DFBDBF89A
S315080022200030984240F0848007A820F0A0FB0428DC
S31508002230074614D107A820F0A1FB019B029A044681
S315080022403B44002A3ED1864212D91446361A4046E5
S31508002250019920F08EF8A9EB04090190D1E7D8F886
S315080022603C3002225B69019808A9984708A8E2E76A
S31508002270841B544528BF5446032C03EB0607AAEBD8
S31508002280040A1DD9D8F83C30294638465B69A208A5
S31508002290984724F0030304F003061F441D44002E48
S315080022A0D5D0D8F83C3001225B6908A9384698474A
S315080022B03246284608A9354422F0EFF90026C6E733
S315080022C02646ECE7074600F00302039203442A1861
S315080022D004920593049BDD1B059BD81B039B9F4219
S315080022E00FD1002FB3D0D8F83C30012208A95B697A
S315080022F098473A46284608A922F09EF978B93D44F7
S31508002300A5E7D8F83C30012208A95B69984704225A
S31508002310284608A922F090F908B9043FDAE74FF0F1
S31508002320360948460BB0BDE8F08F4FF06309F8E769
S315080023304FF06F09F5E700BF5C1600202DE9F04164
S315080023400F4616469846044688B060B390F834504F
S31508002350FDB101211FF0F5FE00210E9BCDE9051107
S31508002360CDE902379DF83C30CDF804808DF81C3055
S31508002370237C04968BB90D4901AA04F1080000F0E4
S31508002380C7FDDDE90553E06B002E08BF1D4620F0AA
S31508002390C1F8284608B0BDE8F0812046044A01ABDA
S315080023A0FFF7FEFCEDE70546F3E700BFC324020886
S315080023B06D2100082DE9F04F99B0CDE90B230E46A3
S315080023C00A69416CD31D1439B3FBF1F3013302EBEF
S315080023D0C302036B04469342C0F00F820023DFF862
S315080023E020940993E36A48461946079300F014FEB9
S315080023F0D6E9033705930C9B022B1CD1CC2F40F052
S3150800240074810B9B8BB13146204620F0E1F8656C50
S3150800241014900B9B63B1E36B01225B69706816A984
S31508002420984716A820F09CFA0CE0059B1B681493A5
S3150800243008230E930DE0782F656CEAD80B9B002BCA
S31508002440E9D1F07D00280CBF04230823782F0E93CA
S3150800245028D901230025089308230393336808998C
S315080024600C98C9F80030C9F8107020F09AFA0023C1
S315080024700F930D9306930A93039BDDF81CA09B0804
S3150800248089F814001193616C03984A1E0AEA02023D
S315080024908B1AEFB10544AB421CD8236B5B1A134465
S315080024A0236386E0079A6B1E1340EB1A3A1D934284
S315080024B007D257B1082BCCD80023042508930395D7
S315080024C0CCE7002504230895C7E704250897F6E70F
S315080024D08342E2D3039AB8469B1A9F4228BF98467E
S315080024E052449F42049278D90123D9F8102089F8DA
S315080024F01730974276D1C9F804A0069399F8173091
S31508002500002B71D099F818200699D31C09EBC30340
S315080025100132C3F804A0A3F80880997289F8182034
S31508002520B8F1000F14D00C9B022B60D10F9B7BB91E
S315080025300D9B4344032B0BD9E36B01229B6904983B
S3150800254014A998470546002840F0D58001230F9323
S31508002550069B16A80193089B009399F814204346F6
S31508002560316800F00FFDE36B50469B69119A16A976
S315080025709847051E099B18BF5346039A0993514667
S31508002580434620461FF022FF236B039AC9F808002A
S315080025909B1A08F1030222F003029B1A2363002DFB
S315080025A040F0A9800D9BDDF810A04344A7EB08076F
S315080025B00D93514620461FF0DCFE00258246002F6B
S315080025C07FF461AF8E4A3168936804F10800E362CC
S315080025D052680C9B00F04EFC89E0069B002B18BF46
S315080025E003238AE7022388E7C9F804A098E70B9B28
S315080025F0002B30D1059BB8F1030F03EB080B27D945
S31508002600DDE90401E36B4FEA98029B6998470546A2
S31508002610002864D118F003025ED0059B28F0030554
S315080026202B440593049B1D444FF0FF33059915A8C9
S31508002630159322F032F8E36B284601229B6915A907
S3150800264098470546CDF814B0002D81D0049B94E731
S315080026504246049DE8E706F12003DDF810B0109322
S31508002660F37D70689BB10023357E0A9AD9B2A942D8
S3150800267011D2109903F1010C31F83310914225D982
S315080026800E9906EBC303D8690A44104403E00E9B6F
S315080026900A9A13441844E36B01225B6915A9984703
S315080026A0159B012213930A9B584604330A93E36B3E
S315080026B013A99B699847049B05464344A3EB0B0360
S315080026C0042B06D970B90BF1040BC9E76346521AF5
S315080026D0CCE7CDF810B0B7E7CDF814B038E7CDF8A9
S315080026E014B0B3E7CDF810B0B0E770252F463846DA
S315080026F019B0BDE8F08F3D2DF8D104F10803039316
S315080027002368079A606CD71AB7FBF0F700FB073007
S3150800271020F0DFF9E16A824620461FF02AFEA16A08
S31508002720D4F830E08142626C59D0D9F8083002F109
S31508002730FF3CAEEB020103EA0C030B442363099941
S315080027402368E062CB1AB3FBF2F847453BD1079BF7
S31508002750B3EB0A0711D0E36BBA0851469B69984751
S315080027608346E36A079A3B44E362236B03989B1A02
S315080027705344236320F002F85F462368616CE06BDC
S3150800278001FB083120F01AF920461FF0E5FC204627
S315080027901FF012FD626A2368606C00FB023020F0AD
S315080027A098F9A06220461FF027FE20636FB13269B0
S315080027B0616CD31D1439B3FBF1F3013302EBC30289
S315080027C090429DD292E70027D7E704F108001FF050
S315080027D0D5FF3B46394620460A4AFFF7E1FA3269F1
S315080027E0616CD31D1439B3FBF1F3013302EBC30259
S315080027F0236B9342BFF4F6AD78E71C2777E700BF53
S31508002800041600205F240208032A2DE9F341064630
S315080028100D4617461C4606D1237A012B23D00120E4
S3150800282002B0BDE8F081DFF86080096842460DF124
S315080028300703FFF70BFA60600028EDD19DF8073013
S31508002840032BE9D0D8F804206B689A42E4D1237A9E
S315080028502969012BD4F80CC007D172690CEB010366
S31508002860934202D92074207CDAE708316144E1609A
S315080028703B46012229463046FFF79CFD606000284A
S31508002880CAD00020CCE700BF301600202DE9F3415E
S31508002890032A1746089C06D1237A012B25D0012046
S315080028A002B0BDE8F0812668DFF8908030464246DF
S315080028B00DF10703FFF7CAF960600028ECD1256817
S315080028C0D8F80400A96A6A6C4840534210EA030C17
S315080028D0E2D1237A012B0AD1E068D8F810300344F4
S315080028E07069834203D984F810C0207CD8E7286829
S315080028F0EB6A1B1A081AB3FBF2F3B0FBF2F0834239
S315080029000BD1706CF36A421E1340326B121A1344D1
S31508002910284633631FF02DFDE862D8F81020E368D7
S3150800292008321344E36001223B4604492068FFF756
S3150800293041FD60600028AFD00020B1E730160020C6
S315080029402DE9F0410025604B0E46D3F80080044679
S315080029501D6018B921252846BDE8F08190F8347025
S3150800296007B30A6803689A4240F0A4804A68436835
S315080029709A4240F09F808A6883689A4240F09A801B
S31508002980CA68C3689A4240F095800A6943699A42C0
S3150800299040F090808A69C36B9A4240F08B804B69FD
S315080029A08361D8E768223946856B21F06EFED6E941
S315080029B00212336804F1080023607368A563636034
S315080029C0336963617369A3611FF0EAFEB36904F1B1
S315080029D04000E3639B68984720B9676C17B1636842
S315080029E0B3FBF7F794F84330E761002BB2D0002326
S315080029F0656C2366002D65D0002F63D02368B3FB72
S31508002A00F5F205FB1233002B56D16668B6FBF5F3D3
S31508002A1005FB1363002B4FD120461FF069FBA36902
S31508002A20043303449E4249D340F634726369CC3B6F
S31508002A30934245D8B5F5805F44D3032120461FF05D
S31508002A4080FBD4E90001E36B1B6898470546E36BF6
S31508002A500220DB689847D5B941462046FFF7DAF9E0
S31508002A606428054604D141462046FFF7D3F90546B2
S31508002A706DB9636C226A143B204602FB03F61FF00D
S31508002A8037FBA369043303449E4238BF5A25002DF9
S31508002A900CBF0123002384F8343007D1D4E90001A0
S31508002AA00A4A1368013313601FF014FFE06B1FF026
S31508002AB031FD50E75D254EE759254CE75A254AE78B
S31508002AC05F2548E75B2546E7940F0020900F002016
S31508002AD02DE9FF410C4616461F46054688B390F871
S31508002AE0343083B3B1F5801F2FD2DFF8648001211B
S31508002AF01FF027FB4246214628460DF10F03FFF734
S31508002B00A5F80246C8B99DF80F30012B10D1D8F8A0
S31508002B101030BB4213D1009031462846FFF75CFBC4
S31508002B200446E86B1FF0F6FC204604B0BDE8F081C9
S31508002B30022B0CBF60242D24F3E72D24F1E7632430
S31508002B40EFE72124F0E71124EEE72924ECE700BF9C
S31508002B505C1600202DE9F04385B00E4617461C4644
S31508002B600546DDF83080A0B390F834309BB3B1F554
S31508002B70801F32D2DFF8689001211FF0E2FA4A4638
S31508002B80314628460DF10F03FFF760F8E8B99DF8BE
S31508002B900F30012B14D1D9F8102004EB08039A4200
S31508002BA015D322460090434639462846FFF714FBBC
S31508002BB00446E86B1FF0AEFC204605B0BDE8F0837E
S31508002BC0022B0CBF60242D24F3E72D24F1E76324A0
S31508002BD0EFE72124F0E71124EEE72924ECE700BF0C
S31508002BE05C1600202DE9F3411E4600230C461746C5
S31508002BF00546336050B390F834304BB3B1F5801FB7
S31508002C0028D2DFF8548001211FF09BFA214642465C
S31508002C1028460DF10703FFF719F80446A0B99DF8F1
S31508002C200730032B10D0022B03BF01233B6004237C
S31508002C30D8F8103018BF38603360E86B1FF06AFCAC
S31508002C40204602B0BDE8F0812D24F6E72124F7E7F7
S31508002C501124F5E72924F3E75C16002073B504462A
S31508002C6041691FF02AFA626E236B024493422CBF15
S31508002C7000220122834294BF00231B1A207C84F879
S31508002C805020636584F85800A8B100230B4E1A46F5
S31508002C901946204600961FF05FFD002305461A4692
S31508002CA01946204600961FF060FDE36828449842BE
S31508002CB094BF0020C01AE06502B070BDFFFF0F0088
S31508002CC02DE9F3471E4643690446B342884617462C
S31508002CD09DF828904FD300258DF807502046616946
S31508002CE01FF0EBF9D4F830A082450AD2236AB5EB77
S31508002CF0430F06D2002220460DF10701FFF78CF993
S31508002D00B8B39DF80730012B05D1002220460DF1F6
S31508002D100701FFF781F9B9F1030F06D031462046BE
S31508002D201FF0CBF9256B854227D3154D4FF0FF31A0
S31508002D30284600F071F94B46294600222046C5E987
S31508002D400376C5F80080FFF735FB236E054663B1A9
S31508002D502046FFF783FF94F8503013B994F858309B
S31508002D601BB1236E04F150009847284602B0BDE80F
S31508002D70F0870135B2E76225F7E71C25F5E700BFBE
S31508002D80301600202DE9FF410F4690461E4605469F
S31508002D9098B390F8343093B3B1F5801F31D21A4CFA
S31508002DA002211FF0CEF92246394628460DF10F03B7
S31508002DB0FEF74CFF024678B1012342460093394696
S31508002DC033462846FFF77CFF0446E86B1FF0A2FB54
S31508002DD0204604B0BDE8F0819DF80F30012BEBD1F9
S31508002DE02169B142E8D10093414633462846FFF7A8
S31508002DF0F3F904460028DFD1E7E72124E8E71124A0
S31508002E00E6E72924E4E700BF5C16002030B50C4647
S31508002E10054685B028B390F8343023B3B1F5801F42
S31508002E2023D202211FF08DF90DF10F032146284602
S31508002E300F4AFEF70BFF034688B99DF80F20032AB1
S31508002E400DD003222146009202462846FFF738FF96
S31508002E500446E86B1FF05EFB204605B030BD2D2406
S31508002E60F7E72124F8E71124F6E72924F4E700BF59
S31508002E705C1600202DE9F043466886B30568984637
S31508002E804FF0000CA946AE4655F83C400CF1010C33
S31508002E90C4F31307013401D0B94217D0B4450EF173
S31508002EA0080EF1D12F46002403E0B44207F10807C3
S31508002EB012D055F8343001340133F6D1C1F3130179
S31508002EC041EA0851C7E90012BDE8F08341EA085112
S31508002ED0CEE90012BDE8F083B8F1030F03D1012350
S31508002EE00372BDE8F083002303E0B34209F1080941
S31508002EF0F5D055F833400133C4F30754032CF4D105
S31508002F00C1F3130343EA0853C9E90032BDE8F08365
S31508002F102DE9F0410646406882B0B8B10F469046A2
S31508002F200024336853F8345003EBC403C5F307523F
S31508002F30C5F31301013506D05B683046CDF800802D
S31508002F40B84718B1706801348442EAD302B0BDE8C4
S31508002F50F08100BF024B1968024B1868FFF7F0BCF6
S31508002F60D07D0620F07D062008B52EF092F9014B9B
S31508002F70186008BD88160020014B18682EF084B921
S31508002F808816002073B504462248012A00EAC111B2
S31508002F909DF8185023F07C4007D9961E012E28D993
S31508002FA0073303F07F03194308E09DF81C300A43F2
S31508002FB0DB0603F0C053134343F060410023C4E922
S31508002FC000108DF80730B5B1202221460DF1070013
S31508002FD01FF09BFD1A220DF10700211D1FF095FD1C
S31508002FE0082063689DF8072043EA8263636002B09D
S31508002FF070BD1143E2E71B220DF1070021461FF0C1
S3150800300084FD23689DF80720042043EAC2632360F1
S31508003010EDE700BF80FFFF0738B5094B0D461A6874
S315080030200021044621F031FB00234FF0FF322383B1
S31508003030C4E900252361A260E382A37638BD00BFF8
S31508003040B41C03080138C0B205289ABF014B185CA6
S3150800305001207047B91C03082DE9F04107461546BB
S3150800306000240E46596888B0490A012922464FEAC3
S31508003070510104F10104F8D8DC78997824031B88F7
S31508003080C90201F4006104F480540C43C3F30A0333
S315080030905203234492B24FF000089C18274B6FEA5C
S315080030A00444039325F07843ED4302A90DF1070084
S315080030B01B2202938DF807801FF027FD9DF8072035
S315080030C0029B02A943EAC2630DF107001B2225F001
S315080030D07845049302958DF807801FF016FD9DF834
S315080030E00720029B6FEA144443EAC26305934FF034
S315080030F0FF330794069307A9BB69012206F110005E
S315080031009847BB6905A90446012206F108009847B5
S31508003110BB69404518BF044604A90122301D9847DB
S315080031200122404518BF0446BB69304603A99847A3
S31508003130404508BF204608B0BDE8F08101009AB2B4
S315080031407FB500210546084604F0FEFE00200DF175
S315080031500E0104F075FF064658B90DF10F0104F08B
S315080031606FFF9DF80E20044638B11146304604F02C
S315080031708DFF0F4C204604B070BD05F124060346AA
S3150800318000900C493046FEF7C3FA696D304605F1E2
S315080031903C06FEF79FFA3046074B9DF80F20054977
S315080031A00095FEF7B5FA3046A96DFEF793FAE1E702
S315080031B0092000F0DC1F03087B2B020801292DE9F2
S315080031C0F84304D90239012948D9BDE8F883474BA1
S315080031D0474D1C68474E484FA83C14F1A80FF4D039
S315080031E0D4F80080454B98450AD0454B984509D0F8
S315080031F003F58043984505D003F58043984501D0EB
S31508003200237F03BB052140461FF091FD3B4B9845A4
S315080032101DD03B4B98451CD003F5804398451AD0E2
S31508003220384AA3F5A723A3F54373904514BFB946B7
S3150800323099462EF02EF8D9F8003043F01803C9F84D
S3150800324000302EF021F8D4F8A840A83CC5E7A946D6
S31508003250EFE7B146EDE7DFF8B090EAE7234B244DF8
S315080032601C68244E244FA83C14F1A80FADD0D4F8FE
S315080032700080224B98450AD0214B984509D003F582
S315080032808043984505D003F58043984501D0237FB0
S3150800329003BB002140461FF04AFD184B98451DD038
S315080032A0174B98451CD003F5804398451AD0154A04
S315080032B0A3F5A723A3F54373904514BFB9469946CA
S315080032C02DF0E7FFD9F8003023F01803C9F80030CD
S315080032D02DF0DAFFD4F8A840A83CC5E7A946EFE7E1
S315080032E0B146EDE7DFF82090EAE700BF8C1600202C
S315080032F094C40350B4C4035074C403500000015B63
S3150800330000C0085000400950D4C403502DE9F041CC
S315080033100B68A54A054693420C468EB00BD0A34AC5
S31508003320934208D002F58042934204D002F58042C7
S31508003330934240F0F1809E4F2DF0B4FF3B68A83BC6
S3150800334013F1A80F16D19B4E2DF0A7FF0FCE0DF146
S31508003350180CACE80F0096E80F0010368CE80F0042
S315080033600FCE0DF1040CACE80F0006AB05936DB952
S31508003370914C04E09D4206D12DF08FFF8F4C2046DC
S315080033800EB0BDE8F081D3F8A830D8E7AC2200210A
S31508003390284621F07AF92368834A93420CD0834A57
S315080033A093422BD002F5804293422CD002F58042FC
S315080033B093422DD0824CE2E7002682488249834A0E
S315080033C02B600123A64685F8843005F1040CC5E96F
S315080033D01512A867BEE80F00ACE80F009EE80F00BC
S315080033E08CE80F00637E012B08BF8DF81D30A37E85
S315080033F0032BDFD8DFE803F014118688012674480A
S315080034007449754ADCE7022674487549754AD7E750
S31508003410032675487549764AD2E704238DF8123093
S31508003420227EE368012A4FF000026FD171498DF8B8
S3150800343011208B429CBF05238DF835306E4B6F48A3
S3150800344003932EF019F9AB6F98682EF015F92369D6
S31508003450DA1F092AAED8063B8DF81030237E2BB921
S31508003460E37EB3FA83F35B098DF81C300121284605
S315080034701FF0A4FB01A9206801F028FF237A22790E
S31508003480760142EA034206F1A04303F57033C3F816
S31508003490AC24617A627942EA0142C3F8A424A17A8B
S315080034A0A27942EA0142C3F8A8241C22C3F894244C
S315080034B0E27E4AB9E17AE27942EA0142C3F89824FF
S315080034C0012141F2944299502DF0ECFE4C4B1A78AA
S315080034D0FAB901221A702DF0E0FE05F0A5FA284681
S315080034E0FFF72EFE0446002840F022813B681BB9F0
S315080034F04449454805F036F92D4805F1A8011EF05E
S315080035000DFD3CE7022389E7062387E78DF834207B
S3150800351095E72DF0C2FEE2E73C4F06AE0FCF0FC689
S3150800352097E8070086E80700002D3FF421AFAC2294
S315080035300021284621F0A9F82368354A93420ED07F
S3150800354002F58042934229D002F5804293427FF4E5
S3150800355031AF4FF002082F482F49304A04E04FF0A8
S3150800356000082F482F49304A2E462746C5E9151226
S31508003570A86746F8043B0FCF0FC697E80F0086E802
S315080035800F00637E012B08BF8DF82630A37E032B20
S315080035903FF610AFDFE803F05450B4B74FF0010818
S315080035A022482349234ADFE70000015B00C0085090
S315080035B08C160020C01C0308012000F00A2000F029
S315080035C0022000F0B0200308182103081C21030874
S315080035D09C200308102103081421030888200308E7
S315080035E0082103080C210308742003080021030896
S315080035F0042103083F4B4C0040420F00C81F030834
S31508003600AB780620F47D062090160020F41C0308EB
S3150800361000000A50F41F0308CC200308D42003082E
S3150800362034200308F4200308FC20030814200308A8
S31508003630E0200308E82003084FF40073ADF82830AB
S31508003640237E3C48012B03BF00238DF825304FF419
S31508003650E133E36808932EF00FF8AB6F98682EF005
S315080036600BF823691A1F0C2A3FF6A4AE033B206801
S3150800367006A98DF824301FF088FCA3696FF3172379
S315080036802BB94FF480322B6803F580539A60237A5E
S315080036902679607946EA0346637AA17940EA0340C7
S315080036A0E77EA37A244A41EA03414FEA48136FBBEF
S315080036B01A44C2F83868C2F83008C2F83418E17AF1
S315080036C0E27903F1A04342EA014203F57033C3F8F5
S315080036D024281D22C3F82028012128461FF06EFA47
S315080036E02DF0E0FD154B1A78FAB901221A702DF063
S315080036F0D4FD05F099F92846FFF722FD04463EE673
S315080037004FF480739AE74FF4407397E71344C3F86E
S315080037103868C3F83008C3F834181C2308F1410880
S315080037204FEA481842F80830D6E72DF0B6FDE2E72A
S31508003730034C24E6C81F030800C00350AB780620D4
S31508003740092000F0044BD3F88420D206FBD4D3F822
S315080037508400C0F3811070470040005038B5174BFD
S315080037600546D3F828310C4603F00703013B052B21
S3150800377020D8DFE803F003131B0F0B172CF048FBC8
S31508003780052305B1286004B1236038BD2CF040FB41
S315080037900623F6E72CF086FB0723F2E72CF078FBE6
S315080037A00323EEE72CF074FB0423EAE72CF06CFB0A
S315080037B00223E6E700231846E3E700BF008000502F
S315080037C0002337B50193164B0546D3F820320C462D
S315080037D003F00703042B21D8DFE803F0030B1116C7
S315080037E01B0001230DB1019A2A6004B1236003B0BE
S315080037F030BD002101A8FFF7B1FF1223F2E72CF034
S3150800380051FB07230190EDE72DF052FD0A230190A5
S31508003810E8E72CF09BFB09230190E3E70023E1E7A7
S315080038200080005038B5104B0546D3F850320C4688
S3150800383003F00303022B12D0032B08D0012B0AD066
S315080038400023184605B1286004B1236038BD2DF061
S3150800385032FD0C23F6E72DF02BFD0A23F2E72CF0B8
S3150800386075FB0923EEE700BF0080005038B5104B02
S315080038700546D3F880300C4603F00303022B0BD021
S31508003880032B0DD0012B0FD12CF0C8FA0E2305B14E
S31508003890286004B1236038BD2CF004FB0723F6E743
S315080038A02CF0B6FA0623F2E700231846EFE700BF26
S315080038B00080005038B5104B0546D3F800310C4649
S315080038C003F00303022B0BD0032B0DD0012B0FD1D2
S315080038D02CF0DEFA032305B1286004B1236038BD55
S315080038E02CF034FB0923F6E72CF0D8FA0823F2E784
S315080038F001230020EFE700BF0080005038B5184BC1
S315080039000546D3F820010C4600F00700062823D800
S31508003910DFE800F0040A0E16121A1E00012305B18C
S31508003920286004B1236038BD2CF072FA0523F6E747
S315080039302CF0AEFA0323F2E72CF0B4FA0723EEE7ED
S315080039402CF0A2FA0223EAE72CF062FA0623E6E74D
S315080039502CF09EFA0423E2E700231846DFE700BFAF
S315080039600080005038B5104B0546D3F840310C4658
S3150800397003F00303022B0BD0032B0DD0012B0FD121
S315080039802DF096FC0A2305B1286004B1236038BDE2
S315080039902CF0DCFA0923F6E72DF08DFC0C23F2E770
S315080039A001230020EFE700BF00800050002337B551
S315080039B00193164B0546D3F860320C4603F007030D
S315080039C0013B032B1FD8DFE803F0020E1914002170
S315080039D001A8FFF793FF10230DB1019A2A6004B1DD
S315080039E0236003B030BD002101A8FFF7BBFF1123F8
S315080039F0F2E72CF057FA07230190EDE72CF044FA8A
S31508003A0002230190E8E70023E6E700BF00800050A4
S31508003A10002337B50193164B0546D3F894320C4666
S31508003A2003F00703013B032B1FD8DFE803F0020E60
S31508003A301914002101A8FFF761FF10230DB1019A9F
S31508003A402A6004B1236003B030BD002101A8FFF746
S31508003A5089FF1123F2E72CF025FA07230190EDE7F9
S31508003A602CF012FA02230190E8E70023E6E700BFEC
S31508003A700080005038B5104B0546D3F860310C4627
S31508003A8003F00303022B0BD0032B0DD0012B0FD110
S31508003A902DF00EFC0A2305B1286004B1236038BD59
S31508003AA02CF054FA0923F6E72DF005FC0C23F2E76F
S31508003AB001230020EFE700BF008000502E4B9842FC
S31508003AC04AD022D82D4B984240D014D82C4B984235
S31508003AD039D00AD82B4B984232D02B4B98422FD04C
S31508003AE02A4B98422CD000207047294B9842FAD18D
S31508003AF0284B186F7047284B98422AD0274B984274
S31508003B00F1D1244BD3F880007047254B98422BD02F
S31508003B1009D8244B984223D0234B9842E3D11D4B16
S31508003B20D3F88C007047214B984221D003F57403D3
S31508003B3003F510539842D6D1164BD3F89800704720
S31508003B40144B986D7047134B586E7047114B586F4E
S31508003B507047104B986F70470E4BD3F88400704728
S31508003B600C4BD3F8880070470A4BD3F8900070477F
S31508003B70084BD3F8940070470048E8010024F40085
S31508003B80C0CF6A0080841E0000093D0040420F0035
S31508003B90405DC6000080E00FC0EA210180BA8C01B2
S31508003BA0007E560380D54302006CDC020090D003E9
S31508003BB073B50D460021114B0191D3F88041064695
S31508003BC004F00304022C13D0032C0CD0012C13D1BF
S31508003BD001A8FFF793FE10240EB1019B336005B1CF
S31508003BE02C6002B070BD2CF05DF907240190F3E754
S31508003BF02CF04AF90190EFE70C46EDE700800050FB
S31508003C0038B5104B0546D3F840320C4603F003038B
S31508003C10022B0BD0032B0DD0012B0FD12DF048FB17
S31508003C200A2305B1286004B1236038BD2CF08EF94B
S31508003C300923F6E72DF03FFB0C23F2E701230020CA
S31508003C40EFE700BF0080005038B5144B0546D3F89F
S31508003C5000020C4600F0070004281BD8DFE800F035
S31508003C6003090D111500012305B1286004B123606D
S31508003C7038BD2DF01DFB0A23F6E72CF067F909235A
S31508003C80F2E72DF018FB0C23EEE72CF0E7F80F23EC
S31508003C90800AE9E700231846E6E700BF00800050DF
S31508003CA038B5144B0546D3F808020C4600F0070051
S31508003CB004281BD8DFE800F003090D1115000123BD
S31508003CC005B1286004B1236038BD2DF0F1FA0A2346
S31508003CD0F6E72CF03BF90923F2E72DF0ECFA0C2372
S31508003CE0EEE72CF0BBF80F23800AE9E70023184615
S31508003CF0E6E700BF00800050B0F5207F1FD009D846
S31508003D00B0F5007F15D003D868B1B0F5C07F0AD0EA
S31508003D1000200CE0B0F5607FFAD10B4BD3F8800099
S31508003D20C0F3011003E0084B186FC0F303300130ED
S31508003D307047054BD3F89000C0F30460F7E7024BD1
S31508003D40186FC0F38020F2E70080005002464FF457
S31508003D508030104B10B598660020FFF7CDFF504312
S31508003D6041F671320C4BDC69DA635A6804F4803424
S31508003D7022F4401259B90949884294BF002001200B
S31508003D80000502435A600CB10022DA6310BD0449EB
S31508003D90F2E700BF0090005000000350005A62028C
S31508003DA0002D31014209531E022B96BF074B0023F3
S31508003DB003EB820300F01F0029B103F580530122AB
S31508003DC082401A60704703F50053F8E76080005098
S31508003DD01FB50021B0F5807F0446CDE9001100F03B
S31508003DE0CF803BD8002800F0A480A0F12004602CE6
S31508003DF044D8602C42D8DFE804F09CA49CA4B4B450
S31508003E00B4B4B4A4BE4AD46A4AA4A4A44141414164
S31508003E1041414141A4A4A47CDEA441414141414120
S31508003E20414141414141E3B49C9C9CD94A4A88E8B6
S31508003E305FB94141414141939C41B4B4B4B4B4B96A
S31508003E40B9A441A4A44141414141414141414141B3
S31508003E50414141414141414141419800B0F5E06F3E
S31508003E6000F0A98038D8B0F5607F75D01AD8B0F5BB
S31508003E70007F61D005D8B0F5C07F5AD0009804B04D
S31508003E8010BDB0F5207F5CD0B0F5407FF6D12BF0A1
S31508003E90E5FF02464FF42070FFF72EFFB2FBF0F263
S31508003EA0520857E0B0F5B06F65D00AD8B0F5806F04
S31508003EB057D0B0F5A06FE1D100216846FFF780FC26
S31508003EC0DCE7B0F5C06F6CD0B0F5D06FD6D1002165
S31508003ED06846FFF7B9FED1E7B0F5186F70D00DD870
S31508003EE0B0F5086F7FD0B0F5106F5FD0B0F5F06F02
S31508003EF0C4D100216846FFF7BDFDBFE7B0F5286FBE
S31508003F0063D007D8B0F5206FB8D100216846FFF70F
S31508003F104DFDB3E7B0F5406F28D0B0F5486FADD189
S31508003F2000216846FFF774FDA8E72BF077FF00909D
S31508003F30A4E72BF093FFFAE72BF070FF0246204622
S31508003F4004E02BF08BFF02464FF42070FFF7D4FEF7
S31508003F50B2FBF0F2009291E701A8FFF787FC019AFD
S31508003F60EDE700216846FFF7C9FC87E700216846A8
S31508003F70FFF7F4FB82E700216846FFF719FE7DE7A5
S31508003F804FF0E02302911B695B0705D52BF066FF0E
S31508003F900290029B009371E703A902A8FFF7E2FCCF
S31508003FA0F7E700216846FFF7DDFC67E7002168466A
S31508003FB0FFF776FE62E700216846FFF721FE5DE718
S31508003FC000216846FFF72EFC58E70021084B0391AD
S31508003FD0D3F8703203F00303012B02D103A8FFF7CD
S31508003FE0C1FC039BD6E76846FFF764FC46E700BFBB
S31508003FF00080005008B58020FFF7EAFE034B984280
S315080040009EBF4FF48032024B1A6708BD005A6202FF
S3150800401000A000501FB503460020B3F5807F01902D
S3150800402000F0F48000F28E80662B7DD83C2B06D8F3
S31508004030243B092B5ED9019805B05DF804FB3D3B8E
S31508004040292BF8D801A252F823F000BF2F42000806
S315080040505D4200083740000837400008374000082E
S315080040603740000837400008374000083740000846
S315080040703740000837400008374000083740000836
S315080040803740000837400008674200080342000826
S31508004090374000083740000837400008AB410008A1
S315080040A03740000837400008C5410008714200083B
S315080040B06D410008534200083740000837400008A1
S315080040C0374000083740000837400008DD4100083F
S315080040D0374000083740000803420008034200083A
S315080040E0034200080342000803420008534200083E
S315080040F053420008092B9ED801A252F823F000BFAC
S31508004100034200080342000803420008034200086D
S315080041100342000837400008F94100083740000804
S315080041208B41000839420008802B84D1594B1B6FFC
S3150800413003F00703013B032B3FF67DAFDFE803F0EF
S315080041405A535658B3F5F06F71D023D8B3F5B06FFC
S3150800415052D010D8B3F5607F77D0FFF46CAFB3F5C3
S31508004160806F4ED0B3F5A06F7FF465AF002001A92C
S31508004170FFF726FB5FE7B3F5D06F5DD0B3F5E06FC9
S315080041806CD0B3F5C06F7FF456AF002001A9FFF7D6
S31508004190E9FB50E7B3F5186F65D00BD8B3F5086F90
S315080041A04FD0B3F5106F7FF446AF002001A9FFF793
S315080041B077FD40E7B3F5286F5AD008D8B3F5206FD6
S315080041C07FF439AF002001A9FFF7F0FB33E7B3F519
S315080041D0406F3ED0B3F5486F7FF42DAF002001A99C
S315080041E0FFF716FC27E70523019324E70323FBE7DC
S315080041F00823F9E70223F7E7002001A9FFF7D8FC0F
S3150800420019E7002001A9FFF779FB14E74FF0E0232F
S3150800421002901B695B0705D52BF020FE0D2303933F
S31508004220039BE1E703A902A8FFF79CFBF8E7002038
S3150800423001A9FFF71FFCFEE6002001A9FFF704FD10
S31508004240F9E601A9FFF736FBF5E601A9FFF70EFB2C
S31508004250F1E6002001A9FFF781FAECE6002001A9A2
S31508004260FFF7CEFCE7E6002001A9FFF7DBFAE2E656
S31508004270084BD3F8703203F00303012B04D0022B4A
S315080042800CBF15230023AFE7002103A8FFF76AFB3D
S315080042901123A9E7008000504FF48032074B0849E4
S315080042A0586E03F580535A664B6A23F001034B6236
S315080042B0C3035CBF034B5A66704700BF00800050BB
S315080042C00000085000A0005008B5FFF7A3FE092813
S315080042D011D00A38012802D94FF6FF7008BD4FF4ED
S315080042E08002064B5A6603F5D8335B6ADB07F3D5BB
S315080042F04FF4FA70F2E7024B1888EFE70090005087
S31508004300067F062008B5FFF785FE03280ABF024B7D
S315080043104FF6FF70188808BD047F062038B5044696
S315080043208020FFF777FE032800F08A804FF480127A
S31508004330544B4FF0A0615A6645F60E03524AC2F82E
S315080043408030524B99624FF4803103F5805399625D
S31508004350936DD903FCD4916D11F08041FBD1D4E95A
S3150800436000031B0543EA0063E07B0343207B43EA23
S315080043700043607B43EA0033A07B43EA8013136162
S315080043809069D4E904531B0643EA856300F00040AC
S315080043900343A07EE57E0343207E43EA0043607E16
S315080043A043EA00239361136AE06923F00F030028A8
S315080043B043EA000343EA850314BF0125002543EABF
S315080043C0C5031362324D3CD194F82430916A94F8AF
S315080043D02000DB00294043EA40130B4394F82110E0
S315080043E043EA011343F4803393622A49264A936DBC
S315080043F031EA0303FBD14FF08071244881621369C7
S31508004400A56823F4700343EA055313614FF000438C
S31508004410836194F822300BB91F4B996294F82330C4
S315080044203BB94FF480321C4B9A62174A936D5B0076
S31508004430FCD494F825301BB1134B184AC3F88020D6
S3150800444038BD022808D11161154891614FF4085208
S315080044504FF47F411EF026FC0B4994F822308A6AF5
S3150800446094F820001B062A4043EA4013134394F8A5
S31508004470242043EAC20394F8232043EA02438B62CA
S31508004480D7E700BF009000500040005A0050005A7D
S31508004490C7FFFEFE030001000060005AF1A7FFFFF8
S315080044A03440005A014B93F900007047BD7F06203F
S315080044B04FF400011B4A437810B551664FF4D151A9
S315080044C0022402F5B832516217494F2B4C604FF05F
S315080044D0010428BF4F2301F580514C601169C903B7
S315080044E0FCD4017843EA01235361D0E901131B0187
S315080044F043EA0123417B0B43017B43EA4103936073
S31508004500C37B817B1B0143EA4113417C0B43017C3E
S3150800451043EA41035360837C13B16FF4D15353626A
S3150800452010BD00BF0090005000100250014B1880CB
S31508004530704700BF067F0620014B1880704700BFF2
S31508004540047F06204FF4800208B5184B5A660223EA
S31508004550174A5360936813F48033FBD1012822D19C
S315080045602BF096FC134B984215D003F5122303F54E
S31508004570F863984213D0104B00EB8002400AB3FB55
S31508004580F0F3520A0A49CA620B6301234B620022FE
S31508004590074B5A6008BD45F67A13084AF2E745F60E
S315080045A01A03074AEEE75362F1E700BF009000508E
S315080045B00040025000F0490264666666D8B80500F5
S315080045C0BBCF0500B0F5207F10B50C4657D008D8EC
S315080045D0B0F5007F48D003D830B3B0F5C07F23D0FC
S315080045E010BDB0F5607FFBD12949013CD1F8FC200C
S315080045F012F080721EBFD1F8FC3023F08073C1F828
S31508004600FC302449D1F8803023F0300343EA0414FF
S31508004610C1F88040002AE3D01D4AD2F8FC3043F0A6
S315080046208073C2F8FC30DBE71EF04BFB1EF057FB2D
S315080046304FF48031184B174A1967136F013C23F45E
S31508004640704343EA043414672BF008FC0446FFF76A
S3150800465079F8C0F1020120461EF03BFB00F036F85F
S31508004660BDE81040FFF7C6BC0A4A4C1ED2F8903087
S3150800467023F0F85343EA0464C2F89040B0E7054AC9
S315080046804C1E136F23F4806343EA84231367A7E75A
S3150800469000ED00E0008000500090005008B50121B0
S315080046A0022000F01FFC4FF42070FFF725FB054B96
S315080046B018701EF006FB1EF012FB4FF48032024BF8
S315080046C01A6708BDAC7806200090005008B54FF46C
S315080046D0C070FFF77DFBBDE808400449884294BFD7
S315080046E0012102214FF42070FFF76CBF80F0FA0217
S315080046F038B504462BF0B2FB0546FFF723F8C0F1A0
S31508004700020128461EF0E5FA0121002000F02AFCE5
S315080047102CB1FFF7DBFFBDE83840FFF76BBC034B56
S315080047204FF420701978FFF74DFFF4E7AC780620B0
S31508004730B0F5807FF8B50C4600F08A8100F28B80D0
S31508004740662879D83C2803D8243809285AD9F8BDC8
S315080047503D382928FBD801A353F820F0DF4A000882
S31508004760ED4B00084F4700084F4700084F47000821
S315080047704F4700084F4700084F4700084F470008B3
S315080047804F4700084F4700084F4700084F470008A3
S315080047904F4700084F4700080D4C0008314A0008EB
S315080047A04F4700084F4700084F470008F9480008D8
S315080047B04F4700084F4700082B4900082D4C0008B2
S315080047C087480008CD4B00084F4700084F470008A8
S315080047D04F4700084F4700084F4700085B49000845
S315080047E04F4700084F470008314A0008314A000879
S315080047F0314A0008314A0008314A0008CD4B000802
S31508004800CD4B00080928A2D801A353F820F000BF11
S31508004810314A0008314A0008314A0008314A00087E
S31508004820314A00084F470008114A00084F47000858
S31508004830BF480008FF4A0008802888D18B1E062B2F
S3150800484000F29B80DFE813F0DE00CC009900E1005F
S3150800485099009900DB00B0F5F06F00F040813ED872
S31508004860B0F5B06F00F0D4801DD8B0F5607F00F0C9
S315080048708781FFF46CAFB0F5806F00F0D980B0F592
S31508004880A06F7FF464AF073C0B2C8CBF0021AC4BA8
S31508004890AC4A98BF195DD2F8203223F007030B43C0
S315080048A0C2F8203253E7B0F5D06F00F02881B0F592
S315080048B0E06F00F09B81B0F5C06F7FF448AF093C0C
S315080048C0032C8CBF0021A04B9E4A98BF195DD2F8D5
S315080048D0403123F003030B43C2F8403137E7B0F504
S315080048E0186F00F0938117D8B0F5086F00F017819C
S315080048F0B0F5106F7FF42BAF093C062C8CBF002156
S31508004900924B904A98BF195DD2F8083223F00703F4
S315080049100B43C2F808321AE7B0F5286F00F0868113
S3150800492013D8B0F5206F7FF412AF023C0F2C8CBF62
S315080049300021874B834A98BF195DD2F8603223F06D
S3150800494007030B43C2F8603201E7B0F5406F00F089
S315080049503D81B0F5486F7FF4FAAE023C0F2C8CBF50
S3150800496000217C4B774A98BF195DD2F8943223F020
S3150800497007030B43C2F89432E9E600252E464FF4A6
S3150800498080370121022000F0ADFA1EF09AF91EF0D8
S31508004990A6F9714B6B4A1F67136F23F0070333435E
S315080049A013672BF05BFA0646FEF7CCFEC0F1020150
S315080049B030461EF08EF90121002000F0D3FAFFF7E9
S315080049C085FEFFF717FB002D7FF4C1AE032C7FF49D
S315080049D0BEAE624B624A9F62936D5C00FCD4B6E63B
S315080049E04FF480125C4B0E465A664FF480325C4B8D
S315080049F09D6A03F58053C5F300659A62BFE70025F3
S31508004A000426BCE700250126B9E700250226B6E7F5
S31508004A10023C0E2C8CBF0021524B4A4A98BF195DA6
S31508004A20D2F8803123F003030B43C2F880318EE6B7
S31508004A30023C052C8CBF00214B4B424A98BF195D9E
S31508004A40D2F8203123F007030B43C2F820317EE663
S31508004A50A1F10904082C3FF67AAE01A353F824F015
S31508004A60854A0008854A00084F470008854A000815
S31508004A70B34A00084F4700084F4700084F47000849
S31508004A80854A00084FF480322E4B3849586E03F594
S31508004A9080535A664B6AC00343F001034B625CBFFE
S31508004AA0334B5A664FF0E022136923F0040313616F
S31508004AB04DE64FF48032234B2C49586E03F580534C
S31508004AC05A664B6A23F001034B62C1035CBF284B4D
S31508004AD05A664FF0E022136943F00403E7E7093CFE
S31508004AE0032C8CBF0021234B164A98BF195DD2F8B8
S31508004AF0603123F003030B43C2F8603127E6093C13
S31508004B00062C8CBF00211C4B0E4A98BF195DD2F8A3
S31508004B10003223F007030B43C2F8003217E6CC1E17
S31508004B20062C8CBF0021154B064A98BF195DD2F892
S31508004B30003123F003030B43C2F8003107E600BF38
S31508004B40201D030800800050431D03083C1D030870
S31508004B50101D0308101D0308009000500060005A3D
S31508004B600040005A4D1D0308471D03080000085061
S31508004B7000A00050431D03083C1D0308351D03080B
S31508004B803349063CD1F8FC2012F080721EBFD1F8DA
S31508004B90FC3023F08073C1F8FC30082C8CBF002051
S31508004BA02C4B2D4998BF185DD1F8803023F00303AC
S31508004BB00343C1F88030002A3FF4C9AD244AD2F82D
S31508004BC0FC3043F08073C2F8FC30C0E5023C052C8B
S31508004BD08CBF0021214B204A98BF195DD2F8283195
S31508004BE023F007030B43C2F82831B0E5093C032C30
S31508004BF08CBF00211A4B184A98BF195DD2F840326B
S31508004C0023F003030B43C2F84032A0E5093C032C0A
S31508004C108CBF0021134B104A98BF195DD2F8503249
S31508004C2023F003030B43C2F8503290E5112C0DD044
S31508004C30A4F115035C425C416400074AD2F870325D
S31508004C4023F003032343C2F8703280E50124F4E716
S31508004C5000ED00E02C1D030800800050471D0308E6
S31508004C60431D0308431D03084FF4C02270B50546CB
S31508004C70FEF724FF2F4B04465A6603F598335A6805
S31508004C80012A04D12C494A605A689207FCD480202C
S31508004C90FFF7C0F9052807D11EF013F81EF01FF814
S31508004CA04FF48032234B1A67244B24F040749D42FC
S31508004CB035D0234B9D4235D02BF0AAF885420646BF
S31508004CC003D90121284600F04DF91E4BDA6812F087
S31508004CD0060FFBD199689C609A68624012F4F81F27
S31508004CE023D12846FCF7A6FC8020FFF793F9052870
S31508004CF00DD12BF0B3F80446FEF724FDC0F10201EE
S31508004D0020461DF0E6FFFFF7E1FCFFF773F9B54211
S31508004D100ED8BDE870400121002000F023B944F008
S31508004D200074C9E744F08074C6E735469960DBE746
S31508004D3070BD00BF0090005000E0015040420F00D7
S31508004D4080841E0000000150364B98424FD01CD874
S31508004D50354B984257D00ED8344B98424FD008D886
S31508004D60334B98422CD0334B984229D0324B984239
S31508004D7026D0002327E0314B984234D0304B984256
S31508004D80F7D1304BD3F8BC301DE02F4B984232D0C8
S31508004D900FD8A3F53703A3F5D853984237D003F5B0
S31508004DA0B70303F558639842E3D1264BD3F8C830C6
S31508004DB009E0264B9842DCD1224BD3F8D03002E0EA
S31508004DC0204BD3F8A0304FF40021214A23F040733A
S31508004DD05166194A90421ED0154A90421ED04FF08D
S31508004DE0B44293607047174BD3F8B830EBE7154BCE
S31508004DF0D3F8C030E7E7134BD3F8CC30E3E7114BD1
S31508004E00D3F8A430DFE70F4BD3F8B030DBE70D4B10
S31508004E10D3F8C430D7E743F00073E0E743F0807374
S31508004E20DDE700BFC0EA210180969800404B4C00A0
S31508004E3080841E0000093D0040420F00405DC60008
S31508004E400024F4000080E00F0048E801005A6202DE
S31508004E5000900050024A536B0342FCD1704700BFD2
S31508004E6000800950044A4178536F23F4407343EA9B
S31508004E7001235367704700BF00400050104A10B521
S31508004E801369044643F0040313612BF06BFE1DF00F
S31508004E902BFF0C4B5B6E5B0142BF0B4B0B4AC3F8F7
S31508004EA02024BFF34F8FBFF36F8F30BF1DF01DFF58
S31508004EB003F088FD1CB9BDE810402AF0CFBF10BD2D
S31508004EC000ED00E00080005000E003500000FF0FF6
S31508004ED0034A0179D36E23F030030B43D366704738
S31508004EE000400050F8B504461C4BD3F88420D10680
S31508004EF0FBD4D3F88430C3F381139C422CD02AF018
S31508004F008DFF012C064602D121461DF0E2FE2CF04B
S31508004F10C0F94FF00072124B07465A6620461DF03C
S31508004F20E7FE4FF480630D4D621E93402B676B6E50
S31508004F309A0103D4D5F884309B060AD538462CF056
S31508004F40A3F9022C08D13046BDE8F84000211DF02F
S31508004F50C0BED5F88430EAE7F8BD00BF004000506F
S31508004F600060005010B50C4608B92AF057FF074BE9
S31508004F7021461B783BB1064B984204D80120BDE870
S31508004F801040FFF7AFBF0220F9E700BFAD78062053
S31508004F90005A62020278034B012100201A70FFF7BB
S31508004FA0E1BF00BFAD7806204FF0004238B5244B6C
S31508004FB0244C5A664AF6CD33656C014605F0010560
S31508004FC0236430BB0120FFF745FF6368DB0708D47D
S31508004FD0002415B11B4B1C4A1A6429F0BFFF204652
S31508004FE038BD1A4B58600846194B226BD20705D4B0
S31508004FF0984201D10724ECE70130F6E79842E7D159
S31508005000F8E70132236B13F0080305D08A42F8D17A
S31508005010F0E700220E49F5E78A42EBD020210B4A39
S3150800502091620121A2F5805251600649084A886AB0
S31508005030800603D49342DDD00133F8E79342DEE7D6
S3150800504000900050008009503254FFFF00A009501C
S3150800505040420F004FF0004238B5164B01465A66DB
S315080050604AF6CD33144C154A656C236443780B20F5
S315080050705B0043F00103D363FFF7ECFE63688A78AD
S3150800508023F4F87343EA02136360CA784B7943EA58
S315080050900223A3600A798B7943EA022323610878FD
S315080050A0FFF782FFEB0744BF054B236429F056FF41
S315080050B0012038BD00900050008009500040005083
S315080050C03254FFFF4FF00042124B70B55D6E03F588
S315080050D080535A664AF6CD3304460F4980204E6CF3
S315080050E00B64FFF7B7FE0B6A23F00F030F2C94BF70
S315080050F0234343F00F030B62F30744BF074B0B64CC
S31508005100002DA2BF4FF00042054B5A6629F026FF34
S3150800511070BD00BF00800050008009503254FFFF68
S3150800512000A000504FF00042104B70B55D6E03F5BD
S3150800513080535A664AF6CD3304460D4980204E6C94
S315080051400B64FFF787FE0B6A23F4F85343EA04233C
S315080051500B62F30744BF074B0B64002DA2BF4FF049
S315080051600042054B5A6629F0F9FE70BD00800050D2
S31508005170008009503254FFFF00A0005010B51DF002
S31508005180BCFD042300F5805100F500520B61136144
S315080051900B6113610B6113610B611361202341F2EB
S315080051A0020103610023C360836041614FF4A021BB
S315080051B08361836541620549C36103628362C36291
S315080051C043630365D164036310BD00BFFF3F0D034E
S315080051D0F8B505461446084681B9394B9D4238D07C
S315080051E0384B9D4237D003F580439D4235D003F5B1
S315080051F080439D4208BF6620FEF7EAFDAB68DE07DE
S3150800520033D5B0FBF4F46E68013C16F001062AD0DB
S31508005210282128461DF06DFDAB6C99071FD1AB6C94
S31508005220DA071ED4AB6C13F0020F14BF062700274B
S3150800523028461DF062FD2B6923F07F4343EA046389
S315080052402B61002E3BD039462846BDE8F8401DF0B4
S315080052506EBD5620D0E75720CEE76520CCE7052758
S31508005260E6E70927E4E73746E5E76B68AB6DDB0752
S31508005270AB6848BF640003F0E003402B1BD014D88A
S31508005280002B0CBF1023082363434101B1FBF3F243
S315080052900D4B203A03EAC202284601211DF029FDDA
S315080052A02A63BDE8F8401DF024BD602B05D0802B8D
S315080052B005D10123E8E70623E6E70423E4E7F8BD7A
S315080052C00000015B00C00850F8FF7F00436870B516
S315080052D004460E460D691BB140F6FF711DF009FD27
S315080052E02046FFF74BFF2269737BB17B22F08702CA
S315080052F00B43134343F0800323610DB323692A7FCD
S3150800530023F0F80343EAC2132A7813432A7943EAB7
S3150800531042136A7A43EA0213EA7B43EA8213236159
S31508005320E268D5E9053122F0F04222F470220B43F7
S3150800533013432A7B43EA82236A7B43EAC233E36048
S31508005340A368F27B23F00303134343F00103A3602E
S3150800535025B36B88A26803F4C0431343A360A3680C
S315080053606A7943EA8223A360AB79E979626A1B0109
S31508005370090203F0700301F4E06122F4772222F4B3
S31508005380EE620B4313432A7A120302F4E0421343F4
S315080053906A7F120402F47022134363626369327BE4
S315080053A023F00F0313436361ADB16B89A3616B7B74
S315080053B03BB12E4B9C421DD1AB7B2D4A03F00F030C
S315080053C05367EB7B3BB1294B9C4231D12B7C284A56
S315080053D003F00F0313672046D6E90112FFF7F8FE1C
S315080053E0204631781DF0A3FCA36CDB4313F4405F21
S315080053F0FAD170BD1F4B9C4206D1AB7B1C4A03F009
S315080054000F03C2F88030DCE71B4B9C4206D1AB7B0E
S31508005410174A03F00F03C2F88C30D2E7174B9C42A9
S3150800542001BFAB7B124A03F00F03C2F89830C8E7F6
S31508005430104B9C4205D12B7C0D4A03F00F03D36712
S31508005440C9E70D4B9C4206D12B7C094A03F00F0392
S31508005450C2F88830BFE7094B9C4201BF2B7C044A3F
S3150800546003F00F03C2F89430B5E700BF0000015BF4
S315080054700090035000C00850000009500040095031
S315080054802DE9F04105460F461E4690464AB10123CE
S3150800549030221C4C8B4002FB004416B304F58254A0
S315080054A023603023072F4FF00F0105FB03F3164C3B
S315080054B01AD8BA00181D134608FA02F29940204471
S315080054C01DF057FCB8F1000F09D1012330210D4A10
S315080054D0BB4001FB052296B102F582521360BDE876
S315080054E0F08104F50154DBE7A7F1080C4FEA8C0CB0
S315080054F003F10C0008FA0CF201FA0CF1DFE702F5E9
