S02B0000433A2F55736572732F726F796D612F4465736B746F702F53696C69636F56656761732F7072655F66F3
S31508000000C00A00206F9802087398020873980208BD
S31508000010EDC50208739802087398020873980208D7
S31508000020739802087398020873980208739802086E
S3150800003073980208739802083D81020873980208AB
S31508000040739802087398020873980208739802084E
S31508000050739802087398020873980208739802083E
S31508000060739802087398020873980208739802082E
S31508000070739802087398020873980208739802081E
S31508000080739802087398020873980208739802080E
S3150800009055D30008A5EA020873980208739802085F
S315080000A073980208739802087398020873980208EE
S315080000B0B1C3062073980208739802087398020859
S315080000C0739802087398020873980208D18F00087B
S315080000D0739802087398020873980208492600085C
S315080000E0292600087398020873980208739802086C
S315080000F073980208895E020885670208FDA103084D
S31508000100F9A10308D15E020813A2030801A2030895
S315080001105567020805A20308E9740208C5670208BC
S31508000120739802087398020873980208739802086D
S3150800013013BA02087398020873980208739802089B
S315080001407398020859E90008739802087398020818
S31508000150739802087398020873980208739802083D
S31508000160739802087398020873980208739802082D
S31508000170739802087398020873980208739802081D
S31508000180739802087398020873980208B3C503089F
S315080001902D4A020873980208594802088D48020831
S315080001A073980208739802087398020873980208ED
S309080001B07398020828
S315080001C0F0B5114A114C124E00F00105E3695F07BC
S315080001D013D40DB9334213D103EA00078F4207D16E
S315080001E00B4A1A40002A14BF6FF001000020F0BD28
S315080001F0013AEBD16FF00200F9E74FF0FF30F6E76E
S315080002006FF00100F3E700BF8096980000000350E6
S31508000210020001000B4B70B5D96911F480310DD17C
S3150800022001244FF48072084E084DF46020462C6471
S315080002301A61FFF7C5FF3464EC6070BD6FF001000A
S31508000240FBE700BF000003500010035000200350D6
S315080002504FF4803238B50E4B0E4C9A66E56941F676
S31508000260713315400122E3630B4B0021DA60022348
S31508000270606121202361FFF7A3FF10B92120FFF752
S315080002809FFF0122054BDA600DB10023E36338BDF9
S315080002900090005000000350001003500020035047
S315080002A070B5134C6061E3695B071ED40E4656F8B9
S315080002B0043B8D18A361AE420BD1042300212120F3
S315080002C02361FFF77DFF58B9BDE870402120FFF78D
S315080002D077BF08210846FFF773FF10B1042323618F
S315080002E070BD56F8043BA361E5E74FF0FF30F7E72A
S315080002F0000003502DE9F84316464FF48032184B98
S3150800030089469A6603F51C33DA69074602F480388B
S3150800031041F67132DA63012203F58053114DDA6032
S3150800032066B930460122104BDA60B8F1000F03D0E7
S315080003300022A3F50053DA63BDE8F88307F50054F5
S315080003402C40E41BB44228BF344649462246384668
S31508000350FFF7A6FF0028E5D12744A144361BDFE7AF
S315080003600090005000E0FFFF0020035010B582B057
S3150800037001A90DF1030000F0E7F8019A92F8403060
S315080003805BB2002B0FDD0949D36A496B19420AD0C3
S3150800039092F840100648074C013949B282F84010D5
S315080003A063634362836402B010BD00BF000004505B
S315080003B000100450002004502DE9F04F85B003A921
S315080003C00DF10B0000F0C0F8039C94F82950D4F8FE
S315080003D00C8004EB45039B8C94F82A60A068626B3A
S315080003E0216A08EB830306B1490803EB810C1168FF
S315080003F0494E21F07F4100EB810094F84210D778EE
S3150800040001EB410106EB0111168908615068013EAE
S3150800041020F07F4008EB800048614048009740EA9A
S315080004200610C860206B064601903D488662466203
S3150800043049696163E18C21B1013505F0010584F84C
S3150800044029501832944553D3A646364FDFF8DC9028
S315080004505EF8386B20E01AF0040F0CBF594694F882
S31508000460291002F10C021CBF04EB4101898C5D6165
S3150800047018BF08EB810121F00301C3F818E01AF050
S31508000480020FC3F81090D9611EBFD96941F0020165
S31508000490D96162455B462BD852F80C1C12F8050C3C
S315080004A021F07F41043006EB810154F820B012F8A0
S315080004B009AC32F8025C596052F8080C32F8041C90
S315080004C020F07F400BEB80000139986047EA011164
S315080004D003F11000196020F0030141F0020103F155
S315080004E0200BD960002DB6D10C3262450346D3D90C
S315080004F0009AD2070CD40C490C4A019858609960A6
S315080005001A6053F8041C43F00202D96043F8042C1D
S3150800051005B0BDE8F08F00BF5800045000003F0842
S3150800052000100450080020083C1004500A00300847
S315080005304FF0BA43196ADA6903F500530A40DA61DB
S31508000540704700BF000000005FF800F065AE0308C2
S31508000550000000000000000000000000000000008D
S31508000560013800D0FCE77047D0B51BA7D7E900676C
S315080005702DED028B04469FED1A8AD4ED007AF4EE2F
S31508000580C87AF1EE10FA0CDA13A7D7E900679FEDDF
S31508000590158AF4EEC87AF1EE10FA0ED4BDEC028B89
S315080005A0D0BD17EE900A0EF02FFD32463B460EF0F0
S315080005B0CBFB0FF043F82060DFE717EE900A0EF04A
S315080005C023FD32463B460EF0C1FB0FF037F807EE27
S315080005D0900A2060DDE700BF182D4454FB2119401E
S315080005E0DB0F4940DB0F49C02DE9F84F4FF00043B8
S315080005F023FA00F057EC106B59EC118B93468A4698
S315080006000EF0F0FC424604460D464B463046394647
S315080006100EF052FD02460B46204629460EF04CFDCA
S3150800062009A3D3E9002304460D460EF0D5FF38B1D9
S315080006309FED050B59465046BDE8F84F0CF0F4B847
S3150800064045EC104BF6E700BF000080FFFFFFCF41E7
S315080006502DE9F0432DED028B1F460B7F83B0072B48
S3150800066080460E4614460C9D14D140F20241836B17
S31508000670984728B9012003B0BDEC028BBDE8F0838A
S31508000680A86240F202414046D8F838309847002818
S31508000690F0D0E862227F337F072A22D1092B22D0A5
S315080006A0072BE7D1D4F80C80B8F1000FE2D1414608
S315080006B0DFED5D0A47F6FF709FED5C0AAB6A5C4AA0
S315080006C00CF0FAFCEB6A4146DFED570A9FED590A32
S315080006D0594A5A480CF0F0FCE368EB61A3682B62B0
S315080006E001E09A42C6D1337F092B3BD0072B40F055
S315080006F08980F368002BBDD1E368002BBAD194ED4D
S31508000700027ADFED4F7AB4EEE77AF1EE10FACCBF53
S3150800071077EE677A77EEC77A9FED4A7AF4EEC77A6C
S31508000720F1EE10FAA6DCB0680EF06EFC804638686A
S3150800073089460EF069FC02460B46404649460EF0CD
S31508000740BBFC37A3D3E900230EF0E0FD05F108044E
S3150800075041EC100B204601A90CF066F8019BEB60F2
S31508000760002088E7237F072B3BD1E36813F5004F6A
S3150800077080D194ED027ADFED347AB4EEE77AF1EEC1
S3150800078010FACCBF77EE677A77EEC77A9FED2F7AA5
S31508000790F4EEC77AF1EE10FA3FF76CAFB0680EF0D8
S315080007A033FC41EC180B38680EF02EFC05F10804F2
S315080007B041EC100BB0EE481AF0EE681A21460520F7
S315080007C001AAFFF711FF01991F22E96005202DF004
S315080007D0A0FE0EF007FC01F100410EF007FFA8612C
S315080007E0BEE7092B7FF446AFE36880337FF442AF58
S315080007F094ED027ADFED167AB4EE677AF1EE10FA26
S31508000800CCD037E7012B7FF435AF237F012B7FF45C
S3150800081031AF38680EF0F8FBC5E90001A0E700BF64
S31508000820140014001400243F80000038A00020396A
S31508000830B7E8020880008037A9E802080080FFFFB1
S31508000840000000386F120333000080376F128332BE
S315080008500000803B0000000051EC100BC1F30A5366
S315080008602DE9F041A3F2FF350C460646132D22DC8E
S31508000870002D41DB384B0F4643FA05F801EA080319
S3150800088003431DD032A3D3E900230EF05FFA0022FA
S3150800089000230EF0A1FE40B1002C03DA4FF48013BA
S315080008A02B411F4427EA080400262346324643EC18
S315080008B0102BBDE8F081332D06DDB5F5806F2BD002
S315080008C041EC100BBDE8F081A3F213434FF0FF375C
S315080008D0DF403842F4D01EA3D3E900230EF036FADF
S315080008E0002200230EF078FE0028DED0002C3346C6
S315080008F020DB23EA0706D8E715A3D3E900230EF081
S3150800090025FA002200230EF067FE0028CDD0002C21
S3150800091009DB00263446C8E702460B460EF016FAEF
S3150800092041EC100BCEE724F0004426430DD14FF0DE
S315080009300044BAE7142D06D0C5F134050122AA40B1
S3150800094013449E42D5D90134D3E70026034CACE7BD
S315080009509C7500883CE4377EFFFF0F000000F0BF5F
S315080009600348044B834202D0034B03B11847704730
S31508000970B4C60620B4C6062000000000064B074988
S31508000980C91A891048BF0131491003D0044B0BB16D
S3150800099001481847704700BFB4C60620B4C60620EB
S315080009A00000000010B5064C237843B9FFF7D8FFBE
S315080009B0044B13B10448AFF300800123237010BD24
S315080009C01EBE062000000000F855040808B5054BB1
S315080009D01BB105490548AFF30080BDE80840FFF79D
S315080009E0CDBF00BF00000000C80D0020F855040860
S315080009F0A3F5803A704700BF174B002B08BF134B6F
S31508000A009D46FFF7F5FF00218B460F461348144A0B
S31508000A10121A2EF02FF90E4B002B00D098470D4BCB
S31508000A20002B00D098470020002104000D000D4837
S31508000A30002802D00C48AFF300800FF087FA200098
S31508000A4029002EF031F80FF07DF800BF00000800ED
S31508000A500000000000000000C00A0020C00A0020B4
S31508000A6040C00620000000000000000037B504461C
S31508000A7013F0A0FC002840D1214B20766361A368BF
S31508000A8043F48013A3602BF016FEA368A0801B0313
S31508000A900CD4B0F5FA7F09D93BF087F90121054650
S31508000AA008463AF03DFB28463BF07AF9204613F013
S31508000AB0A9FC0546F0B9134816F0F8F930F015F810
S31508000AC012F038FA31F026FC2FF0B7FC2A4601213D
S31508000AD004202FF0DFFF01A88DF8045013F048FE1C
S31508000AE00321042015F0F0FE0A2011F0F3FF20463A
S31508000AF027F01AFB284603B030BD0025FAE700BFE9
S31508000B000504030084C6062008B5044904481FF0F6
S31508000B1059F9BDE808401FF085B900BF8CC603081F
S31508000B2074C703084FF08052014B5A60704700BFE4
S31508000B3000ED00E0F8B50E460546D0B1C9B10E4B3A
S31508000B400E4F1968386802F03BFD044678B906234B
S31508000B5032460B49386802F0FBFD044638B90123D2
S31508000B602A460849386802F0F3FD00B12C70204681
S31508000B70F8BD2124FBE700BFF4C3062014C40620F1
S31508000B802C0004003C00040008B504483BF024FB94
S31508000B902DF039FFBDE8084000F07EBB30EE0308B3
S31508000BA001483BF019BB00BF30EE030870B52A4E6A
S31508000BB092B0354605AC0FCD06F114050FC40FCD1E
S31508000BC00AAC0FC495E80F0084E80F00234B2448AD
S31508000BD007930AAB09934FF48073ADF82C303BF0BA
S31508000BE0FBFA20483BF0F8FA0421B38E0DEB01001E
S31508000BF00022ADF8043028F0CAFEF38E0022042144
S31508000C0002A8ADF8083028F0C2FE338F002204216E
S31508000C1003A8ADF80C3028F0BAFE022301220421FD
S31508000C2004A8ADF8103028F0B2FE0F4805A905F063
S31508000C30F5FA0E4B0E4A0020C3F8CC244FF00212E8
S31508000C40C3F8C424A2F58032C3F8C8241C22C3F80A
S31508000C50B42412B070BD00BF08C80308A05A3200F9
S31508000C603CEE030830EE030800C0085000C00350ED
S31508000C700200030010B50446012027F068FA762121
S31508000C80054829F02AFD2146034829F026FD0020BB
S31508000C9027F05DFA002010BD00C0085070B5054663
S31508000CA0C0F3C7100E46144665F07F05FFF7E2FF4E
S31508000CB0012027F04CFA0948E9B229F00EFD26442E
S31508000CC0B44204D1002027F042FA002070BD00216A
S31508000CD0024829F002FD04F8010BF1E700C00850AC
S31508000CE013B5044601214F200DF10702FFF7D6FF81
S31508000CF09DF8073003F0E003802B1BD00AD8402B61
S31508000D0014D002D8A3B90E4B0DE0602B0AD00120EF
S31508000D1002B010BDC02B0FD0E02B0FD0A02BF6D100
S31508000D20084B00E0084B00202360F1E7074BFAE781
S31508000D30074BF8E7074BF6E7074BF4E7074BF2E7ED
S31508000D4000007A3D0000FA3A0000FA3B00007A3CBF
S31508000D500000FA3C00007A3B00007A3A0000FA39B3
S31508000D6038B504460D46C0F3C710FFF783FF0120C8
S31508000D7027F0EDF904F07F01054829F0AEFC294675
S31508000D80034829F0AAFC002027F0E1F9002038BD25
S31508000D9000C00850DFED497AB4EEE70AF1EE10FA22
S31508000DA010B52DED028B54DCDFED457AB4EEE70A7B
S31508000DB0F1EE10FA52DCDFED437AB4EEE70AF1EE13
S31508000DC010FA50DCDFED407AB4EEE70AF1EE10FADD
S31508000DD04EDCDFED3E7AB4EEE70AF1EE10FA4CDCB3
S31508000DE09FED3B8AB4EEC80AF1EE10FA4ADCDFED55
S31508000DF0397AB4EEE70AF1EE10FA48DCDFED367A16
S31508000E00B4EEE70AF1EE10FA44DCF3EE027AB4EE39
S31508000E10E70AF1EE10FA42DCF2EE027AB4EEE70ADD
S31508000E20F1EE10FA40DCF1EE087AB4EEE70AF1EEDC
S31508000E3010FA4FF00B003CDD0C24B1EE098A27F0BE
S31508000E40CCFA204627F0DEFAB0EE480ABDEC028B53
S31508000E5010BD03209FED218A0446F0E704209FED8C
S31508000E60208A0446EBE705209FED1E8A0446E6E73E
S31508000E7006209FED1D8A0446E1E70F209FED1B8A99
S31508000E800446DCE707209FED1A8A0446D7E70820C0
S31508000E900446D4E709209FED178A0446CFE70A20BF
S31508000EA0B3EE098A0446CAE70B20B2EE098A04465D
S31508000EB0C5E70D24B0EE098AC1E700BF0080BB452F
S31508000EC000803B450080BB4400803B440080BB4318
S31508000ED00000C84200009642000014420000FA458D
S31508000EE000007A450000FA4400007A440000FA43FC
S31508000EF00000484300004842B7EE007AC7EE007A81
S31508000F009FED057AC0ED157AC7EE007A80ED140AD2
S31508000F10C0ED167A704700BF35FA8E3CF0B52DED58
S31508000F20048B0F4600F15C050446D0ED098A90ED66
S31508000F300A9AD0ED0B9A85B028461646B0EE408A36
S31508000F4027F0A7FD002F48D094ED097ADFED386A1F
S31508000F50B4EEE67AF1EE10FA3FDBDFED367AB4EE60
S31508000F60E77AF1EE10FA38D894ED0A7AB4EEE67A12
S31508000F70F1EE10FA31DBB4EEE77AF1EE10FA2CD87E
S31508000F80F5EEC09AF1EE10FAF1EE688AB1EE490A6A
S31508000F9004F1680725DB0FF08BFC8DED010AB0EE36
S31508000FA0680A0FF085FCB1EE400A28463A4601A9C0
S31508000FB08DED020A8DED038A27F0A3FD284627F05A
S31508000FC05BFD0EB900236366D4ED147AB6EE000A0B
S31508000FD0284680EE270A27F074FD05B0BDEC048B81
S31508000FE0F0BD0FF065FC9FED149A39EE400A8DEDC1
S31508000FF0010AB0EE680A0FF05BFC38EE098AB1EE1A
S31508001000400A01A88DED020A8DED038A27F034FD0A
S315080010103A46284601A927F074FD284627F02CFDF4
S31508001020D4ED187AF1EE677AC4ED187AC9E700BFED
S31508001030DA1B7CBFDA1B7C3FDB0F494070B50446E0
S3150800104000F05AF80128054626D104F12406304650
S3150800105000F0DCF83146204604F1440627F095FCFA
S31508001060304600F0E1F8D4ED117AF1EE677AC4ED76
S31508001070117AD4ED127AF1EE677A31462046C4ED3C
S31508001080127A27F09EFC29462046BDE870409FED5F
S31508001090030A0022FFF742BF70BD00BF0000000030
S315080010A07FB502250E4E0F48357027F04CFC27F009
S315080010B04CF9044660B90DF1030027F059F80446C7
S315080010C030B9032301A8337027F063FA044610B138
S315080010D027F04CF800252046357004B070BD00BFD7
S315080010E01FBE0620E00D00200022024B1A7027F0D2
S315080010F03DB800BF1FBE0620014B1878704700BFD9
S315080011001FBE062030B501212DED028B0223B0EE5D
S31508001110408A1B4D83B0002208462B7027F0DBF966
S31508001120B0EE480AFFF736FE164C002084ED000A9A
S3150800113027F092F9012027F07AF9602027F0A1F923
S31508001140A02027F0B3F9322009F086FA0021012001
S3150800115027F0F3F901A827F096F894ED000A0A4853
S3150800116027F010FC94ED000A0748FFF7C5FE06486D
S3150800117027F043FC01232B7003B0BDEC028B30BD76
S315080011801FBE06205C0E0020E00D00201A4AD36B15
S315080011906BB392ED0C6A9FED197A07EE903A26EE3C
S315080011A0076AF8EE677AC6EE276A92ED0D6AFDEED3
S315080011B0E66A26EE076A16EE903AC6EE276AFDEE4E
S315080011C0E66A038016EE903AD2ED0E6A66EE876AF4
S315080011D086EEA77ABDEEC77A438017EE103A83806B
S315080011E000231363536393630023D3637047038019
S315080011F043808380704700BFE00D002000007A44DA
S315080012000148FFF71BBF00BFE00D0020054A127812
S31508001210012A04D00022026042608260704726F0EC
S31508001220D2BF00BF1FBE0620054A1278012A04D085
S315080012300022026042608260704726F0F4BF00BF59
S315080012401FBE062008B5094B1B78012B01D00020CC
S3150800125008BD27F03AF8064A1368013313600028D8
S31508001260F5D0044A136801331360F1E71FBE062060
S31508001270580E0020540E00209FED060A00F10C03BC
S31508001280B0EC017AF1EC017A984207EE270AF7D119
S31508001290704700BF000000002DE9F0415E4C92B097
S315080012A009AD94E80F0085E80F000DAA174604F16A
S315080012B0100304F1200C164618685968083303C64B
S315080012C063453246F7D11868544B08A93060187937
S315080012D03AF07DFF52483AF07FFF52483AF07CFFD9
S315080012E04FF4807308985049ADF83430814228BFCE
S315080012F001460C9729F0A5FB29464FF4E0650A90AC
S315080013004A4805F0A9FD494829F043FB474829F012
S3150800131069FB464829F052FBB4F8248001220421CF
S315080013206846ADF8008028F032FBE78C00220121E0
S3150800133001A8ADF8047028F02AFB268D01220421A5
S3150800134002A8ADF8086028F022FB0122042103A8B0
S31508001350374CADF80C5028F01AFB364B4FF4487052
S31508001360C4F8C8344FF00213C4F8C43403F5803304
S31508001370C4F8CC341C23C4F8B43409F0F1F907A82E
S31508001380ADF81C5001F0A2F8142009F0E9F907A8F5
S31508001390ADF81C5001F08AF8232009F0E1F907A8F6
S315080013A0ADF81C5001F092F8B921204829F03FFB0E
S315080013B007A8ADF81C5001F079F8002204A81146D8
S315080013C0ADF8108028F0E3FA002205A81146ADF81A
S315080013D0147028F0DCFA0122002106A8ADF818607E
S315080013E028F0D5FA0122002107A8ADF81C5028F0EC
S315080013F0CEFA0E4805F0F6FC00230A48C4F8B434C1
S31508001400C4F8C834C4F8C434C4F8CC343AF0E7FE97
S3150800141012B0BDE8F08100BF44C8030804EF030812
S3150800142030EE03083CEE0308E070720000C0085076
S3150800143000C003500200010010B50A46044619B15F
S31508001440024B00211B68984710BD00BF70C80308EF
S315080014500E4B0340B3F1607F06D1B1F5885F0CBF30
S3150800146000206FF086007047B3F1707F0BD101F44E
S31508001470E043B3F5005F06D111F4E06F14BF002016
S315080014806FF0860070476FF0860070470000C07FD7
S315080014908A42F8B506460D4600F0CD806A4B22F41E
S315080014A0FF7121F00101994210D0684922F0FF032B
S315080014B08B420BD022F47F7020F00300A1F57061F7
S315080014C0884203D001F5A0618B4227D15E4B25F4F3
S315080014D0FF7121F00101994210D05C4925F0FF0304
S315080014E08B420BD025F47F7020F00300A1F57061C4
S315080014F0884203D001F5A0618B420FD115F0FF0099
S315080015000BD0534B40F00070984240F0968082EA28
S315080015100500FF288CBF00200120F8BD05F0FE431A
S31508001520B3F1A06F11D102F0FE43B3F1A06F72D1EF
S3150800153082EA050333F47E136DD128046BD5C5F30F
S315080015400540C2F305429042E4E7B3F1407F62D119
S3150800155002F0FE43B3F1407F5DD182EA050030F424
S315080015607E1458D131462846FFF772FF002864D109
S31508001570384912F47C1701EA020116D0B1F1607FEE
S31508001580C2F3054336D1D1B241F0007101F17E4173
S315080015900339102901D83048445C15F47C1F2FD133
S315080015A09C4214BF00200120B7E7B1F1607F0AD141
S315080015B0D3B243F0007303F17E43033B102B40D8AC
S315080015C02649CB5CDFE7B1F1707F17D106F4E0431B
S315080015D0B3F5005F33D10123C6F302218B4006F42D
S315080015E0E041B1F5005FD8D10120C6F3022600FA22
S315080015F006F4D2E7B1F1707FCFD1F0E73B46CCE7EE
S315080016001FB9C5F30541A14215D0290403D5C5F371
S31508001610054098427EE725F47F03B3F1106F0CD19D
S3150800162002F0FE43B3F1106F07D10D48104040F0A9
S315080016301060A842B5E701206FE700206DE73B463A
S31508001640CDE73B469FE700BF0002000600130006F1
S31508001650FF0000020000C07F74C8030874C80308AE
S315080016600000FFF637B50D4D0C466B78022B12D1EC
S315080016702B78072B0FD100230A460193014601ABAD
S31508001680281D29F0C3FD20B9019BA34218BF6FF09E
S31508001690930003B030BD6FF08800FAE7600E0020B3
S315080016A038B500F0FE43B3F1407F04460D4602D03C
S315080016B06FF0860038BDFFF7CBFE0028F8D114F48A
S315080016C07C1F18D0C4F30543032B137022D9224A72
S315080016D02240B2F1607F31D1E4B244F0007404F1E3
S315080016E07E44033C102CE3D81C4A125D9342DFD893
S315080016F0142BDFD90EE0184B2340B3F1607F0FD1CE
S31508001700E3B243F0007303F17E43033B102B04D985
S31508001710002313706FF08500CCE71149CB5CD3E743
S31508001720B3F1707FF4D101F4E043B3F5005FEFD174
S315080017300123C1F302218B40DBB2C5E7B2F1707F0A
S31508001740B6D105F4E042B2F5005FB1D10122C5F386
S315080017500225AA40CAE700BF0000C07F74C8030874
S3150800176074C803082DE9F843884617461C4600F056
S31508001770A1FB0546002844D1D8F80060B6F80090C9
S3150800178009F4E043B3F5804FB36808BF27F00107B3
S3150800179037EA03032DD1A4B3244B24F4FF7222F0B5
S315080017A001029A4210D0224A24F0FF0393420BD03A
S315080017B024F47F7121F00301A2F57062914203D0EF
S315080017C002F5A06293421FD114F0FF0304D0194A10
S315080017D043F0007393421ED022464846F168FFF74D
S315080017E057FE074668B9224648463169FFF750FE54
S315080017F0D0B96FF0840500233046C8F8003027F0CA
S3150800180003FF2846BDE8F88304F0FE43B3F1407FA2
S3150800181004D12304E0D56FF08605ECE7B3F1A06F99
S31508001820F7D0044B9C42D6E73D46EAE7000200069D
S3150800183000130006FF0000022DE9F04F9B46002327
S3150800184089B08DF81B30159B9246DDE91289002B6D
S315080018500E460B460CBF4FF400624FF4806207A990
S31508001860149FFFF77FFF044610BB079D3046298863
S315080018700DF11B02FFF714FF0446C8B99DF81B00BB
S31508001880484531D8D5E908126B681B0A012B20D0C8
S31508001890184CA34200D053BBCDE90307334628466C
S315080018A0CDE901B8CDF800A02AF00FF8044608B132
S315080018B0C7F800904A46214640463B6827F097F904
S315080018C0079827F0A1FE002C18BF204609B0BDE8EE
S315080018D0F08FCDE9030733462846CDE901B8CDF8A0
S315080018E000A029F095FFE1E76FF08904E0E76FF0C3
S315080018F08604DDE7020080002DE9F04F0646002049
S315080019008BB00F4614469946CDE906000992186031
S31508001910002A00F09880B2F1005F80F0978006AA4E
S31508001920314607AB27F008FB024628BB069B5A6AD6
S315080019308AB1069DA8466A686B88120A012A089326
S3150800194058F824AF2B6A6DD042498A425FD01AB341
S315080019506FF0860210E073681B0A15D0012B04D0BD
S315080019603C498B420FD00992F2E7304609A90994FF
S3150800197027F02DFD024638B1DDE90601059227F06C
S3150800198042FB059A3FE009940999069827F068F9F9
S3150800199002460028CDD0EFE70DF1200B2246394646
S315080019A02846CDE9018BCDF800A0059329F00DFF57
S315080019B010F1860F0246059B09D12246394628466C
S315080019C0CDE9018BCDF800A027F06DF902460698FF
S315080019D0002AD1D14288089B7ABB43804FF6F87219
S315080019E093422DD8338813B102889A42B0D17388AE
S315080019F013B142889A42ABD14A46079927F0EAFAC8
S31508001A0002460028B8D110460BB0BDE8F08F08AAE8
S31508001A10CDE90182394622462846CDF800A029F0AC
S31508001A20D4FED3E708AACDE90182394622462846DC
S31508001A30CDF800A029F07AFDC8E79A42CED087E70C
S31508001A406FF0850298E76FF08602DCE76FF0850293
S31508001A50D9E700BF020080002DE9F043994600232C
S31508001A600C46016885B005461746039300295BD1E5
S31508001A7000F10808982240462DF0FCF8B9F1000F4D
S31508001A8020463B460CBF4FF400624FF4806203A920
S31508001A90FFF768FE0446002848D1039C384621888B
S31508001AA02A1DFFF7FDFD0646002844D16B7969F328
S31508001AB000036B716168D4E90823090AB9F1000FBC
S31508001AC020D0012915D01E48814200D0A9BB214645
S31508001AD04046009729F032FF044638BB04232B60A2
S31508001AE0039827F091FD002E18BF304605B0BDE8D3
S31508001AF0F08321464046009706F010FF0446A8B931
S31508001B000523ECE7012909D00D48814200D0A1B987
S31508001B1021464046009729F059FFDDE72146404611
S31508001B20009729F09AFEE9E76FF08804284627F01F
S31508001B306EFA2646D4E70446F8E76FF08604F5E71A
S31508001B40020080002DE9F04F00249B4601F0FE4379
S31508001B508FB0B3F1806F0F46DDE918689246DDF85D
S31508001B606890099440F085800B464FF4807209A965
S31508001B70FFF7F8FD054600287FD1099B1B8803F46B
S31508001B80E042B2F5005F1CD113F4E06F19D03F496B
S31508001B9027F480728A420AD001F500718F4206D076
S31508001BA03B498F4203D0A1F53F418A4209D101241E
S31508001BB0C3F302239C40102C0ED900266FF0830530
S31508001BC034E042F20402934202D1324B9F420DD0D6
S31508001BD0314B9F420CD10D24A04550D321460AA86B
S31508001BE0FFF740FD054620B100261FE00C24F3E769
S31508001BF000240998D0E908126EB306EB040C456870
S31508001C00A8EB04032D0A012D27D0DFF890E07545CF
S31508001C1000D07DBBCDE905390AAB0093CDE903BCFD
S31508001C203B46CDE9014A29F04EFE0546099827F0BC
S31508001C30EBFC07463DBB38BB24B1224630460AA911
S31508001C402DF044F8D9F800301C443846C9F800404D
S31508001C500FB0BDE8F08FB446D1E7CDE905390AAB38
S31508001C600093CDE903BC3B46CDE9014A29F0CEFDF8
S31508001C70DBE726466FF08605D8E72646D6E7002630
S31508001C806FF08905D2E72F460024DEE70010C0046E
S31508001C9000FF4004000180040013C0040200800015
S31508001CA0002307B51A460091024927F0A1FA03B0A6
S31508001CB05DF804FB88C8030810B5114C237858074B
S31508001CC044BF03F0FB032370990705D500F098F885
S31508001CD0237823F00203237063781BB10023094A93
S31508001CE0636053600023082106486370FFF7A4FB6E
S31508001CF02378DA0744BF23F00103237010BD00BF21
S31508001D00600E0020640E002038B51A4D6A782B78CC
S31508001D10022A01D1072B1DD0DC070BD429F06BFA58
S31508001D20044610B929F070FA04462B7843F00103EB
S31508001D302B70E4B9980707D400F05AF82B780446B4
S31508001D4043F002032B7090B96A780AB9D90704D40C
S31508001D505A0708D50024204638BD07496A604A60F4
S31508001D6002226A70F4E743F004032B70F2E7FFF7E8
S31508001D70A3FFF0E7600E0020640E002000F1404348
S31508001D80032B70B505460E460CD82822174C02FBC5
S31508001D900344237E022B02D1636983421ED06FF06F
S31508001DA08B0021E0012127F009FC70B10F4B0022BE
S31508001DB01C46197E022902D15969A9420BD0013263
S31508001DC0042A03F12803F4D1E9E76FF087000BE052
S31508001DD06FF0960008E0282303FB0244204627F00C
S31508001DE0E0FB0028F4D1346070BD00BF6C0E002003
S31508001DF00122024B002083F8A02070476C0E0020B9
S31508001E002DE9F0410A4C002526464FF00108032724
S31508001E102046C4F81C802776013526F07FFF042D5E
S31508001E2004F12804F4D1002386F8A030BDE8F08137
S31508001E306C0E0020F8B51E4D064695F8A0300F46E4
S31508001E4083B300242B462246197ED1B13CB9022918
S31508001E5005D1D96919B91979002918BF1C46013263
S31508001E60042A03F12803EFD114B96FF08C0006E0B9
S31508001E70204627F096FB204626F050FF10B1002496
S31508001E800EE01C46237E83B9012323763EB1651BEB
S31508001E90ED1003F1CC335D4305F180453560002034
S31508001EA03C60F8BD6FF08800E9E76FF09600E6E75A
S31508001EB06C0E0020F7B50026294B0E6093F8A0306B
S31508001EC007460D46002B48D0FFF758FF10F18C0F38
S31508001ED0044627D129463046FFF7ACFF044608BB1F
S31508001EE001232E68CDE900006946304677617360A4
S31508001EF001AA27F00CFC044628B9DDE90012304691
S31508001F0026F0C1FE0446DDE9000127F0FEFB28683D
S31508001F105CB126F003FF14F18C0F08BF6FF087043D
S31508001F2000232B60204603B0F0BD8368D90444BF64
S31508001F3043F4806383609A0444BF43F40063836078
S31508001F40037E012B04BF0223037627F02AFB0446EF
S31508001F500028E7D06FF09604E2E76FF08804E1E71F
S31508001F606C0E002030B40D4D2C681C606C685C60EB
S31508001F7000249C605468DC6014881C8254885C8247
S31508001F8094685C61D4689C61126930BCDA61196234
S31508001F900A46014603F124002CF098BE8CC80308B3
S31508001FA02DE9F843232904460F4691469846089E8C
S31508001FB004D86FF098052846BDE8F8830822194921
S31508001FC02CF02FFE05460028F3D1A368002BF0D18C
S31508001FD0216A243F8F42C8F80010EAD3B1F5005FA2
S31508001FE0E7D271B9C9F80000E3687360238A3380C1
S31508001FF0638A73806369B360A369F360E3693361D5
S31508002000D9E701202AF0CEF8C9F8000030B1D8F88F
S31508002010002004F124012CF059FEE5E76FF08C0549
S31508002020C9E700BF8CC8030808B507F08DF9014B4E
S31508002030186008BD100F0020024B0349186829F0E4
S3150800204037BD00BF100F002094C8030870B50C4CAC
S315080020500C490646206829F02BFD07F075F9054658
S31508002060206807F065F93046FFF7E6FF284607F0CF
S315080020705FF920680449BDE8704029F019BD00BF22
S31508002080100F002096C8030898C8030807B508204B
S3150800209027F065FC0222064B6846CDE9002327F0A7
S315080020A08AFB082003B05DF804EB27F063BC00BF89
S315080020B0006A18100348044A0449121A921027F0B5
S315080020C0D9BB00BFC00100086005000840C0062053
S315080020D008B5154B83F30A8800F030F8FFF7EAFFD6
S315080020E0124B13498B4212D30020124B12498B42D2
S315080020F018D3FEF781FC186850F82240586840F853
S315080021002240013298688242F5D30C33EAE700226E
S31508002110F8E71C6844F8220001325C68A242F8D34A
S315080021200833E4E70022F8E7000000200056040818
S315080021300C5604080C5604080C5604084FF4804143
S31508002140144B154A70B59A60D3F88820134D42F49B
S315080021507002C3F88820124A05F5005491664FF0BC
S31508002160FF3222666FF4003262660D22A2660222F0
S31508002170C3F8D020BFF34F8FBFF36F8F4FF44036AD
S31508002180002007F0C7F80020E66007F0A7F82E61E0
S3150800219070BD00BF00ED00E00000000800800044AC
S315080021A000900050014B1860704700BFE8C3062036
S315080021B0054B1860054B1B6F03F00703032B01D172
S315080021C038F062BB704700BFF0C30620008000509D
S315080021D030B5056887B0AB8804461848ADF80C30AA
S315080021E039F0FAFF0022012103A827F0D0FB0DF1F0
S315080021F00B0103A827F0DFFB9DF80B3083F00103E2
S315080022002B70AB79022B15D14FF0FF330022CDE9A5
S31508002210043304A90A4B009403A800F0CDF9049BE3
S31508002220009401330CBF04220122054B05A903A81B
S3150800223000F05CF9002007B030BD00BF30EE03089F
S31508002240A3980208002307B52948019339F0C4FF6B
S315080022504FF44073012204216846ADF8003027F098
S3150800226096FB0122234B0520C3F8442401A939F023
S31508002270AEFF002839D1204BD3F8F02042F00102F6
S31508002280C3F8F020D3F8FC2042F08072C3F8FC2093
S315080022901A4AA3F55D431A60019B194A03F5D5232B
S315080022A003F2FC43B3FBF2F3164A013B1361022324
S315080022B0C2F8F0304FF48073C2F804334FF060432D
S315080022C0114AC3F8B02F114AC3F8802ED3F8002E4E
S315080022D042F48072C3F8002EFF2283F82020D3F838
S315080022E0002E22F48072C3F8002E03B05DF804FBBA
S315080022F030EE030800D0035000ED00E0FF03004075
S31508002300F8590D00000004E055CEACC509000100DF
S315080023104FF06043D3F8802E30B5D20715D5012487
S315080023200B4D8440D5F8FC2042F08072C5F8FC209D
S31508002330D3F8002E2243C3F8002E53F82020002A93
S31508002340F0D003F82010002030BD1120FCE700BFB4
S3150800235000ED00E070B506460C46057839F02EFD0E
S31508002360737D01461BB139F024FD042070BD074B6F
S31508002370AA003CB1206813445860084639F019FD94
S315080023800020F3E713445C60F7E700BF0040045001
S315080023902DE9F84F9B46254B1646002914BF8A4659
S315080023A09A460127DAF80080044639F007FDD8F87E
S315080023B02C50B7403D40814605D039F0FAFC04253B
S315080023C02846BDE8F88F0A9B31465046C4E90335CE
S315080023D0C4F804A02670C4F808B0A58227F0D6FA77
S315080023E06368986839F0F8FE114B986839F0F4FE7E
S315080023F029462046FFF7AEFF072E13D82246314658
S31508002400284606F0A9FD0B4A3146284606F08CFDFB
S3150800241008F5805347F0004208F500585F635A658F
S31508002420C8F84070484639F0C4FCC9E744EE0308CA
S31508002430C8EE0308C3BE030870B5044601260C4D52
S3150800244004B970BD94FAA4F0B0FA80F006FA00F266
S3150800245024EA0204C200AA580F2805EBC001C8BF27
S315080024601038002AECD04968C0B29047E8E700BFA8
S31508002470140F002008B50C4839F0AEFE272006F0E8
S315080024803BFF28B1272006F045FF272006F026FF48
S31508002490282006F031FF28B1282006F03BFF282027
S315080024A006F01CFF002008BD30EE030848B10122E3
S315080024B0437801789A4030235943034B00205A50F9
S315080024C070472220704700BF40D0035048B1012210
S315080024D0437801789A4030235943034B00205A50D9
S315080024E070472220704700BF40E003502DE9F041B5
S315080024F00D4690461F460446002836D0002934D09B
S3150800250039F05CFC23780646FF2B05D04246204668
S31508002510296804F0BFFD28602868421C0BD123787F
S31508002520FF2B1CD1124B6078D3F8241428F09CFAA0
S31508002530431C286013D00F49069B41F8307001EB05
S31508002540C0014B602378FF2B04D001230A4A83403D
S31508002550C2F82434304639F02CFC002003E030461B
S3150800256039F027FC2D20BDE8F0812220FBE700BFCB
S3150800257000C00350140F002000D003500F2838B5B0
S31508002580054613D839F01AFC01230024084AAB4043
S31508002590C2F82034C2F82434064B43F8354003EB1E
S315080025A0C5035C6039F005FC204638BD2120FCE7F0
S315080025B000E00350140F00202DE9F0410D46904627
S315080025C01F46044650B349B339F0F8FB237806464C
S315080025D0FF2B05D042462046296804F0E1FD286015
S315080025E02A68531C14D00E49069B103241F83270E3
S315080025F001EBC2014B602378FF2B04D001239340E3
S31508002600084AC2F82434304639F0D3FB002003E0E8
S31508002610304639F0CEFB2D20BDE8F0812220FBE7BD
S31508002620140F002000D0035008B504F0D9FC054B60
S3150800263000F0553020F0A040C3F82004BDE808405B
S31508002640FFF7FABE00E0035008B504F0C9FC054BD5
S3150800265000F0AA3020F02040C3F82004BDE8084066
S31508002660FFF7EABE00E003502DE9F04F1446064690
S315080026700F4689B00393C36B01225B6904A960689E
S315080026809847F36B01225B6905A93846984704A861
S3150800269027F004FE054650B10023A37563754FF075
S315080026A0FF33A3600025284609B0BDE8F08F05A8CA
S315080026B027F001FE0123A375237E04EBC303DF6124
S315080026C01D846368BB420ED1206005A827F014FE5E
S315080026D04FF0FF332075A360237D043B022B26D8D9
S315080026E00023A375DEE723681A1A53425341A375DC
S315080026F005A827F001FE237D834218BFA57505A806
S3150800270027F0DDFD804604A827F0D9FD804518BFCF
S31508002710002305A818BFA37527F0D8FD804604A88E
S3150800272027F0D4FD80451CBF0023A375D4E705A870
S3150800273027F0C5FD80B1F36B022238465B6906A90E
S31508002740984706A827F0C9FD0346207D032839D8EF
S31508002750DFE800F03838040905A8F3E7CC22237E21
S3150800276004EBC3031A8401F0ADFA129B187005A88E
S3150800277094F8188027F097FD04EBC80888F822001B
S31508002780237E05A804EBC303B3F820A093F82280A0
S3150800279027F095FD814605A827F098FD8346B9F1EF
S315080027A0000F14D0F36B022238465B6906A99847D6
S315080027B006A827F058FD607568B90023A3754FF081
S315080027C000093CE0227E04EBC2021384CBE705A88D
S315080027D027F034FDEFE794F81690B9F1000FEED024
S315080027E0BAF1000F0DD1B8F1000F1DD00123E37522
S315080027F0637E002B3FD1B8F1010F30D184F81980E0
S3150800280014E0736C07EB0B015A4287EA0100104289
S315080028101CBF0022A2755A1E0A409B1A9A45CCD89C
S31508002820A37D002BDFD1CAE7E37D43B94FF000094A
S3150800283053465A463946304627F077FAA060A37DB4
S3150800284013B12269524422611F49227E09789142B6
S315080028501AD901322276039ACAB91D4623E796F891
S3150800286034307BB9F36A0133E2D1B8F1030FDFD113
S315080028700123A376DAE7B8F1010FE0D0B8F1030F28
S31508002880D4D1F5E79946D3E70023A3750BE7002BC8
S315080028903FF409AFE57D002DDFD0B9F1000F11D166
S315080028A0B8F1030F3FF4FFAEA1684B1C3FF4FBAE33
S315080028B0129B2246009330460123FFF7D5FE0546B4
S315080028C0A075F0E64D46EEE698EC03082DE9F04FC4
S315080028D00E46984600238BB004464FF0FF3110464B
S315080028E017468DF8133001F0D7F9B6F5801F20D2B8
S315080028F0314605AA04F1080027F01EFC451C0146CE
S3150800290003D1237CBBB92D2010E0384601F0C4F969
S315080029100122394620460DF1130327F058FA0028FC
S31508002920EFD09DF8133088F8003000200BB0BDE8D2
S31508002930F08FB01CE5D1E56A691C36D12046616A7C
S3150800294027F039F90546B31C18BF0123DFF8CC90E8
S315080029500193636A626C0293236805A902FB053A30
S31508002960E36B05225B695046984705A827F030FDBA
S3150800297027F053FD504627F05BFD4FF0000B8246CB
S3150800298001464B1C05D0636C81EA0A025B4213427E
S3150800299011D02946204627F00EF9029BAB422CD0CF
S315080029A0BBF1000F2CD10546D3E72368ED1A636CFB
S315080029B0B5FBF3F5C7E7484601F06EF90DF11303C9
S315080029C049462046019A27F002FA034690B1B21CFE
S315080029D003D0D9F80020B2420CD19DF813200393F6
S315080029E00D4B88F8002049461A6838462CF06EF9CF
S315080029F0039B9B46D9F80810C3E7BBF1000F82D0AA
S31508002A00B6F5801F91D2314698F800307A6804F1FD
S31508002A10080001F06FF888E794EC03088816002090
S31508002A202DE9F3410446174698460E46184D816A25
S31508002A30E36A8B4201D04B1C02D102B0BDE8F0819B
S31508002A40284601F029F90122294620460DF10703F7
S31508002A5027F0BDF938B14346294620469DF8072098
S31508002A60B8470028E9D0A9684A1C04D169682046F5
S31508002A7027F02EF90146012EDAD16B6881EA0302A6
S31508002A80636C5B421A4218BF4FF0FF31D0E700BFB4
S31508002A905C1600202DE9F0474FF0FF334FF6FF7222
S31508002AA00025044600F108078AB0C0E90923C36275
S31508002AB0056205633846884627F00FFB204626F050
S31508002AC0FAFF60BB2046414627F0C5F8204626F0A7
S31508002AD0F2FF60BB5E200AB0BDE8F0872368E26BB0
S31508002AE0606C566900FB0530052205A9B04705A8A4
S31508002AF027F06EFC012806460CD12946204627F009
S31508002B007BF8012E024600D101322946204626F0DE
S31508002B10F1FF03E027F086FC0028EED10135E369D2
S31508002B209D42DBD3204626F0C6FF0028CAD02046A1
S31508002B3026F0F1FF4FF6FF72636A934200F0A68013
S31508002B40E26B666C2068694606FB03005569052238
S31508002B50A847684627F013FC626A2368606C4C4DE8
S31508002B6000FB023027F064FC4FF0FF33A062E362FB
S31508002B702A466FF00101204605ABFFF7A7FE00289D
S31508002B8046D1AD6829462046E56226F070FF2063E7
S31508002B9020B92046E16A27F09BF8E06229462046DC
S31508002BA027F096F80546A36A9D4233D1204626F0BB
S31508002BB01CFF00268046B146E36999453CD3B045DB
S31508002BC059D92046616A26F0F6FF0027054604F122
S31508002BD0400AB74212D3626C2368694602FB05397C
S31508002BE0E36B05225B6948469847684627F0C7FBAA
S31508002BF0534602464946E06B27F01CFC2946204608
S31508002C0026F0D9FF0137B8450546E2D1642062E7C8
S31508002C10A56AB7E72946204626F029FF236B2946E9
S31508002C20034406462363204627F052F80546002E3D
S31508002C30B9D1C4E90B06B6E7636C2568052203FB20
S31508002C400955E36B05A95B692846984705A827F047
S31508002C50BFFB27F0E2FB58B1284627F0E9FB0146FF
S31508002C60204626F004FF636C143B984208BF0136E1
S31508002C7009F10109A0E7384627F02FFA0023204674
S31508002C801946044AFFF7CCFE002024E7672022E70E
S31508002C90B4160020BD9D02082DE9F041036B90464D
S31508002CA0826B90B09A4288BF8363426C436A076816
S31508002CB00E4602FB0377C36B01A905225B6904462E
S31508002CC03846984701A827F083FB0128014630704B
S31508002CD057D0656CE26B2368606AD2F814C005FBAE
S31508002CE00030052206A9E04706A827F071FB01284F
S31508002CF04FF0000523D0D4E90A3201219342CDE9E9
S31508002D000B458DF834800E958DF83C102AD119465E
S31508002D10204626F0DDFF236B626C14339B1AE062B3
S31508002D2023630C9B53B99DF83C303BB1626A616CD6
S31508002D302368E06B01FB023127F002FB0C9DE36B75
S31508002D4005225B6901A93846984701A827F040FB88
S31508002D5030702846236BA26B9A4288BFA36310B0D3
S31508002D60BDE8F081237C33B91C490BAA04F108009D
S31508002D7000F00EFFD5E72046194A0BABFFF750FEC9
S31508002D80CFE7237C23BB2246164904F1080000F04E
S31508002D90FFFE616A204626F02FFF616A421C204624
S31508002DA026F0A8FE054620B9236B626C1344143B33
S31508002DB023632046A16A26F08BFF2368A062C01A07
S31508002DC0636CB0FBF3F06062204626F0C4FFB6E7FA
S31508002DD000232046044AFFF723FEDAE70D350008EC
S31508002DE089340008579E0208F39D020873B50D46FC
S31508002DF0D11E4A421C461B7E4A419A4226D1296860
S31508002E002368994222D3636899421FD8114E0DF15F
S31508002E1007033246FFF75AFDC0B972686B689A42D3
S31508002E2014D19DF80730DA1E53425341227E93424D
S31508002E300CD1636901336361D4E90323934205D254
S31508002E402968A26842F8231001332361012002B0E1
S31508002E5070BD00BFB41600202DE9F04F9A468BB01E
S31508002E609DF85030DFF850B10293DBF810308046F9
S31508002E7053450D461646C0F09880D146DBF8043017
S31508002E800193B9F1000F00F08C80D8F83C3001228C
S31508002E905B6907A90198984707A827F00CFADBF899
S31508002EA00030984240F0848007A827F00FFA0428DB
S31508002EB0074614D107A827F010FA019B029A044680
S31508002EC03B44002A3ED1864212D91446361A404659
S31508002ED0019926F0FDFEA9EB04090190D1E7D8F87F
S31508002EE03C3002225B69019808A9984708A8E2E7DE
S31508002EF0841B544528BF5446032C03EB0607AAEB4C
S31508002F00040A1DD9D8F83C30294638465B69A20818
S31508002F10984724F0030304F003061F441D44002EBB
S31508002F20D5D0D8F83C3001225B6908A938469847BD
S31508002F303246284608A935442BF0C8FE0026C6E7BF
S31508002F402646ECE7074600F00302039203442A18D4
S31508002F5004920593049BDD1B059BD81B039B9F428C
S31508002F600FD1002FB3D0D8F83C30012208A95B69ED
S31508002F7098473A46284608A92BF053FE78B93D44A7
S31508002F80A5E7D8F83C30012208A95B6998470422CE
S31508002F90284608A92BF045FE08B9043FDAE74FF0A2
S31508002FA0360948460BB0BDE8F08F4FF06309F8E7DD
S31508002FB04FF06F09F5E700BFE01600202DE9F04154
S31508002FC00F4616469846044688B060B390F83450C3
S31508002FD0FDB1012126F064FD00210E9BCDE9051106
S31508002FE0CDE902379DF83C30CDF804808DF81C30C9
S31508002FF0237C04968BB90D4901AA04F1080000F058
S31508003000C7FDDDE90553E06B002E08BF1D4626F017
S3150800301030FF284608B0BDE8F0812046044A01ABD7
S31508003020FFF7FEFCEDE70546F3E700BF219E020821
S31508003030ED2D00082DE9F04F99B0CDE90B230E468A
S315080030400A69416CD31D1439B3FBF1F3013302EB62
S31508003050C302036B04469342C0F00F820023DFF8D5
S3150800306020940993E36A48461946079300F014FE2C
S31508003070D6E9033705930C9B022B1CD1CC2F40F0C5
S3150800308074810B9B8BB13146204626F050FF656C48
S3150800309014900B9B63B1E36B01225B69706816A9F8
S315080030A0984716A827F00BF90CE0059B1B681493A4
S315080030B008230E930DE0782F656CEAD80B9B002B3E
S315080030C0E9D1F07D00280CBF04230823782F0E933E
S315080030D028D9012300250893082303933368089900
S315080030E00C98C9F80030C9F8107027F009F90023C0
S315080030F00F930D9306930A93039BDDF81CA09B0878
S3150800310089F814001193616C03984A1E0AEA0202B0
S315080031108B1AEFB10544AB421CD8236B5B1A1344D8
S31508003120236386E0079A6B1E1340EB1A3A1D9342F7
S3150800313007D257B1082BCCD800230425089303954A
S31508003140CCE7002504230895C7E704250897F6E782
S315080031508342E2D3039AB8469B1A9F4228BF9846F1
S3150800316052449F42049278D90123D9F8102089F84D
S315080031701730974276D1C9F804A0069399F8173004
S31508003180002B71D099F818200699D31C09EBC303B4
S315080031900132C3F804A0A3F80880997289F81820A8
S315080031A0B8F1000F14D00C9B022B60D10F9B7BB992
S315080031B00D9B4344032B0BD9E36B01229B690498AF
S315080031C014A998470546002840F0D58001230F9397
S315080031D0069B16A80193089B009399F8142043466A
S315080031E0316800F00FFDE36B50469B69119A16A9EA
S315080031F09847051E099B18BF5346039A09935146DB
S315080032004346204626F091FD236B039AC9F8080029
S315080032109B1A08F1030222F003029B1A2363002D6E
S3150800322040F0A9800D9BDDF810A04344A7EB0807E2
S315080032300D935146204626F04BFD00258246002F69
S315080032407FF461AF8E4A3168936804F10800E3623F
S3150800325052680C9B00F04EFC89E0069B002B18BFB9
S3150800326003238AE7022388E7C9F804A098E70B9B9B
S31508003270002B30D1059BB8F1030F03EB080B27D9B8
S31508003280DDE90401E36B4FEA98029B699847054616
S31508003290002864D118F003025ED0059B28F00305C8
S315080032A02B440593049B1D444FF0FF33059915A83D
S315080032B015932BF00BFDE36B284601229B6915A994
S315080032C098470546CDF814B0002D81D0049B94E7A5
S315080032D04246049DE8E706F12003DDF810B0109396
S315080032E0F37D70689BB10023357E0A9AD9B2A9424C
S315080032F011D2109903F1010C31F83310914225D9F6
S315080033000E9906EBC303D8690A44104403E00E9BE2
S315080033100A9A13441844E36B01225B6915A9984776
S31508003320159B012213930A9B584604330A93E36BB1
S3150800333013A99B699847049B05464344A3EB0B03D3
S31508003340042B06D970B90BF1040BC9E76346521A68
S31508003350CCE7CDF810B0B7E7CDF814B038E7CDF81C
S3150800336014B0B3E7CDF810B0B0E770252F4638464D
S3150800337019B0BDE8F08F3D2DF8D104F10803039389
S315080033802368079A606CD71AB7FBF0F700FB07307B
S3150800339027F04EF8E16A8246204626F099FCA16A93
S315080033A0D4F830E08142626C59D0D9F8083002F17D
S315080033B0FF3CAEEB020103EA0C030B4423630999B5
S315080033C02368E062CB1AB3FBF2F847453BD1079B6B
S315080033D0B3EB0A0711D0E36BBA0851469B699847C5
S315080033E08346E36A079A3B44E362236B03989B1A76
S315080033F05344236326F071FE5F462368616CE06BD5
S3150800340001FB083126F089FF204626F054FB2046AA
S3150800341026F081FB626A2368606C00FB023027F0A5
S3150800342007F8A062204626F096FC20636FB1326941
S31508003430616CD31D1439B3FBF1F3013302EBC302FC
S3150800344090429DD292E70027D7E704F1080026F0BC
S3150800345044FE3B46394620460A4AFFF7E1FA3269F6
S31508003460616CD31D1439B3FBF1F3013302EBC302CC
S31508003470236B9342BFF4F6AD78E71C2777E700BFC6
S3150800348088160020BD9D0208032A2DE9F341064649
S315080034900D4617461C4606D1237A012B23D0012058
S315080034A002B0BDE8F081DFF86080096842460DF198
S315080034B00703FFF70BFA60600028EDD19DF8073087
S315080034C0032BE9D0D8F804206B689A42E4D1237A12
S315080034D02969012BD4F80CC007D172690CEB0103DA
S315080034E0934202D92074207CDAE708316144E1600E
S315080034F03B46012229463046FFF79CFD60600028BE
S31508003500CAD00020CCE700BFB41600202DE9F3414D
S31508003510032A1746089C06D1237A012B25D00120B9
S3150800352002B0BDE8F0812668DFF890803046424652
S315080035300DF10703FFF7CAF960600028ECD125688A
S31508003540D8F80400A96A6A6C4840534210EA030C8A
S31508003550E2D1237A012B0AD1E068D8F81030034467
S315080035607069834203D984F810C0207CD8E728689C
S31508003570EB6A1B1A081AB3FBF2F3B0FBF2F08342AC
S315080035800BD1706CF36A421E1340326B121A134445
S315080035902846336326F09CFBE862D8F81020E368D7
S315080035A008321344E36001223B4604492068FFF7CA
S315080035B041FD60600028AFD00020B1E7B4160020B6
S315080035C02DE9F0410025604B0E46D3F800800446ED
S315080035D01D6018B921252846BDE8F08190F8347099
S315080035E007B30A6803689A4240F0A4804A684368A9
S315080035F09A4240F09F808A6883689A4240F09A808F
S31508003600CA68C3689A4240F095800A6943699A4233
S3150800361040F090808A69C36B9A4240F08B804B6970
S315080036208361D8E768223946856B2BF023FBD6E9F8
S315080036300212336804F1080023607368A5636360A7
S31508003640336963617369A36126F059FDB36904F1AF
S315080036504000E3639B68984720B9676C17B16368B5
S31508003660B3FBF7F794F84330E761002BB2D0002399
S31508003670656C2366002D65D0002F63D02368B3FBE5
S31508003680F5F205FB1233002B56D16668B6FBF5F347
S3150800369005FB1363002B4FD1204626F0D8F9A36902
S315080036A0043303449E4249D340F634726369CC3BE3
S315080036B0934245D8B5F5805F44D30321204626F0CA
S315080036C0EFF9D4E90001E36B1B6898470546E36BFD
S315080036D00220DB689847D5B941462046FFF7DAF954
S315080036E06428054604D141462046FFF7D3F9054626
S315080036F06DB9636C226A143B204602FB03F626F07A
S31508003700A6F9A369043303449E4238BF5A25002DFF
S315080037100CBF0123002384F8343007D1D4E9000113
S315080037200A4A13680133136026F083FDE06B26F01E
S31508003730A0FB50E75D254EE759254CE75A254AE791
S315080037405F2548E75B2546E718100020141000207F
S315080037502DE9FF410C4616461F46054688B390F8E4
S31508003760343083B3B1F5801F2FD2DFF8648001218E
S3150800377026F096F94246214628460DF10F03FFF733
S31508003780A5F80246C8B99DF80F30012B10D1D8F814
S315080037901030BB4213D1009031462846FFF75CFB38
S315080037A00446E86B26F065FB204604B0BDE8F081C8
S315080037B0022B0CBF60242D24F3E72D24F1E76324A4
S315080037C0EFE72124F0E71124EEE72924ECE700BF10
S315080037D0E01600202DE9F04385B00E4617461C4634
S315080037E00546DDF83080A0B390F834309BB3B1F5C8
S315080037F0801F32D2DFF86890012126F051F94A4637
S31508003800314628460DF10F03FFF760F8E8B99DF831
S315080038100F30012B14D1D9F8102004EB08039A4273
S3150800382015D322460090434639462846FFF714FB2F
S315080038300446E86B26F01DFB204605B0BDE8F0837C
S31508003840022B0CBF60242D24F3E72D24F1E7632413
S31508003850EFE72124F0E71124EEE72924ECE700BF7F
S31508003860E01600202DE9F3411E4600230C461746B4
S315080038700546336050B390F834304BB3B1F5801F2A
S3150800388028D2DFF85480012126F00AF9214642465B
S3150800389028460DF10703FFF719F80446A0B99DF865
S315080038A00730032B10D0022B03BF01233B600423F0
S315080038B0D8F8103018BF38603360E86B26F0D9FAAC
S315080038C0204602B0BDE8F0812D24F6E72124F7E76B
S315080038D01124F5E72924F3E7E016002073B504461A
S315080038E0416926F099F8626E236B024493422CBF15
S315080038F000220122834294BF00231B1A207C84F8ED
S315080039005020636584F85800A8B100230B4E1A4668
S3150800391019462046009626F0CEFB002305461A4691
S3150800392019462046009626F0CFFBE36828449842BD
S3150800393094BF0020C01AE06502B070BDFFFF0F00FB
S315080039402DE9F3471E4643690446B342884617469F
S315080039509DF828904FD300258DF8075020466169B9
S3150800396026F05AF8D4F830A082450AD2236AB5EB75
S31508003970430F06D2002220460DF10701FFF78CF906
S31508003980B8B39DF80730012B05D1002220460DF16A
S315080039900701FFF781F9B9F1030F06D03146204632
S315080039A026F03AF8256B854227D3154D4FF0FF319F
S315080039B0284600F071F94B46294600222046C5E9FB
S315080039C00376C5F80080FFF735FB236E054663B11D
S315080039D02046FFF783FF94F8503013B994F858300F
S315080039E01BB1236E04F150009847284602B0BDE883
S315080039F0F0870135B2E76225F7E71C25F5E700BF32
S31508003A00B41600202DE9FF410F4690461E4605468E
S31508003A1098B390F8343093B3B1F5801F31D21A4C6D
S31508003A20022126F03DF82246394628460DF10F03B5
S31508003A30FEF74CFF024678B1012342460093394609
S31508003A4033462846FFF77CFF0446E86B26F011FA52
S31508003A50204604B0BDE8F0819DF80F30012BEBD16C
S31508003A602169B142E8D10093414633462846FFF71B
S31508003A70F3F904460028DFD1E7E72124E8E7112413
S31508003A80E6E72924E4E700BFE016002030B50C4637
S31508003A90054685B028B390F8343023B3B1F5801FB6
S31508003AA023D2022125F0FCFF0DF10F0321462846FB
S31508003AB00F4AFEF70BFF034688B99DF80F20032A25
S31508003AC00DD003222146009202462846FFF738FF0A
S31508003AD00446E86B26F0CDF9204605B030BD2D2406
S31508003AE0F7E72124F8E71124F6E72924F4E700BFCD
S31508003AF0E01600202DE9F043466886B30568984627
S31508003B004FF0000CA946AE4655F83C400CF1010CA6
S31508003B10C4F31307013401D0B94217D0B4450EF1E6
S31508003B20080EF1D12F46002403E0B44207F1080736
S31508003B3012D055F8343001340133F6D1C1F31301EC
S31508003B4041EA0851C7E90012BDE8F08341EA085185
S31508003B50CEE90012BDE8F083B8F1030F03D10123C3
S31508003B600372BDE8F083002303E0B34209F10809B4
S31508003B70F5D055F833400133C4F30754032CF4D178
S31508003B80C1F3130343EA0853C9E90032BDE8F083D9
S31508003B902DE9F0410646406882B0B8B10F46904616
S31508003BA00024336853F8345003EBC403C5F30752B3
S31508003BB0C5F31301013506D05B683046CDF80080A1
S31508003BC0B84718B1706801348442EAD302B0BDE838
S31508003BD0F08100BF024B1968024B1868FFF7F0BC6A
S31508003BE0F4C3062014C4062008B538F0DEF8014BE5
S31508003BF0186008BD0C170020014B186838F0D0B8BB
S31508003C000C17002073B504462248012A00EAC111A0
S31508003C109DF8185023F07C4007D9961E012E28D906
S31508003C20073303F07F03194308E09DF81C300A4365
S31508003C30DB0603F0C053134343F060410023C4E995
S31508003C4000108DF80730B5B1202221460DF1070086
S31508003C5026F00AFC1A220DF10700211D26F004FCA5
S31508003C60082063689DF8072043EA8263636002B010
S31508003C7070BD1143E2E71B220DF10700214626F02D
S31508003C80F3FB23689DF80720042043EAC2632360F8
S31508003C90EDE700BF80FFFF0738B5094B0D461A68E8
S31508003CA0002104462AF0E6FF00234FF0FF32238363
S31508003CB0C4E900252361A260E382A37638BD00BF6C
S31508003CC094EC03080138C0B205289ABF014B185C6A
S31508003CD00120704799EC03082DE9F041074615467F
S31508003CE000240E46596888B0490A012922464FEA37
S31508003CF0510104F10104F8D8DC78997824031B886B
S31508003D00C90201F4006104F480540C43C3F30A03A6
S31508003D105203234492B24FF000089C18274B6FEACF
S31508003D200444039325F07843ED4302A90DF10700F7
S31508003D301B2202938DF8078026F096FB9DF8072034
S31508003D40029B02A943EAC2630DF107001B2225F074
S31508003D507845049302958DF8078026F085FB9DF833
S31508003D600720029B6FEA144443EAC26305934FF0A7
S31508003D70FF330794069307A9BB69012206F11000D1
S31508003D809847BB6905A90446012206F10800984729
S31508003D90BB69404518BF044604A90122301D98474F
S31508003DA00122404518BF0446BB69304603A9984717
S31508003DB0404508BF204608B0BDE8F08101009AB228
S31508003DC07FB500210546084604F0E0FF00200DF106
S31508003DD00E0105F061F8064658B90DF10F0105F018
S31508003DE05BF89DF80E20044638B11146304605F0BA
S31508003DF079F80F4C204604B070BD05F12406034639
S31508003E0000900C493046FEF7C3FA696D304605F155
S31508003E103C06FEF79FFA3046074B9DF80F200549EA
S31508003E200095FEF7B5FA3046A96DFEF793FAE1E775
S31508003E30092000F044EE0308D9A4020801292DE957
S31508003E40F84304D90239012948D9BDE8F883474B14
S31508003E50474D1C68474E484FA83C14F1A80FF4D0AC
S31508003E60D4F80080454B98450AD0454B984509D06B
S31508003E7003F58043984505D003F58043984501D05E
S31508003E80237F03BB0521404626F000FC3B4B9845A3
S31508003E901DD03B4B98451CD003F5804398451AD056
S31508003EA0384AA3F5A723A3F54373904514BFB9462B
S31508003EB0994637F07AFFD9F8003043F01803C9F865
S31508003EC0003037F06DFFD4F8A840A83CC5E7A946EE
S31508003ED0EFE7B146EDE7DFF8B090EAE7234B244D6C
S31508003EE01C68244E244FA83C14F1A80FADD0D4F872
S31508003EF00080224B98450AD0214B984509D003F5F6
S31508003F008043984505D003F58043984501D0237F23
S31508003F1003BB0021404626F0B9FB184B98451DD037
S31508003F20174B98451CD003F5804398451AD0154A77
S31508003F30A3F5A723A3F54373904514BFB94699463D
S31508003F4037F033FFD9F8003023F01803C9F80030EA
S31508003F5037F026FFD4F8A840A83CC5E7A946EFE7FE
S31508003F60B146EDE7DFF82090EAE700BF101700201A
S31508003F7094C40350B4C4035074C403500000015BD6
S31508003F8000C0085000400950D4C403502DE9F04140
S31508003F900B68A54A054693420C468EB00BD0A34A39
S31508003FA0934208D002F58042934204D002F580423B
S31508003FB0934240F0F1809E4F37F000FF3B68A83BE4
S31508003FC013F1A80F16D19B4E37F0F3FE0FCE0DF165
S31508003FD0180CACE80F0096E80F0010368CE80F00B6
S31508003FE00FCE0DF1040CACE80F0006AB05936DB9C6
S31508003FF0914C04E09D4206D137F0DBFE8F4C2046FB
S315080040000EB0BDE8F081D3F8A830D8E7AC2200217D
S3150800401028462AF02FFE2368834A93420CD0834A07
S3150800402093422BD002F5804293422CD002F580426F
S3150800403093422DD0824CE2E7002682488249834A81
S315080040402B600123A64685F8843005F1040CC5E9E2
S315080040501512A867BEE80F00ACE80F009EE80F002F
S315080040608CE80F00637E012B08BF8DF81D30A37EF8
S31508004070032BDFD8DFE803F014118688012674487D
S315080040807449754ADCE7022674487549754AD7E7C4
S31508004090032675487549764AD2E704238DF8123007
S315080040A0227EE368012A4FF000026FD171498DF82C
S315080040B011208B429CBF05238DF835306E4B6F4817
S315080040C0039338F089F8AB6F986838F085F8236958
S315080040D0DA1F092AAED8063B8DF81030237E2BB995
S315080040E0E37EB3FA83F35B098DF81C300121284679
S315080040F026F013FA01A9206802F090F8237A2279AB
S31508004100760142EA034206F1A04303F57033C3F889
S31508004110AC24617A627942EA0142C3F8A424A17AFE
S31508004120A27942EA0142C3F8A8241C22C3F89424BF
S31508004130E27E4AB9E17AE27942EA0142C3F8982472
S31508004140012141F29442995037F038FE4C4B1A78C7
S31508004150FAB901221A7037F02CFE06F043FA2846FF
S31508004160FFF72EFE0446002840F022813B681BB963
S315080041704449454806F0C4F82D4805F1A80125F03C
S3150800418057FB3CE7022389E7062387E78DF83420A7
S3150800419095E737F00EFEE2E73C4F06AE0FCF0FC6A7
S315080041A097E8070086E80700002D3FF421AFAC2208
S315080041B0002128462AF05EFD2368354A93420ED030
S315080041C002F58042934229D002F5804293427FF459
S315080041D031AF4FF002082F482F49304A04E04FF01C
S315080041E000082F482F49304A2E462746C5E915129A
S315080041F0A86746F8043B0FCF0FC697E80F0086E876
S315080042000F00637E012B08BF8DF82630A37E032B93
S315080042103FF610AFDFE803F05450B4B74FF001088B
S3150800422022482349234ADFE70000015B00C0085003
S3150800423010170020A0EC0308012000F00A2000F067
S31508004240022000F018EF030880EF030884EF030844
S3150800425004EF030878EF03087CEF0308F0EE030881
S3150800426070EF030874EF0308DCEE030868EF030831
S315080042706CEF03083F4B4C0040420F0030EE03083A
S3150800428020BE062018C4062014170020D4EC030804
S3150800429000000A505CEE030834EF03083CEF0308FD
S315080042A09CEE03085CEF030864EF03087CEE030842
S315080042B048EF030850EF03084FF40073ADF82830B1
S315080042C0237E3C48012B03BF00238DF825304FF48D
S315080042D0E133E368089337F07FFFAB6F986837F0F0
S315080042E07BFF23691A1F0C2A3FF6A4AE033B2068FE
S315080042F006A98DF8243026F003FBA3696FF317236C
S315080043002BB94FF480322B6803F580539A60237AD1
S315080043102679607946EA0346637AA17940EA03403A
S31508004320E77EA37A244A41EA03414FEA48136FBB62
S315080043301A44C2F83868C2F83008C2F83418E17A64
S31508004340E27903F1A04342EA014203F57033C3F868
S3150800435024281D22C3F820280121284626F0DDF846
S3150800436037F02CFD154B1A78FAB901221A7037F076
S3150800437020FD06F037F92846FFF722FD04463EE6FB
S315080043804FF480739AE74FF4407397E71344C3F8E2
S315080043903868C3F83008C3F834181C2308F14108F4
S315080043A04FEA481842F80830D6E737F002FDE2E748
S315080043B0034C24E630EE030800C0035020BE062056
S315080043C0092000F0044BD3F88420D206FBD4D3F896
S315080043D08400C0F3811070470040005038B5174B71
S315080043E00546D3F828310C4603F00703013B052B95
S315080043F020D8DFE803F003131B0F0B1736F01EFA5D
S31508004400052305B1286004B1236038BD36F016FAD5
S315080044100623F6E736F05CFA0723F2E736F04EFA9B
S315080044200323EEE736F04AFA0423EAE736F042FABF
S315080044300223E6E700231846E3E700BF00800050A2
S31508004440002337B50193164B0546D3F820320C46A0
S3150800445003F00703042B21D8DFE803F0030B11163A
S315080044601B0001230DB1019A2A6004B1236003B031
S3150800447030BD002101A8FFF7B1FF1223F2E736F09D
S3150800448027FA07230190EDE737F09EFC0A230190EF
S31508004490E8E736F071FA09230190E3E70023E1E73C
S315080044A00080005038B5104B0546D3F850320C46FC
S315080044B003F00303022B12D0032B08D0012B0AD0DA
S315080044C00023184605B1286004B1236038BD37F0CB
S315080044D07EFC0C23F6E737F077FC0A23F2E736F082
S315080044E04BFA0923EEE700BF0080005038B5104BA1
S315080044F00546D3F880300C4603F00303022B0BD095
S31508004500032B0DD0012B0FD136F09EF90E2305B1E2
S31508004510286004B1236038BD36F0DAF90723F6E7D8
S3150800452036F08CF90623F2E700231846EFE700BFBA
S315080045300080005038B5104B0546D3F800310C46BC
S3150800454003F00303022B0BD0032B0DD0012B0FD145
S3150800455036F0B4F9032305B1286004B1236038BDE9
S3150800456036F00AFA0923F6E736F0AEF90823F2E739
S3150800457001230020EFE700BF0080005038B5184B34
S315080045800546D3F820010C4600F00700062823D874
S31508004590DFE800F0040A0E16121A1E00012305B100
S315080045A0286004B1236038BD36F048F90523F6E7DC
S315080045B036F084F90323F2E736F08AF90723EEE7A3
S315080045C036F078F90223EAE736F038F90623E6E703
S315080045D036F074F90423E2E700231846DFE700BF44
S315080045E00080005038B5104B0546D3F840310C46CC
S315080045F003F00303022B0BD0032B0DD0012B0FD195
S3150800460037F0E2FB0A2305B1286004B1236038BD00
S3150800461036F0B2F90923F6E737F0D9FB0C23F2E7AF
S3150800462001230020EFE700BF00800050002337B5C4
S315080046300193164B0546D3F860320C4603F0070380
S31508004640013B032B1FD8DFE803F0020E19140021E3
S3150800465001A8FFF793FF10230DB1019A2A6004B150
S31508004660236003B030BD002101A8FFF7BBFF11236B
S31508004670F2E736F02DF907230190EDE736F01AF93F
S3150800468002230190E8E70023E6E700BF0080005018
S31508004690002337B50193164B0546D3F894320C46DA
S315080046A003F00703013B032B1FD8DFE803F0020ED4
S315080046B01914002101A8FFF761FF10230DB1019A13
S315080046C02A6004B1236003B030BD002101A8FFF7BA
S315080046D089FF1123F2E736F0FBF807230190EDE78F
S315080046E036F0E8F802230190E8E70023E6E700BF82
S315080046F00080005038B5104B0546D3F860310C469B
S3150800470003F00303022B0BD0032B0DD0012B0FD183
S3150800471037F05AFB0A2305B1286004B1236038BD77
S3150800472036F02AF90923F6E737F051FB0C23F2E7AE
S3150800473001230020EFE700BF008000502E4B98426F
S315080047404AD022D82D4B984240D014D82C4B9842A8
S3150800475039D00AD82B4B984232D02B4B98422FD0BF
S315080047602A4B98422CD000207047294B9842FAD100
S31508004770284B186F7047284B98422AD0274B9842E7
S31508004780F1D1244BD3F880007047254B98422BD0A3
S3150800479009D8244B984223D0234B9842E3D11D4B8A
S315080047A0D3F88C007047214B984221D003F5740347
S315080047B003F510539842D6D1164BD3F89800704794
S315080047C0144B986D7047134B586E7047114B586FC2
S315080047D07047104B986F70470E4BD3F8840070479C
S315080047E00C4BD3F8880070470A4BD3F890007047F3
S315080047F0084BD3F8940070470048E8010024F400F9
S31508004800C0CF6A0080841E0000093D0040420F00A8
S31508004810405DC6000080E00FC0EA210180BA8C0125
S31508004820007E560380D54302006CDC020090D0035C
S3150800483073B50D460021114B0191D3F88041064608
S3150800484004F00304022C13D0032C0CD0012C13D132
S3150800485001A8FFF793FE10240EB1019B336005B142
S315080048602C6002B070BD36F033F807240190F3E7E8
S3150800487036F020F80190EFE70C46EDE7008000508F
S3150800488038B5104B0546D3F840320C4603F00303FF
S31508004890022B0BD0032B0DD0012B0FD137F094FA36
S315080048A00A2305B1286004B1236038BD36F064F8E0
S315080048B00923F6E737F08BFA0C23F2E701230020E9
S315080048C0EFE700BF0080005038B5144B0546D3F813
S315080048D000020C4600F0070004281BD8DFE800F0A9
S315080048E003090D111500012305B1286004B12360E1
S315080048F038BD37F069FA0A23F6E736F03DF809239A
S31508004900F2E737F064FA0C23EEE735F0BDFF0F2324
S31508004910800AE9E700231846E6E700BF0080005052
S3150800492038B5144B0546D3F808020C4600F00700C4
S3150800493004281BD8DFE800F003090D111500012330
S3150800494005B1286004B1236038BD37F03DFA0A2363
S31508004950F6E736F011F80923F2E737F038FA0C23B0
S31508004960EEE735F091FF0F23800AE9E700231846A2
S31508004970E6E700BF00800050B0F5207F1FD009D8B9
S31508004980B0F5007F15D003D868B1B0F5C07F0AD05E
S3150800499000200CE0B0F5607FFAD10B4BD3F880000D
S315080049A0C0F3011003E0084B186FC0F30330013061
S315080049B07047054BD3F89000C0F30460F7E7024B45
S315080049C0186FC0F38020F2E70080005002464FF4CB
S315080049D08030104B10B598660020FFF7CDFF504386
S315080049E041F671320C4BDC69DA635A6804F4803498
S315080049F022F4401259B90949884294BF002001207F
S31508004A00000502435A600CB10022DA6310BD04495E
S31508004A10F2E700BF0090005000000350005A6202FF
S31508004A20002D31014209531E022B96BF074B002366
S31508004A3003EB820300F01F0029B103F5805301221E
S31508004A4082401A60704703F50053F8E7608000500B
S31508004A501FB50021B0F5807F0446CDE9001100F0AE
S31508004A60CF803BD8002800F0A480A0F12004602C59
S31508004A7044D8602C42D8DFE804F09CA49CA4B4B4C3
S31508004A80B4B4B4A4BE4AD46A4AA4A4A441414141D8
S31508004A9041414141A4A4A47CDEA441414141414194
S31508004AA0414141414141E3B49C9C9CD94A4A88E82A
S31508004AB05FB94141414141939C41B4B4B4B4B4B9DE
S31508004AC0B9A441A4A4414141414141414141414127
S31508004AD0414141414141414141419800B0F5E06FB2
S31508004AE000F0A98038D8B0F5607F75D01AD8B0F52F
S31508004AF0007F61D005D8B0F5C07F5AD0009804B0C1
S31508004B0010BDB0F5207F5CD0B0F5407FF6D135F00A
S31508004B10BBFE02464FF42070FFF72EFFB2FBF0F201
S31508004B20520857E0B0F5B06F65D00AD8B0F5806F77
S31508004B3057D0B0F5A06FE1D100216846FFF780FC99
S31508004B40DCE7B0F5C06F6CD0B0F5D06FD6D10021D8
S31508004B506846FFF7B9FED1E7B0F5186F70D00DD8E3
S31508004B60B0F5086F7FD0B0F5106F5FD0B0F5F06F75
S31508004B70C4D100216846FFF7BDFDBFE7B0F5286F31
S31508004B8063D007D8B0F5206FB8D100216846FFF783
S31508004B904DFDB3E7B0F5406F28D0B0F5486FADD1FD
S31508004BA000216846FFF774FDA8E735F04DFE009032
S31508004BB0A4E735F069FEFAE735F046FE02462046D8
S31508004BC004E035F061FE02464FF42070FFF7D4FE8C
S31508004BD0B2FBF0F2009291E701A8FFF787FC019A71
S31508004BE0EDE700216846FFF7C9FC87E7002168461C
S31508004BF0FFF7F4FB82E700216846FFF719FE7DE719
S31508004C004FF0E02302911B695B0705D535F03CFEA2
S31508004C100290029B009371E703A902A8FFF7E2FC42
S31508004C20F7E700216846FFF7DDFC67E700216846DD
S31508004C30FFF776FE62E700216846FFF721FE5DE78B
S31508004C4000216846FFF72EFC58E70021084B039120
S31508004C50D3F8703203F00303012B02D103A8FFF740
S31508004C60C1FC039BD6E76846FFF764FC46E700BF2E
S31508004C700080005008B58020FFF7EAFE034B9842F3
S31508004C809EBF4FF48032024B1A6708BD005A620273
S31508004C9000A000501FB503460020B3F5807F0190A1
S31508004CA000F0F48000F28E80662B7DD83C2B06D867
S31508004CB0243B092B5ED9019805B05DF804FB3D3B02
S31508004CC0292BF8D801A252F823F000BFAF4E0008EE
S31508004CD0DD4E0008B74C0008B74C0008B74C000872
S31508004CE0B74C0008B74C0008B74C0008B74C00088A
S31508004CF0B74C0008B74C0008B74C0008B74C00087A
S31508004D00B74C0008B74C0008E74E0008834E000869
S31508004D10B74C0008B74C0008B74C00082B4E0008E3
S31508004D20B74C0008B74C0008454E0008F14E00087D
S31508004D30ED4D0008D34E0008B74C0008B74C0008E4
S31508004D40B74C0008B74C0008B74C00085D4E000881
S31508004D50B74C0008B74C0008834E0008834E00087D
S31508004D60834E0008834E0008834E0008D34E000881
S31508004D70D34E0008092B9ED801A252F823F000BF93
S31508004D80834E0008834E0008834E0008834E0008B1
S31508004D90834E0008B74C0008794E0008B74C000847
S31508004DA00B4E0008B94E0008802B84D1594B1B6F57
S31508004DB003F00703013B032B3FF67DAFDFE803F063
S31508004DC05A535658B3F5F06F71D023D8B3F5B06F70
S31508004DD052D010D8B3F5607F77D0FFF46CAFB3F537
S31508004DE0806F4ED0B3F5A06F7FF465AF002001A9A0
S31508004DF0FFF726FB5FE7B3F5D06F5DD0B3F5E06F3D
S31508004E006CD0B3F5C06F7FF456AF002001A9FFF749
S31508004E10E9FB50E7B3F5186F65D00BD8B3F5086F03
S31508004E204FD0B3F5106F7FF446AF002001A9FFF706
S31508004E3077FD40E7B3F5286F5AD008D8B3F5206F49
S31508004E407FF439AF002001A9FFF7F0FB33E7B3F58C
S31508004E50406F3ED0B3F5486F7FF42DAF002001A90F
S31508004E60FFF716FC27E70523019324E70323FBE74F
S31508004E700823F9E70223F7E7002001A9FFF7D8FC82
S31508004E8019E7002001A9FFF779FB14E74FF0E023A3
S31508004E9002901B695B0705D535F0F6FC0D230393D5
S31508004EA0039BE1E703A902A8FFF79CFBF8E70020AC
S31508004EB001A9FFF71FFCFEE6002001A9FFF704FD84
S31508004EC0F9E601A9FFF736FBF5E601A9FFF70EFBA0
S31508004ED0F1E6002001A9FFF781FAECE6002001A916
S31508004EE0FFF7CEFCE7E6002001A9FFF7DBFAE2E6CA
S31508004EF0084BD3F8703203F00303012B04D0022BBE
S31508004F000CBF15230023AFE7002103A8FFF76AFBB0
S31508004F101123A9E7008000504FF48032074B084957
S31508004F20586E03F580535A664B6A23F001034B62A9
S31508004F30C3035CBF034B5A66704700BF008000502E
S31508004F400000085000A0005008B5FFF7A3FE092886
S31508004F5011D00A38012802D94FF6FF7008BD4FF460
S31508004F608002064B5A6603F5D8335B6ADB07F3D52E
S31508004F704FF4FA70F2E7024B1888EFE700900050FA
S31508004F80D6C5062008B5FFF785FE03280ABF024BDB
S31508004F904FF6FF70188808BDD4C5062038B50446F4
S31508004FA08020FFF777FE032800F08A804FF48012EE
S31508004FB0544B4FF0A0615A6645F60E03524AC2F8A2
S31508004FC08030524B99624FF4803103F580539962D1
S31508004FD0936DD903FCD4916D11F08041FBD1D4E9CE
S31508004FE000031B0543EA0063E07B0343207B43EA97
S31508004FF00043607B43EA0033A07B43EA80131361D6
S315080050009069D4E904531B0643EA856300F000401F
S315080050100343A07EE57E0343207E43EA0043607E89
S3150800502043EA00239361136AE06923F00F0300281B
S3150800503043EA000343EA850314BF0125002543EA32
S31508005040C5031362324D3CD194F82430916A94F822
S315080050502000DB00294043EA40130B4394F8211053
S3150800506043EA011343F4803393622A49264A936D2F
S3150800507031EA0303FBD14FF080712448816213693A
S31508005080A56823F4700343EA055313614FF0004300
S31508005090836194F822300BB91F4B996294F8233038
S315080050A03BB94FF480321C4B9A62174A936D5B00EA
S315080050B0FCD494F825301BB1134B184AC3F880204A
S315080050C038BD022808D11161154891614FF408527C
S315080050D04FF47F4125F095FA0B4994F822308A6AF5
S315080050E094F820001B062A4043EA4013134394F819
S315080050F0242043EAC20394F8232043EA02438B623E
S31508005100D7E700BF009000500040005A0050005AF0
S31508005110C7FFFEFE030001000060005AF1A7FFFF6B
S315080051203440005A014B93F90000704795C6062093
S315080051304FF400011B4A437810B551664FF4D1511C
S31508005140022402F5B832516217494F2B4C604FF0D2
S31508005150010428BF4F2301F580514C601169C9032A
S31508005160FCD4017843EA01235361D0E901131B01FA
S3150800517043EA0123417B0B43017B43EA41039360E6
S31508005180C37B817B1B0143EA4113417C0B43017CB2
S3150800519043EA41035360837C13B16FF4D1535362DE
S315080051A010BD00BF0090005000100250014B18803F
S315080051B0704700BFD6C50620014B1880704700BF50
S315080051C0D4C506204FF4800208B5184B5A66022348
S315080051D0174A5360936813F48033FBD1012822D110
S315080051E035F06CFB134B984215D003F5122303F5E3
S315080051F0F863984213D0104B00EB8002400AB3FBC9
S31508005200F0F3520A0A49CA620B6301234B62002271
S31508005210074B5A6008BD45F67A13084AF2E745F681
S315080052201A03074AEEE75362F1E700BF0090005001
S315080052300040025000F0490264666666D8B8050068
S31508005240BBCF0500B0F5207F10B50C4657D008D85F
S31508005250B0F5007F48D003D830B3B0F5C07F23D06F
S3150800526010BDB0F5607FFBD12949013CD1F8FC207F
S3150800527012F080721EBFD1F8FC3023F08073C1F89B
S31508005280FC302449D1F8803023F0300343EA041473
S31508005290C1F88040002AE3D01D4AD2F8FC3043F01A
S315080052A08073C2F8FC30DBE725F0BAF925F0C6F9B9
S315080052B04FF48031184B174A1967136F013C23F4D2
S315080052C0704343EA0434146735F0DEFA0446FFF700
S315080052D079F8C0F10201204625F0AAF900F036F85F
S315080052E0BDE81040FFF7C6BC0A4A4C1ED2F89030FB
S315080052F023F0F85343EA0464C2F89040B0E7054A3D
S315080053004C1E136F23F4806343EA84231367A7E7CD
S3150800531000ED00E0008000500090005008B5012123
S31508005320022000F01FFC4FF42070FFF725FB054B09
S31508005330187025F075F925F081F94FF48032024B83
S315080053401A6708BD21BE06200090005008B54FF424
S31508005350C070FFF77DFBBDE808400449884294BF4A
S31508005360012102214FF42070FFF76CBF80F0FA028A
S3150800537038B5044635F088FA0546FFF723F8C0F134
S315080053800201284625F054F90121002000F02AFCE4
S315080053902CB1FFF7DBFFBDE83840FFF76BBC034BCA
S315080053A04FF420701978FFF74DFFF4E721BE062069
S315080053B0B0F5807FF8B50C4600F08A8100F28B8044
S315080053C0662879D83C2803D8243809285AD9F8BD3C
S315080053D03D382928FBD801A353F820F05F57000869
S315080053E06D580008CF530008CF530008CF53000864
S315080053F0CF530008CF530008CF530008CF530008F7
S31508005400CF530008CF530008CF530008CF530008E6
S31508005410CF530008CF5300088D580008B15600082E
S31508005420CF530008CF530008CF530008795500081A
S31508005430CF530008CF530008AB550008AD580008F5
S31508005440075500084D580008CF530008CF530008E9
S31508005450CF530008CF530008CF530008DB55000888
S31508005460CF530008CF530008B1560008B1560008BC
S31508005470B1560008B1560008B15600084D58000844
S315080054804D5800080928A2D801A353F820F000BFF8
S31508005490B1560008B1560008B1560008B1560008C2
S315080054A0B1560008CF53000891560008CF5300089C
S315080054B03F5500087F570008802888D18B1E062B89
S315080054C000F29B80DFE813F0DE00CC009900E100D3
S315080054D099009900DB00B0F5F06F00F040813ED8E6
S315080054E0B0F5B06F00F0D4801DD8B0F5607F00F03D
S315080054F08781FFF46CAFB0F5806F00F0D980B0F506
